{"contracts/WasteManagement.sol":{"WasteManagement":{"abi":[{"inputs":[],"stateMutability":"nonpayable","type":"constructor"},{"anonymous":false,"inputs":[{"indexed":false,"internalType":"uint256","name":"wasteId","type":"uint256"},{"indexed":false,"internalType":"uint256","name":"disposalInfo","type":"uint256"},{"indexed":false,"internalType":"uint256","name":"transportWasteId","type":"uint256"},{"indexed":false,"internalType":"uint256","name":"facilityId","type":"uint256"}],"name":"DisposalWasteRegistered","type":"event"},{"anonymous":false,"inputs":[{"indexed":false,"internalType":"uint256","name":"facilityId","type":"uint256"},{"indexed":false,"internalType":"string","name":"capability","type":"string"},{"indexed":false,"internalType":"bool","name":"enabled","type":"bool"}],"name":"FacilityCapabilityUpdated","type":"event"},{"anonymous":false,"inputs":[{"indexed":false,"internalType":"uint256","name":"facilityId","type":"uint256"},{"indexed":false,"internalType":"string","name":"name","type":"string"},{"indexed":false,"internalType":"enum WasteManagement.FacilityType","name":"facilityType","type":"uint8"},{"indexed":false,"internalType":"address","name":"owner","type":"address"}],"name":"FacilityRegistered","type":"event"},{"anonymous":false,"inputs":[{"indexed":false,"internalType":"uint256","name":"facilityId","type":"uint256"},{"indexed":false,"internalType":"string","name":"action","type":"string"},{"indexed":false,"internalType":"string","name":"details","type":"string"}],"name":"HistoryAdded","type":"event"},{"anonymous":false,"inputs":[{"indexed":false,"internalType":"uint256","name":"wasteId","type":"uint256"},{"indexed":false,"internalType":"bool","name":"isSegregationDone","type":"bool"},{"indexed":false,"internalType":"uint256","name":"facilityId","type":"uint256"}],"name":"HospitalWasteRegistered","type":"event"},{"anonymous":false,"inputs":[{"indexed":false,"internalType":"uint256","name":"wasteId","type":"uint256"},{"indexed":false,"internalType":"string","name":"vehicleNumber","type":"string"},{"indexed":false,"internalType":"uint256","name":"hospitalWasteId","type":"uint256"},{"indexed":false,"internalType":"uint256","name":"facilityId","type":"uint256"}],"name":"TransportWasteRegistered","type":"event"},{"inputs":[{"internalType":"uint256","name":"_facilityId","type":"uint256"},{"internalType":"address","name":"_user","type":"address"}],"name":"authorizeFacilityUser","outputs":[],"stateMutability":"nonpayable","type":"function"},{"inputs":[{"internalType":"uint256","name":"","type":"uint256"},{"internalType":"address","name":"","type":"address"}],"name":"authorizedUsers","outputs":[{"internalType":"bool","name":"","type":"bool"}],"stateMutability":"view","type":"function"},{"inputs":[{"internalType":"uint256","name":"_facilityId","type":"uint256"}],"name":"canFacilityDisposeWaste","outputs":[{"internalType":"bool","name":"","type":"bool"}],"stateMutability":"view","type":"function"},{"inputs":[{"internalType":"uint256","name":"_facilityId","type":"uint256"}],"name":"canFacilitySegregateWaste","outputs":[{"internalType":"bool","name":"","type":"bool"}],"stateMutability":"view","type":"function"},{"inputs":[{"internalType":"uint256","name":"_facilityId","type":"uint256"}],"name":"canFacilityTransportWaste","outputs":[{"internalType":"bool","name":"","type":"bool"}],"stateMutability":"view","type":"function"},{"inputs":[{"internalType":"uint256","name":"","type":"uint256"}],"name":"disposalWastes","outputs":[{"internalType":"uint256","name":"wasteId","type":"uint256"},{"internalType":"uint256","name":"disposalInfo","type":"uint256"},{"internalType":"bool","name":"isSegregated","type":"bool"},{"internalType":"uint256","name":"treatmentInfo","type":"uint256"},{"internalType":"bool","name":"otherTreatment","type":"bool"},{"internalType":"uint256","name":"transportWasteId","type":"uint256"},{"internalType":"uint256","name":"facilityId","type":"uint256"},{"internalType":"address","name":"owner","type":"address"}],"stateMutability":"view","type":"function"},{"inputs":[{"internalType":"address","name":"","type":"address"},{"internalType":"uint256","name":"","type":"uint256"}],"name":"disposalWastesByAddress","outputs":[{"internalType":"uint256","name":"","type":"uint256"}],"stateMutability":"view","type":"function"},{"inputs":[{"internalType":"uint256","name":"_facilityId","type":"uint256"}],"name":"enableAllCapabilities","outputs":[],"stateMutability":"nonpayable","type":"function"},{"inputs":[{"internalType":"address","name":"","type":"address"},{"internalType":"uint256","name":"","type":"uint256"}],"name":"facilitiesByAddress","outputs":[{"internalType":"uint256","name":"facilityId","type":"uint256"},{"internalType":"string","name":"facilityName","type":"string"},{"internalType":"enum WasteManagement.FacilityType","name":"facilityType","type":"uint8"},{"internalType":"address","name":"owner","type":"address"}],"stateMutability":"view","type":"function"},{"inputs":[{"internalType":"uint256","name":"","type":"uint256"}],"name":"facilitiesById","outputs":[{"internalType":"uint256","name":"facilityId","type":"uint256"},{"internalType":"string","name":"facilityName","type":"string"},{"internalType":"enum WasteManagement.FacilityType","name":"facilityType","type":"uint8"},{"internalType":"address","name":"owner","type":"address"}],"stateMutability":"view","type":"function"},{"inputs":[{"internalType":"uint256","name":"","type":"uint256"}],"name":"facilityCapabilities","outputs":[{"internalType":"bool","name":"canSegregateWaste","type":"bool"},{"internalType":"bool","name":"canTransportWaste","type":"bool"},{"internalType":"bool","name":"canDisposeWaste","type":"bool"}],"stateMutability":"view","type":"function"},{"inputs":[{"internalType":"uint256","name":"_facilityId","type":"uint256"}],"name":"getAuthorizedUsers","outputs":[{"internalType":"address[]","name":"","type":"address[]"}],"stateMutability":"view","type":"function"},{"inputs":[{"internalType":"uint256","name":"_id","type":"uint256"}],"name":"getDisposalWasteById","outputs":[{"components":[{"internalType":"uint256","name":"wasteId","type":"uint256"},{"internalType":"uint256","name":"disposalInfo","type":"uint256"},{"internalType":"bool","name":"isSegregated","type":"bool"},{"internalType":"uint256","name":"treatmentInfo","type":"uint256"},{"internalType":"bool","name":"otherTreatment","type":"bool"},{"internalType":"uint256","name":"transportWasteId","type":"uint256"},{"internalType":"uint256","name":"facilityId","type":"uint256"},{"internalType":"address","name":"owner","type":"address"}],"internalType":"struct WasteManagement.DisposalWaste","name":"","type":"tuple"}],"stateMutability":"view","type":"function"},{"inputs":[],"name":"getDisposalWastes","outputs":[{"internalType":"uint256[]","name":"","type":"uint256[]"}],"stateMutability":"view","type":"function"},{"inputs":[],"name":"getFacilities","outputs":[{"components":[{"internalType":"uint256","name":"facilityId","type":"uint256"},{"internalType":"string","name":"facilityName","type":"string"},{"internalType":"enum WasteManagement.FacilityType","name":"facilityType","type":"uint8"},{"internalType":"address","name":"owner","type":"address"}],"internalType":"struct WasteManagement.Facility[]","name":"","type":"tuple[]"}],"stateMutability":"view","type":"function"},{"inputs":[{"internalType":"uint256","name":"_id","type":"uint256"}],"name":"getFacility","outputs":[{"components":[{"internalType":"uint256","name":"facilityId","type":"uint256"},{"internalType":"string","name":"facilityName","type":"string"},{"internalType":"enum WasteManagement.FacilityType","name":"facilityType","type":"uint8"},{"internalType":"address","name":"owner","type":"address"}],"internalType":"struct WasteManagement.Facility","name":"","type":"tuple"}],"stateMutability":"view","type":"function"},{"inputs":[{"internalType":"uint256","name":"_facilityId","type":"uint256"}],"name":"getFacilityHistory","outputs":[{"components":[{"internalType":"uint256","name":"timestamp","type":"uint256"},{"internalType":"string","name":"action","type":"string"},{"internalType":"string","name":"details","type":"string"},{"internalType":"bytes32","name":"transactionHash","type":"bytes32"}],"internalType":"struct FacilityHistory.HistoryEntry[]","name":"","type":"tuple[]"}],"stateMutability":"view","type":"function"},{"inputs":[{"internalType":"uint256","name":"_id","type":"uint256"}],"name":"getHospitalWasteById","outputs":[{"components":[{"internalType":"uint256","name":"wasteId","type":"uint256"},{"internalType":"bool","name":"isSegregationDone","type":"bool"},{"internalType":"uint256","name":"totalWaste","type":"uint256"},{"internalType":"uint256","name":"totalBiomedicalWaste","type":"uint256"},{"internalType":"bool","name":"storageProperlyDone","type":"bool"},{"internalType":"bool","name":"binsNotOverflowing","type":"bool"},{"internalType":"bool","name":"wasteStored24Hours","type":"bool"},{"internalType":"uint256","name":"temperatureRecorded","type":"uint256"},{"internalType":"uint256","name":"facilityId","type":"uint256"},{"internalType":"address","name":"owner","type":"address"}],"internalType":"struct WasteManagement.HospitalWaste","name":"","type":"tuple"}],"stateMutability":"view","type":"function"},{"inputs":[],"name":"getHospitalWastes","outputs":[{"internalType":"uint256[]","name":"","type":"uint256[]"}],"stateMutability":"view","type":"function"},{"inputs":[{"internalType":"uint256","name":"_id","type":"uint256"}],"name":"getTransportWasteById","outputs":[{"components":[{"internalType":"uint256","name":"wasteId","type":"uint256"},{"internalType":"string","name":"vehicleNumber","type":"string"},{"internalType":"string","name":"status","type":"string"},{"internalType":"string","name":"estimatedArrival","type":"string"},{"internalType":"string","name":"wasteRecorded","type":"string"},{"internalType":"uint256","name":"hospitalWasteId","type":"uint256"},{"internalType":"uint256","name":"facilityId","type":"uint256"},{"internalType":"address","name":"owner","type":"address"}],"internalType":"struct WasteManagement.TransportWaste","name":"","type":"tuple"}],"stateMutability":"view","type":"function"},{"inputs":[],"name":"getTransportWastes","outputs":[{"internalType":"uint256[]","name":"","type":"uint256[]"}],"stateMutability":"view","type":"function"},{"inputs":[{"internalType":"uint256","name":"","type":"uint256"}],"name":"hospitalWastes","outputs":[{"internalType":"uint256","name":"wasteId","type":"uint256"},{"internalType":"bool","name":"isSegregationDone","type":"bool"},{"internalType":"uint256","name":"totalWaste","type":"uint256"},{"internalType":"uint256","name":"totalBiomedicalWaste","type":"uint256"},{"internalType":"bool","name":"storageProperlyDone","type":"bool"},{"internalType":"bool","name":"binsNotOverflowing","type":"bool"},{"internalType":"bool","name":"wasteStored24Hours","type":"bool"},{"internalType":"uint256","name":"temperatureRecorded","type":"uint256"},{"internalType":"uint256","name":"facilityId","type":"uint256"},{"internalType":"address","name":"owner","type":"address"}],"stateMutability":"view","type":"function"},{"inputs":[{"internalType":"address","name":"","type":"address"},{"internalType":"uint256","name":"","type":"uint256"}],"name":"hospitalWastesByAddress","outputs":[{"internalType":"uint256","name":"","type":"uint256"}],"stateMutability":"view","type":"function"},{"inputs":[{"internalType":"uint256","name":"_facilityId","type":"uint256"},{"internalType":"address","name":"_user","type":"address"}],"name":"isAuthorizedForFacility","outputs":[{"internalType":"bool","name":"","type":"bool"}],"stateMutability":"view","type":"function"},{"inputs":[],"name":"owner","outputs":[{"internalType":"address","name":"","type":"address"}],"stateMutability":"view","type":"function"},{"inputs":[{"internalType":"uint256","name":"_facilityId","type":"uint256"}],"name":"ownsValidFacility","outputs":[{"internalType":"bool","name":"","type":"bool"}],"stateMutability":"view","type":"function"},{"inputs":[{"internalType":"uint256","name":"_disposalInfo","type":"uint256"},{"internalType":"bool","name":"_isSegregated","type":"bool"},{"internalType":"uint256","name":"_treatmentInfo","type":"uint256"},{"internalType":"bool","name":"_otherTreatment","type":"bool"},{"internalType":"uint256","name":"_transportWasteId","type":"uint256"}],"name":"registerDisposalWaste","outputs":[],"stateMutability":"nonpayable","type":"function"},{"inputs":[{"internalType":"uint256","name":"_disposalInfo","type":"uint256"},{"internalType":"bool","name":"_isSegregated","type":"bool"},{"internalType":"uint256","name":"_treatmentInfo","type":"uint256"},{"internalType":"bool","name":"_otherTreatment","type":"bool"},{"internalType":"uint256","name":"_transportWasteId","type":"uint256"},{"internalType":"uint256","name":"_facilityId","type":"uint256"}],"name":"registerDisposalWaste","outputs":[],"stateMutability":"nonpayable","type":"function"},{"inputs":[{"internalType":"string","name":"_name","type":"string"},{"internalType":"enum WasteManagement.FacilityType","name":"_type","type":"uint8"}],"name":"registerFacility","outputs":[],"stateMutability":"nonpayable","type":"function"},{"inputs":[{"internalType":"bool","name":"_isSegregationDone","type":"bool"},{"internalType":"uint256","name":"_totalWaste","type":"uint256"},{"internalType":"uint256","name":"_totalBiomedicalWaste","type":"uint256"},{"internalType":"bool","name":"_storageProperlyDone","type":"bool"},{"internalType":"bool","name":"_binsNotOverflowing","type":"bool"},{"internalType":"bool","name":"_wasteStored24Hours","type":"bool"},{"internalType":"uint256","name":"_temperatureRecorded","type":"uint256"}],"name":"registerHospitalWaste","outputs":[],"stateMutability":"nonpayable","type":"function"},{"inputs":[{"internalType":"bool","name":"_isSegregationDone","type":"bool"},{"internalType":"uint256","name":"_totalWaste","type":"uint256"},{"internalType":"uint256","name":"_totalBiomedicalWaste","type":"uint256"},{"internalType":"bool","name":"_storageProperlyDone","type":"bool"},{"internalType":"bool","name":"_binsNotOverflowing","type":"bool"},{"internalType":"bool","name":"_wasteStored24Hours","type":"bool"},{"internalType":"uint256","name":"_temperatureRecorded","type":"uint256"},{"internalType":"uint256","name":"_facilityId","type":"uint256"}],"name":"registerHospitalWaste","outputs":[],"stateMutability":"nonpayable","type":"function"},{"inputs":[{"internalType":"string","name":"_vehicleNumber","type":"string"},{"internalType":"string","name":"_status","type":"string"},{"internalType":"string","name":"_estimatedArrival","type":"string"},{"internalType":"string","name":"_wasteRecorded","type":"string"},{"internalType":"uint256","name":"_hospitalWasteId","type":"uint256"}],"name":"registerTransportWaste","outputs":[],"stateMutability":"nonpayable","type":"function"},{"inputs":[{"internalType":"string","name":"_vehicleNumber","type":"string"},{"internalType":"string","name":"_status","type":"string"},{"internalType":"string","name":"_estimatedArrival","type":"string"},{"internalType":"string","name":"_wasteRecorded","type":"string"},{"internalType":"uint256","name":"_hospitalWasteId","type":"uint256"},{"internalType":"uint256","name":"_facilityId","type":"uint256"}],"name":"registerTransportWaste","outputs":[],"stateMutability":"nonpayable","type":"function"},{"inputs":[{"internalType":"uint256","name":"_facilityId","type":"uint256"},{"internalType":"address","name":"_user","type":"address"}],"name":"revokeFacilityAuthorization","outputs":[],"stateMutability":"nonpayable","type":"function"},{"inputs":[{"internalType":"uint256","name":"_facilityId","type":"uint256"},{"internalType":"string","name":"_capability","type":"string"},{"internalType":"bool","name":"_enabled","type":"bool"}],"name":"setFacilityCapability","outputs":[],"stateMutability":"nonpayable","type":"function"},{"inputs":[{"internalType":"uint256","name":"","type":"uint256"}],"name":"transportWastes","outputs":[{"internalType":"uint256","name":"wasteId","type":"uint256"},{"internalType":"string","name":"vehicleNumber","type":"string"},{"internalType":"string","name":"status","type":"string"},{"internalType":"string","name":"estimatedArrival","type":"string"},{"internalType":"string","name":"wasteRecorded","type":"string"},{"internalType":"uint256","name":"hospitalWasteId","type":"uint256"},{"internalType":"uint256","name":"facilityId","type":"uint256"},{"internalType":"address","name":"owner","type":"address"}],"stateMutability":"view","type":"function"},{"inputs":[{"internalType":"address","name":"","type":"address"},{"internalType":"uint256","name":"","type":"uint256"}],"name":"transportWastesByAddress","outputs":[{"internalType":"uint256","name":"","type":"uint256"}],"stateMutability":"view","type":"function"}],"evm":{"bytecode":{"linkReferences":{},"object":"608060405234801561001057600080fd5b50600f80546001600160a01b03191633179055613c68806100326000396000f3fe608060405234801561001057600080fd5b50600436106102275760003560e01c80639209d4d611610130578063d35e0586116100b8578063f6048bd01161007c578063f6048bd014610669578063f6e2fada1461067c578063fa71bbf91461068f578063fafa622a146106a4578063fcbcbf421461072057600080fd5b8063d35e0586146105c6578063d3ae7cfe146105e6578063e4962bff146105f9578063e60ff96614610619578063f06710491461064057600080fd5b8063a5663a9f116100ff578063a5663a9f1461053f578063aa3bcaf81461056d578063aeb13f4714610580578063cb405cad146105a0578063d2ad9a53146105b357600080fd5b80639209d4d6146104d1578063978b33e0146104f9578063a2443e1f1461050c578063a55677cd1461051f57600080fd5b80633eeef27a116101b35780635d2daf4e116101825780635d2daf4e1461045857806368f07d97146104605780636f82277b146104735780638698fb32146104865780638da5cb5b146104a657600080fd5b80633eeef27a146103405780634669d64a146103485780635653bc67146104125780635b0bd7be1461044557600080fd5b806313c38bb5116101fa57806313c38bb51461028d5780631b5be013146102e25780631ea84ac7146102f55780632d448e391461030a57806336498dff1461031d57600080fd5b8063015d29901461022c57806302e241861461025257806311d76f6c146102675780631220b1e51461027a575b600080fd5b61023f61023a366004612d00565b6107cc565b6040519081526020015b60405180910390f35b610265610260366004612d2a565b6107fd565b005b610265610275366004612d56565b6108b6565b61023f610288366004612d00565b610a1c565b6102c361029b366004612d56565b600e6020526000908152604090205460ff808216916101008104821691620100009091041683565b6040805193151584529115156020840152151590820152606001610249565b6102656102f0366004612e12565b610a38565b6102fd610aad565b6040516102499190612ec7565b610265610318366004612f1b565b610b0e565b61033061032b366004612d56565b610b7b565b6040516102499493929190612ff1565b6102fd610c3a565b6103bb610356366004612d56565b600460208190526000918252604090912080546001820154600283015460038401549484015460058501546006860154600790960154949660ff948516969395909483811694610100850482169462010000900490911692916001600160a01b03168a565b604080519a8b5298151560208b01529789019690965260608801949094529115156080870152151560a0860152151560c085015260e08401526101008301526001600160a01b031661012082015261014001610249565b610435610420366004612d56565b6000908152600e602052604090205460ff1690565b6040519015158152602001610249565b610265610453366004613033565b610c99565b6102fd610d12565b61023f61046e366004612d00565b610d71565b6102656104813660046130a4565b610d8d565b610499610494366004612d56565b61107b565b604051610249919061316f565b600f546104b9906001600160a01b031681565b6040516001600160a01b039091168152602001610249565b6104356104df366004612d56565b6000908152600e6020526040902054610100900460ff1690565b610330610507366004612d00565b611202565b61026561051a366004613182565b611248565b61053261052d366004612d56565b6114cd565b60405161024991906131da565b61043561054d366004612d2a565b600d60209081526000928352604080842090915290825290205460ff1681565b61026561057b366004613276565b61166e565b61059361058e366004612d56565b6118fe565b6040516102499190613335565b6102656105ae366004612d2a565b611c45565b6104356105c1366004612d56565b611cd7565b6105d96105d4366004612d56565b611e37565b60405161024991906133f1565b6102656105f4366004613432565b611e72565b61060c610607366004612d56565b6120f0565b6040516102499190613489565b61062c610627366004612d56565b612237565b604051610249989796959493929190613527565b61043561064e366004612d56565b6000908152600e602052604090205462010000900460ff1690565b6102656106773660046135a7565b6124a3565b61043561068a366004612d2a565b612679565b6106976126a6565b60405161024991906135fd565b6106b76106b2366004612d56565b6127f9565b604051610249919081518152602080830151908201526040808301511515908201526060808301519082015260808083015115159082015260a0808301519082015260c0808301519082015260e0918201516001600160a01b0316918101919091526101000190565b61078061072e366004612d56565b600a60205260009081526040902080546001820154600283015460038401546004850154600586015460068701546007909701549596949560ff9485169593949092169290916001600160a01b031688565b6040805198895260208901979097529415159587019590955260608601929092521515608085015260a084015260c08301919091526001600160a01b031660e082015261010001610249565b600860205281600052604060002081815481106107e857600080fd5b90600052602060002001600091509150505481565b61080682611cd7565b61082b5760405162461bcd60e51b81526004016108229061365f565b60405180910390fd5b6000828152600d602090815260408083206001600160a01b0385168452825291829020805460ff19169055815180830190925260158252741055551213d4925690551253d397d4915593d2d151605a1b908201526108b290839061088e8461292c565b60405160200161089e9190613696565b604051602081830303815290604052612b17565b5050565b6108bf81611cd7565b6108db5760405162461bcd60e51b8152600401610822906136db565b6000818152600e6020908152604091829020805462ffffff1916620101011790558151808301835260118152704341504142494c4954595f55504441544560781b818301528251606081019093526021808452610943938593909190613bf290830139612b17565b604080518281526060602082018190526009908201526873656772656761746560b81b60808201526001818301529051600080516020613c138339815191529181900360a00190a160408051828152606060208201819052600990820152681d1c985b9cdc1bdc9d60ba1b60808201526001818301529051600080516020613c138339815191529181900360a00190a16040805182815260606020820181905260079082015266646973706f736560c81b60808201526001818301529051600080516020613c138339815191529181900360a00190a150565b600560205281600052604060002081815481106107e857600080fd5b33600090815260016020526040902054610a645760405162461bcd60e51b81526004016108229061372a565b33600090815260016020526040812080548290610a8357610a83613773565b9060005260206000209060030201600001549050610aa586868686868661166e565b505050505050565b336000908152600b6020908152604091829020805483518184028101840190945280845260609392830182828015610b0457602002820191906000526020600020905b815481526020019060010190808311610af0575b5050505050905090565b33600090815260016020526040902054610b3a5760405162461bcd60e51b81526004016108229061372a565b33600090815260016020526040812080548290610b5957610b59613773565b9060005260206000209060030201600001549050610aa5868686868686611248565b60026020526000908152604090208054600182018054919291610b9d90613789565b80601f0160208091040260200160405190810160405280929190818152602001828054610bc990613789565b8015610c165780601f10610beb57610100808354040283529160200191610c16565b820191906000526020600020905b815481529060010190602001808311610bf957829003601f168201915b5050506002909301549192505060ff8116906001600160a01b036101009091041684565b33600090815260056020908152604091829020805483518184028101840190945280845260609392830182828015610b045760200282019190600052602060002090815481526020019060010190808311610af0575050505050905090565b33600090815260016020526040902054610cc55760405162461bcd60e51b81526004016108229061372a565b33600090815260016020526040812080548290610ce457610ce4613773565b9060005260206000209060030201600001549050610d088888888888888888610d8d565b5050505050505050565b33600090815260086020908152604091829020805483518184028101840190945280845260609392830182828015610b045760200282019190600052602060002090815481526020019060010190808311610af0575050505050905090565b600b60205281600052604060002081815481106107e857600080fd5b610d9681611cd7565b610db25760405162461bcd60e51b8152600401610822906136db565b6000818152600e602052604090205460ff16610e2e5760405162461bcd60e51b815260206004820152603560248201527f5468697320666163696c697479206973206e6f742072656769737465726564206044820152743337b9103bb0b9ba329039b2b3b932b3b0ba34b7b760591b6064820152608401610822565b60068054906000610e3e836137d9565b91905055506000600654905060006040518061014001604052808381526020018b151581526020018a8152602001898152602001881515815260200187151581526020018615158152602001858152602001848152602001336001600160a01b0316815250905080600460008481526020019081526020016000206000820151816000015560208201518160010160006101000a81548160ff021916908315150217905550604082015181600201556060820151816003015560808201518160040160006101000a81548160ff02191690831515021790555060a08201518160040160016101000a81548160ff02191690831515021790555060c08201518160040160026101000a81548160ff02191690831515021790555060e0820151816005015561010082015181600601556101208201518160070160006101000a8154816001600160a01b0302191690836001600160a01b0316021790555090505060056000336001600160a01b03166001600160a01b0316815260200190815260200160002082908060018154018082558091505060019003906000526020600020016000909190919091505561102d836040518060400160405280600e81526020016d484f53504954414c5f574153544560901b81525061101d85612bdb565b60405160200161089e91906137f2565b604080518381528b151560208201529081018490527f82560527e033c54838d3005c1bc85fcdc3764cd9f2fcc93d0da0474cf1940ff29060600160405180910390a150505050505050505050565b6110a66040805160808101825260008082526060602083015290918201908152600060209091015290565b6000828152600260205260409020546110f65760405162461bcd60e51b8152602060048201526012602482015271119858da5b1a5d1e481b9bdd08199bdd5b9960721b6044820152606401610822565b600260008381526020019081526020016000206040518060800160405290816000820154815260200160018201805461112e90613789565b80601f016020809104026020016040519081016040528092919081815260200182805461115a90613789565b80156111a75780601f1061117c576101008083540402835291602001916111a7565b820191906000526020600020905b81548152906001019060200180831161118a57829003601f168201915b5050509183525050600282015460209091019060ff1660048111156111ce576111ce612fb9565b60048111156111df576111df612fb9565b81526002919091015461010090046001600160a01b031660209091015292915050565b6001602052816000526040600020818154811061121e57600080fd5b906000526020600020906003020160009150915050806000015490806001018054610b9d90613789565b61125181611cd7565b61126d5760405162461bcd60e51b8152600401610822906136db565b6000828152600760205260409020546112c45760405162461bcd60e51b8152602060048201526019602482015278151c985b9cdc1bdc9d081dd85cdd19481b9bdd08199bdd5b99603a1b6044820152606401610822565b6000818152600e602052604090205462010000900460ff166113435760405162461bcd60e51b815260206004820152603260248201527f5468697320666163696c697479206973206e6f74207265676973746572656420604482015271199bdc881dd85cdd1948191a5cdc1bdcd85b60721b6064820152608401610822565b600c8054906000611353836137d9565b9091555050600c54604080516101008101825282815260208082018a8152891515838501908152606084018a81528915156080860190815260a086018a815260c087018a81523360e0890181815260008c8152600a8a528b81208b51815598516001808b0191909155975160028a01805460ff19908116921515929092179055965160038a0155945160048901805490971690151517909555915160058701555160068601559151600790940180546001600160a01b0319166001600160a01b03909516949094179093558252600b835284822080549182018155825290829020018490558251808401909352600e83526d444953504f53414c5f574153544560901b908301529061147a90849061146a85612bdb565b60405160200161089e9190613843565b60408051838152602081018a9052908101859052606081018490527f81060cdb462a17818c25ac4aef15a0d1fad18517cfbc8e8350b3bb770c43bff1906080015b60405180910390a15050505050505050565b600081815260208181526040808320805482518185028101850190935280835260609492939192909184015b8282101561166357838290600052602060002090600402016040518060800160405290816000820154815260200160018201805461153690613789565b80601f016020809104026020016040519081016040528092919081815260200182805461156290613789565b80156115af5780601f10611584576101008083540402835291602001916115af565b820191906000526020600020905b81548152906001019060200180831161159257829003601f168201915b505050505081526020016002820180546115c890613789565b80601f01602080910402602001604051908101604052809291908181526020018280546115f490613789565b80156116415780601f1061161657610100808354040283529160200191611641565b820191906000526020600020905b81548152906001019060200180831161162457829003601f168201915b50505050508152602001600382015481525050815260200190600101906114f9565b505050509050919050565b61167781611cd7565b6116935760405162461bcd60e51b8152600401610822906136db565b6000828152600460205260409020546116e95760405162461bcd60e51b8152602060048201526018602482015277121bdcdc1a5d185b081dd85cdd19481b9bdd08199bdd5b9960421b6044820152606401610822565b6000818152600e6020526040902054610100900460ff166117685760405162461bcd60e51b815260206004820152603360248201527f5468697320666163696c697479206973206e6f74207265676973746572656420604482015272199bdc881dd85cdd19481d1c985b9cdc1bdc9d606a1b6064820152608401610822565b60098054906000611778836137d9565b9091555050600954604080516101008101825282815260208082018a81528284018a9052606083018990526080830188905260a0830187905260c083018690523360e0840152600085815260079092529290208151815591519091829160018201906117e490826138d2565b50604082015160028201906117f990826138d2565b506060820151600382019061180e90826138d2565b506080820151600482019061182390826138d2565b5060a0820151600582015560c0820151600682015560e090910151600790910180546001600160a01b0319166001600160a01b039092169190911790553360009081526008602090815260408083208054600181018255908452928290209092018490558151808301909252600f82526e5452414e53504f52545f574153544560881b908201526118c99084906118b985612bdb565b60405160200161089e9190613992565b7f734f3e705d98e08cf141c22197edf19cce7e665e932ca904a80d85ce4fad82d7828986866040516114bb94939291906139e4565b61194f6040518061010001604052806000815260200160608152602001606081526020016060815260200160608152602001600081526020016000815260200160006001600160a01b031681525090565b6000828152600760205260409020546119a65760405162461bcd60e51b8152602060048201526019602482015278151c985b9cdc1bdc9d081dd85cdd19481b9bdd08199bdd5b99603a1b6044820152606401610822565b6007600083815260200190815260200160002060405180610100016040529081600082015481526020016001820180546119df90613789565b80601f0160208091040260200160405190810160405280929190818152602001828054611a0b90613789565b8015611a585780601f10611a2d57610100808354040283529160200191611a58565b820191906000526020600020905b815481529060010190602001808311611a3b57829003601f168201915b50505050508152602001600282018054611a7190613789565b80601f0160208091040260200160405190810160405280929190818152602001828054611a9d90613789565b8015611aea5780601f10611abf57610100808354040283529160200191611aea565b820191906000526020600020905b815481529060010190602001808311611acd57829003601f168201915b50505050508152602001600382018054611b0390613789565b80601f0160208091040260200160405190810160405280929190818152602001828054611b2f90613789565b8015611b7c5780601f10611b5157610100808354040283529160200191611b7c565b820191906000526020600020905b815481529060010190602001808311611b5f57829003601f168201915b50505050508152602001600482018054611b9590613789565b80601f0160208091040260200160405190810160405280929190818152602001828054611bc190613789565b8015611c0e5780601f10611be357610100808354040283529160200191611c0e565b820191906000526020600020905b815481529060010190602001808311611bf157829003601f168201915b505050918352505060058201546020820152600682015460408201526007909101546001600160a01b031660609091015292915050565b611c4e82611cd7565b611c6a5760405162461bcd60e51b81526004016108229061365f565b6000828152600d602081815260408084206001600160a01b0386168552825292839020805460ff1916600117905582518084019093529082526c20aaaa2427a924ad20aa24a7a760991b908201526108b2908390611cc78461292c565b60405160200161089e9190613a10565b6000811580611ce7575060035482115b15611cf457506000919050565b60006002600084815260200190815260200160002060405180608001604052908160008201548152602001600182018054611d2e90613789565b80601f0160208091040260200160405190810160405280929190818152602001828054611d5a90613789565b8015611da75780601f10611d7c57610100808354040283529160200191611da7565b820191906000526020600020905b815481529060010190602001808311611d8a57829003601f168201915b5050509183525050600282015460209091019060ff166004811115611dce57611dce612fb9565b6004811115611ddf57611ddf612fb9565b8152600291909101546001600160a01b036101009091048116602090920191909152606082015191925016331480611e3057506000838152600d6020908152604080832033845290915290205460ff165b9392505050565b6060611e4282611cd7565b611e5e5760405162461bcd60e51b81526004016108229061365f565b505060408051600081526020810190915290565b611e7b83611cd7565b611e975760405162461bcd60e51b8152600401610822906136db565b6000838152600e60209081526040918290209151611ec591016873656772656761746560b81b815260090190565b6040516020818303038152906040528051906020012083604051602001611eec9190613a49565b6040516020818303038152906040528051906020012003611f1857805460ff1916821515178155612035565b604051681d1c985b9cdc1bdc9d60ba1b60208201526029016040516020818303038152906040528051906020012083604051602001611f579190613a49565b6040516020818303038152906040528051906020012003611f8857805461ff00191661010083151502178155612035565b60405166646973706f736560c81b60208201526027016040516020818303038152906040528051906020012083604051602001611fc59190613a49565b6040516020818303038152906040528051906020012003611ff857805462ff000019166201000083151502178155612035565b60405162461bcd60e51b8152602060048201526012602482015271496e76616c6964206361706162696c69747960701b6044820152606401610822565b6120c184604051806040016040528060118152602001704341504142494c4954595f55504441544560781b815250858561208f5760405180604001604052806008815260200167191a5cd8589b195960c21b8152506120b0565b60405180604001604052806007815260200166195b98589b195960ca1b8152505b60405160200161089e929190613a65565b600080516020613c138339815191528484846040516120e293929190613ad1565b60405180910390a150505050565b6040805161014081018252600080825260208201819052918101829052606081018290526080810182905260a0810182905260c0810182905260e0810182905261010081018290526101208101919091526000828152600460205260409020546121975760405162461bcd60e51b8152602060048201526018602482015277121bdcdc1a5d185b081dd85cdd19481b9bdd08199bdd5b9960421b6044820152606401610822565b5060009081526004602081815260409283902083516101408101855281548152600182015460ff9081161515938201939093526002820154948101949094526003810154606085015291820154808216151560808501526101008082048316151560a086015262010000909104909116151560c0840152600582015460e0840152600682015490830152600701546001600160a01b031661012082015290565b6007602052600090815260409020805460018201805491929161225990613789565b80601f016020809104026020016040519081016040528092919081815260200182805461228590613789565b80156122d25780601f106122a7576101008083540402835291602001916122d2565b820191906000526020600020905b8154815290600101906020018083116122b557829003601f168201915b5050505050908060020180546122e790613789565b80601f016020809104026020016040519081016040528092919081815260200182805461231390613789565b80156123605780601f1061233557610100808354040283529160200191612360565b820191906000526020600020905b81548152906001019060200180831161234357829003601f168201915b50505050509080600301805461237590613789565b80601f01602080910402602001604051908101604052809291908181526020018280546123a190613789565b80156123ee5780601f106123c3576101008083540402835291602001916123ee565b820191906000526020600020905b8154815290600101906020018083116123d157829003601f168201915b50505050509080600401805461240390613789565b80601f016020809104026020016040519081016040528092919081815260200182805461242f90613789565b801561247c5780601f106124515761010080835404028352916020019161247c565b820191906000526020600020905b81548152906001019060200180831161245f57829003601f168201915b5050505060058301546006840154600790940154929390929091506001600160a01b031688565b600380549060006124b3836137d9565b9091555050600354604080516080810182528281526020810185905260009181018460048111156124e6576124e6612fb9565b8152336020918201819052600090815260018083526040822080548083018255908352918390208451600390930201918255918301519293508392909182019061253090826138d2565b50604082015160028201805460ff1916600183600481111561255457612554612fb9565b021790555060609190910151600291820180546001600160a01b0390921661010002610100600160a81b03199092169190911790556000838152602091825260409020825181559082015182919060018201906125b190826138d2565b50604082015160028201805460ff191660018360048111156125d5576125d5612fb9565b021790555060608201518160020160016101000a8154816001600160a01b0302191690836001600160a01b03160217905550905050612644826040518060400160405280600c81526020016b2922a3a4a9aa2920aa24a7a760a11b8152508660405160200161089e9190613afc565b7fe12b00cb2a4bf11f0efb3122df82fda9da45b52f73b965b9a120adb375741537828585336040516120e29493929190612ff1565b6000828152600d602090815260408083206001600160a01b038516845290915290205460ff165b92915050565b336000908152600160209081526040808320805482518185028101850190935280835260609492939192909184015b828210156127f057838290600052602060002090600302016040518060800160405290816000820154815260200160018201805461271290613789565b80601f016020809104026020016040519081016040528092919081815260200182805461273e90613789565b801561278b5780601f106127605761010080835404028352916020019161278b565b820191906000526020600020905b81548152906001019060200180831161276e57829003601f168201915b5050509183525050600282015460209091019060ff1660048111156127b2576127b2612fb9565b60048111156127c3576127c3612fb9565b81526002919091015461010090046001600160a01b031660209182015290825260019290920191016126d5565b50505050905090565b61284e604051806101000160405280600081526020016000815260200160001515815260200160008152602001600015158152602001600081526020016000815260200160006001600160a01b031681525090565b6000828152600a60205260409020546128a95760405162461bcd60e51b815260206004820152601860248201527f446973706f73616c207761737465206e6f7420666f756e6400000000000000006044820152606401610822565b506000908152600a602090815260409182902082516101008101845281548152600182015492810192909252600281015460ff90811615159383019390935260038101546060830152600481015490921615156080820152600582015460a0820152600682015460c08201526007909101546001600160a01b031660e082015290565b604080518082018252601081526f181899199a1a9b1b9c1cb0b131b232b360811b60208201528151602a80825260608281019094526001600160a01b0385169291600091602082018180368337019050509050600360fc1b8160008151811061299757612997613773565b60200101906001600160f81b031916908160001a905350600f60fb1b816001815181106129c6576129c6613773565b60200101906001600160f81b031916908160001a90535060005b6014811015612b0e57826004856129f884600c613b41565b60208110612a0857612a08613773565b1a60f81b6001600160f81b031916901c60f81c60ff1681518110612a2e57612a2e613773565b01602001516001600160f81b03191682612a49836002613b54565b612a54906002613b41565b81518110612a6457612a64613773565b60200101906001600160f81b031916908160001a9053508284612a8883600c613b41565b60208110612a9857612a98613773565b825191901a600f16908110612aaf57612aaf613773565b01602001516001600160f81b03191682612aca836002613b54565b612ad5906003613b41565b81518110612ae557612ae5613773565b60200101906001600160f81b031916908160001a90535080612b06816137d9565b9150506129e0565b50949350505050565b60006040518060800160405280428152602001848152602001838152602001600143612b439190613b6b565b409052600085815260208181526040822080546001818101835591845292829020845160049094020192835590830151929350839290820190612b8690826138d2565b5060408201516002820190612b9b90826138d2565b506060820151816003015550507faaa6d9d5e9bc4ea75d825a9574845a28fafd39a9bf7de88eb011817e6cac36398484846040516120e293929190613b7e565b606081600003612c025750506040805180820190915260018152600360fc1b602082015290565b8160005b8115612c2c5780612c16816137d9565b9150612c259050600a83613bc9565b9150612c06565b60008167ffffffffffffffff811115612c4757612c47612d6f565b6040519080825280601f01601f191660200182016040528015612c71576020820181803683370190505b5090505b8415612cdc57612c86600183613b6b565b9150612c93600a86613bdd565b612c9e906030613b41565b60f81b818381518110612cb357612cb3613773565b60200101906001600160f81b031916908160001a905350612cd5600a86613bc9565b9450612c75565b949350505050565b80356001600160a01b0381168114612cfb57600080fd5b919050565b60008060408385031215612d1357600080fd5b612d1c83612ce4565b946020939093013593505050565b60008060408385031215612d3d57600080fd5b82359150612d4d60208401612ce4565b90509250929050565b600060208284031215612d6857600080fd5b5035919050565b634e487b7160e01b600052604160045260246000fd5b600082601f830112612d9657600080fd5b813567ffffffffffffffff80821115612db157612db1612d6f565b604051601f8301601f19908116603f01168101908282118183101715612dd957612dd9612d6f565b81604052838152866020858801011115612df257600080fd5b836020870160208301376000602085830101528094505050505092915050565b600080600080600060a08688031215612e2a57600080fd5b853567ffffffffffffffff80821115612e4257600080fd5b612e4e89838a01612d85565b96506020880135915080821115612e6457600080fd5b612e7089838a01612d85565b95506040880135915080821115612e8657600080fd5b612e9289838a01612d85565b94506060880135915080821115612ea857600080fd5b50612eb588828901612d85565b95989497509295608001359392505050565b6020808252825182820181905260009190848201906040850190845b81811015612eff57835183529284019291840191600101612ee3565b50909695505050505050565b80358015158114612cfb57600080fd5b600080600080600060a08688031215612f3357600080fd5b85359450612f4360208701612f0b565b935060408601359250612f5860608701612f0b565b949793965091946080013592915050565b60005b83811015612f84578181015183820152602001612f6c565b50506000910152565b60008151808452612fa5816020860160208601612f69565b601f01601f19169290920160200192915050565b634e487b7160e01b600052602160045260246000fd5b60058110612fed57634e487b7160e01b600052602160045260246000fd5b9052565b84815260806020820152600061300a6080830186612f8d565b90506130196040830185612fcf565b6001600160a01b0392909216606091909101529392505050565b600080600080600080600060e0888a03121561304e57600080fd5b61305788612f0b565b9650602088013595506040880135945061307360608901612f0b565b935061308160808901612f0b565b925061308f60a08901612f0b565b915060c0880135905092959891949750929550565b600080600080600080600080610100898b0312156130c157600080fd5b6130ca89612f0b565b975060208901359650604089013595506130e660608a01612f0b565b94506130f460808a01612f0b565b935061310260a08a01612f0b565b925060c0890135915060e089013590509295985092959890939650565b80518252600060208201516080602085015261313e6080850182612f8d565b905060408301516131526040860182612fcf565b506060928301516001600160a01b03169390920192909252919050565b602081526000611e30602083018461311f565b60008060008060008060c0878903121561319b57600080fd5b863595506131ab60208801612f0b565b9450604087013593506131c060608801612f0b565b92506080870135915060a087013590509295509295509295565b60006020808301818452808551808352604092508286019150828160051b87010184880160005b8381101561326857603f19898403018552815160808151855288820151818a87015261322f82870182612f8d565b91505087820151858203898701526132478282612f8d565b60609384015196909301959095525094870194925090860190600101613201565b509098975050505050505050565b60008060008060008060c0878903121561328f57600080fd5b863567ffffffffffffffff808211156132a757600080fd5b6132b38a838b01612d85565b975060208901359150808211156132c957600080fd5b6132d58a838b01612d85565b965060408901359150808211156132eb57600080fd5b6132f78a838b01612d85565b9550606089013591508082111561330d57600080fd5b5061331a89828a01612d85565b9350506080870135915060a087013590509295509295509295565b60208152815160208201526000602083015161010080604085015261335e610120850183612f8d565b91506040850151601f198086850301606087015261337c8483612f8d565b935060608701519150808685030160808701526133998483612f8d565b935060808701519150808685030160a0870152506133b78382612f8d565b92505060a085015160c085015260c085015160e085015260e08501516133e7828601826001600160a01b03169052565b5090949350505050565b6020808252825182820181905260009190848201906040850190845b81811015612eff5783516001600160a01b03168352928401929184019160010161340d565b60008060006060848603121561344757600080fd5b83359250602084013567ffffffffffffffff81111561346557600080fd5b61347186828701612d85565b92505061348060408501612f0b565b90509250925092565b815181526020808301516101408301916134a69084018215159052565b50604083015160408301526060830151606083015260808301516134ce608084018215159052565b5060a08301516134e260a084018215159052565b5060c08301516134f660c084018215159052565b5060e083810151908301526101008084015190830152610120928301516001600160a01b0316929091019190915290565b60006101008a83528060208401526135418184018b612f8d565b90508281036040840152613555818a612f8d565b905082810360608401526135698189612f8d565b9050828103608084015261357d8188612f8d565b60a0840196909652505060c08101929092526001600160a01b031660e09091015295945050505050565b600080604083850312156135ba57600080fd5b823567ffffffffffffffff8111156135d157600080fd5b6135dd85828601612d85565b9250506020830135600581106135f257600080fd5b809150509250929050565b6000602080830181845280855180835260408601915060408160051b870101925083870160005b8281101561365257603f1988860301845261364085835161311f565b94509285019290850190600101613624565b5092979650505050505050565b6020808252601b908201527f596f7520646f6e2774206f776e207468697320666163696c6974790000000000604082015260600190565b7f5573657220617574686f72697a6174696f6e207265766f6b65643a20000000008152600082516136ce81601c850160208701612f69565b91909101601c0192915050565b6020808252602f908201527f596f7520646f6e2774206f776e207468697320666163696c697479206f72206960408201526e1d08191bd95cdb89dd08195e1a5cdd608a1b606082015260800190565b60208082526029908201527f4e6f20666163696c6974696573207265676973746572656420666f722074686960408201526873206164647265737360b81b606082015260800190565b634e487b7160e01b600052603260045260246000fd5b600181811c9082168061379d57607f821691505b6020821081036137bd57634e487b7160e01b600052602260045260246000fd5b50919050565b634e487b7160e01b600052601160045260246000fd5b6000600182016137eb576137eb6137c3565b5060010190565b7f486f73706974616c2077617374652072656769737465726564207769746820498152620221d160ed1b602082015260008251613836816023850160208701612f69565b9190910160230192915050565b7f446973706f73616c2077617374652072656769737465726564207769746820498152620221d160ed1b602082015260008251613836816023850160208701612f69565b601f8211156138cd57600081815260208120601f850160051c810160208610156138ae5750805b601f850160051c820191505b81811015610aa5578281556001016138ba565b505050565b815167ffffffffffffffff8111156138ec576138ec612d6f565b613900816138fa8454613789565b84613887565b602080601f831160018114613935576000841561391d5750858301515b600019600386901b1c1916600185901b178555610aa5565b600085815260208120601f198616915b8281101561396457888601518255948401946001909101908401613945565b50858210156139825787850151600019600388901b60f8161c191681555b5050505050600190811b01905550565b7f5472616e73706f72742077617374652072656769737465726564207769746820815263024a21d160e51b6020820152600082516139d7816024850160208701612f69565b9190910160240192915050565b8481526080602082015260006139fd6080830186612f8d565b6040830194909452506060015292915050565b7002ab9b2b91030baba3437b934bd32b21d1607d1b815260008251613a3c816011850160208701612f69565b9190910160110192915050565b60008251613a5b818460208701612f69565b9190910192915050565b7f466163696c697479206361706162696c69747920757064617465643a20000000815260008351613a9d81601d850160208801612f69565b6701039b2ba103a37960c51b601d918401918201528351613ac5816025840160208801612f69565b01602501949350505050565b838152606060208201526000613aea6060830185612f8d565b90508215156040830152949350505050565b7f466163696c69747920726567697374657265642077697468206e616d653a2000815260008251613b3481601f850160208701612f69565b91909101601f0192915050565b808201808211156126a0576126a06137c3565b80820281158282048414176126a0576126a06137c3565b818103818111156126a0576126a06137c3565b838152606060208201526000613b976060830185612f8d565b8281036040840152613ba98185612f8d565b9695505050505050565b634e487b7160e01b600052601260045260246000fd5b600082613bd857613bd8613bb3565b500490565b600082613bec57613bec613bb3565b50069056fe416c6c20666163696c697479206361706162696c697469657320656e61626c6564c64df4b44f4927d858629d0899d8c04091c3c24402ce71e73f11b15bb92ac640a26469706673582212207fd3d90affb91cba5cdcb25e03fafdd48d64e6ac0a4c762e5f5b92a3edef2b7664736f6c63430008130033","opcodes":"PUSH1 0x80 PUSH1 0x40 MSTORE CALLVALUE DUP1 ISZERO PUSH2 0x10 JUMPI PUSH1 0x0 DUP1 REVERT JUMPDEST POP PUSH1 0xF DUP1 SLOAD PUSH1 0x1 PUSH1 0x1 PUSH1 0xA0 SHL SUB NOT AND CALLER OR SWAP1 SSTORE PUSH2 0x3C68 DUP1 PUSH2 0x32 PUSH1 0x0 CODECOPY PUSH1 0x0 RETURN INVALID PUSH1 0x80 PUSH1 0x40 MSTORE CALLVALUE DUP1 ISZERO PUSH2 0x10 JUMPI PUSH1 0x0 DUP1 REVERT JUMPDEST POP PUSH1 0x4 CALLDATASIZE LT PUSH2 0x227 JUMPI PUSH1 0x0 CALLDATALOAD PUSH1 0xE0 SHR DUP1 PUSH4 0x9209D4D6 GT PUSH2 0x130 JUMPI DUP1 PUSH4 0xD35E0586 GT PUSH2 0xB8 JUMPI DUP1 PUSH4 0xF6048BD0 GT PUSH2 0x7C JUMPI DUP1 PUSH4 0xF6048BD0 EQ PUSH2 0x669 JUMPI DUP1 PUSH4 0xF6E2FADA EQ PUSH2 0x67C JUMPI DUP1 PUSH4 0xFA71BBF9 EQ PUSH2 0x68F JUMPI DUP1 PUSH4 0xFAFA622A EQ PUSH2 0x6A4 JUMPI DUP1 PUSH4 0xFCBCBF42 EQ PUSH2 0x720 JUMPI PUSH1 0x0 DUP1 REVERT JUMPDEST DUP1 PUSH4 0xD35E0586 EQ PUSH2 0x5C6 JUMPI DUP1 PUSH4 0xD3AE7CFE EQ PUSH2 0x5E6 JUMPI DUP1 PUSH4 0xE4962BFF EQ PUSH2 0x5F9 JUMPI DUP1 PUSH4 0xE60FF966 EQ PUSH2 0x619 JUMPI DUP1 PUSH4 0xF0671049 EQ PUSH2 0x640 JUMPI PUSH1 0x0 DUP1 REVERT JUMPDEST DUP1 PUSH4 0xA5663A9F GT PUSH2 0xFF JUMPI DUP1 PUSH4 0xA5663A9F EQ PUSH2 0x53F JUMPI DUP1 PUSH4 0xAA3BCAF8 EQ PUSH2 0x56D JUMPI DUP1 PUSH4 0xAEB13F47 EQ PUSH2 0x580 JUMPI DUP1 PUSH4 0xCB405CAD EQ PUSH2 0x5A0 JUMPI DUP1 PUSH4 0xD2AD9A53 EQ PUSH2 0x5B3 JUMPI PUSH1 0x0 DUP1 REVERT JUMPDEST DUP1 PUSH4 0x9209D4D6 EQ PUSH2 0x4D1 JUMPI DUP1 PUSH4 0x978B33E0 EQ PUSH2 0x4F9 JUMPI DUP1 PUSH4 0xA2443E1F EQ PUSH2 0x50C JUMPI DUP1 PUSH4 0xA55677CD EQ PUSH2 0x51F JUMPI PUSH1 0x0 DUP1 REVERT JUMPDEST DUP1 PUSH4 0x3EEEF27A GT PUSH2 0x1B3 JUMPI DUP1 PUSH4 0x5D2DAF4E GT PUSH2 0x182 JUMPI DUP1 PUSH4 0x5D2DAF4E EQ PUSH2 0x458 JUMPI DUP1 PUSH4 0x68F07D97 EQ PUSH2 0x460 JUMPI DUP1 PUSH4 0x6F82277B EQ PUSH2 0x473 JUMPI DUP1 PUSH4 0x8698FB32 EQ PUSH2 0x486 JUMPI DUP1 PUSH4 0x8DA5CB5B EQ PUSH2 0x4A6 JUMPI PUSH1 0x0 DUP1 REVERT JUMPDEST DUP1 PUSH4 0x3EEEF27A EQ PUSH2 0x340 JUMPI DUP1 PUSH4 0x4669D64A EQ PUSH2 0x348 JUMPI DUP1 PUSH4 0x5653BC67 EQ PUSH2 0x412 JUMPI DUP1 PUSH4 0x5B0BD7BE EQ PUSH2 0x445 JUMPI PUSH1 0x0 DUP1 REVERT JUMPDEST DUP1 PUSH4 0x13C38BB5 GT PUSH2 0x1FA JUMPI DUP1 PUSH4 0x13C38BB5 EQ PUSH2 0x28D JUMPI DUP1 PUSH4 0x1B5BE013 EQ PUSH2 0x2E2 JUMPI DUP1 PUSH4 0x1EA84AC7 EQ PUSH2 0x2F5 JUMPI DUP1 PUSH4 0x2D448E39 EQ PUSH2 0x30A JUMPI DUP1 PUSH4 0x36498DFF EQ PUSH2 0x31D JUMPI PUSH1 0x0 DUP1 REVERT JUMPDEST DUP1 PUSH4 0x15D2990 EQ PUSH2 0x22C JUMPI DUP1 PUSH4 0x2E24186 EQ PUSH2 0x252 JUMPI DUP1 PUSH4 0x11D76F6C EQ PUSH2 0x267 JUMPI DUP1 PUSH4 0x1220B1E5 EQ PUSH2 0x27A JUMPI JUMPDEST PUSH1 0x0 DUP1 REVERT JUMPDEST PUSH2 0x23F PUSH2 0x23A CALLDATASIZE PUSH1 0x4 PUSH2 0x2D00 JUMP JUMPDEST PUSH2 0x7CC JUMP JUMPDEST PUSH1 0x40 MLOAD SWAP1 DUP2 MSTORE PUSH1 0x20 ADD JUMPDEST PUSH1 0x40 MLOAD DUP1 SWAP2 SUB SWAP1 RETURN JUMPDEST PUSH2 0x265 PUSH2 0x260 CALLDATASIZE PUSH1 0x4 PUSH2 0x2D2A JUMP JUMPDEST PUSH2 0x7FD JUMP JUMPDEST STOP JUMPDEST PUSH2 0x265 PUSH2 0x275 CALLDATASIZE PUSH1 0x4 PUSH2 0x2D56 JUMP JUMPDEST PUSH2 0x8B6 JUMP JUMPDEST PUSH2 0x23F PUSH2 0x288 CALLDATASIZE PUSH1 0x4 PUSH2 0x2D00 JUMP JUMPDEST PUSH2 0xA1C JUMP JUMPDEST PUSH2 0x2C3 PUSH2 0x29B CALLDATASIZE PUSH1 0x4 PUSH2 0x2D56 JUMP JUMPDEST PUSH1 0xE PUSH1 0x20 MSTORE PUSH1 0x0 SWAP1 DUP2 MSTORE PUSH1 0x40 SWAP1 KECCAK256 SLOAD PUSH1 0xFF DUP1 DUP3 AND SWAP2 PUSH2 0x100 DUP2 DIV DUP3 AND SWAP2 PUSH3 0x10000 SWAP1 SWAP2 DIV AND DUP4 JUMP JUMPDEST PUSH1 0x40 DUP1 MLOAD SWAP4 ISZERO ISZERO DUP5 MSTORE SWAP2 ISZERO ISZERO PUSH1 0x20 DUP5 ADD MSTORE ISZERO ISZERO SWAP1 DUP3 ADD MSTORE PUSH1 0x60 ADD PUSH2 0x249 JUMP JUMPDEST PUSH2 0x265 PUSH2 0x2F0 CALLDATASIZE PUSH1 0x4 PUSH2 0x2E12 JUMP JUMPDEST PUSH2 0xA38 JUMP JUMPDEST PUSH2 0x2FD PUSH2 0xAAD JUMP JUMPDEST PUSH1 0x40 MLOAD PUSH2 0x249 SWAP2 SWAP1 PUSH2 0x2EC7 JUMP JUMPDEST PUSH2 0x265 PUSH2 0x318 CALLDATASIZE PUSH1 0x4 PUSH2 0x2F1B JUMP JUMPDEST PUSH2 0xB0E JUMP JUMPDEST PUSH2 0x330 PUSH2 0x32B CALLDATASIZE PUSH1 0x4 PUSH2 0x2D56 JUMP JUMPDEST PUSH2 0xB7B JUMP JUMPDEST PUSH1 0x40 MLOAD PUSH2 0x249 SWAP5 SWAP4 SWAP3 SWAP2 SWAP1 PUSH2 0x2FF1 JUMP JUMPDEST PUSH2 0x2FD PUSH2 0xC3A JUMP JUMPDEST PUSH2 0x3BB PUSH2 0x356 CALLDATASIZE PUSH1 0x4 PUSH2 0x2D56 JUMP JUMPDEST PUSH1 0x4 PUSH1 0x20 DUP2 SWAP1 MSTORE PUSH1 0x0 SWAP2 DUP3 MSTORE PUSH1 0x40 SWAP1 SWAP2 KECCAK256 DUP1 SLOAD PUSH1 0x1 DUP3 ADD SLOAD PUSH1 0x2 DUP4 ADD SLOAD PUSH1 0x3 DUP5 ADD SLOAD SWAP5 DUP5 ADD SLOAD PUSH1 0x5 DUP6 ADD SLOAD PUSH1 0x6 DUP7 ADD SLOAD PUSH1 0x7 SWAP1 SWAP7 ADD SLOAD SWAP5 SWAP7 PUSH1 0xFF SWAP5 DUP6 AND SWAP7 SWAP4 SWAP6 SWAP1 SWAP5 DUP4 DUP2 AND SWAP5 PUSH2 0x100 DUP6 DIV DUP3 AND SWAP5 PUSH3 0x10000 SWAP1 DIV SWAP1 SWAP2 AND SWAP3 SWAP2 PUSH1 0x1 PUSH1 0x1 PUSH1 0xA0 SHL SUB AND DUP11 JUMP JUMPDEST PUSH1 0x40 DUP1 MLOAD SWAP11 DUP12 MSTORE SWAP9 ISZERO ISZERO PUSH1 0x20 DUP12 ADD MSTORE SWAP8 DUP10 ADD SWAP7 SWAP1 SWAP7 MSTORE PUSH1 0x60 DUP9 ADD SWAP5 SWAP1 SWAP5 MSTORE SWAP2 ISZERO ISZERO PUSH1 0x80 DUP8 ADD MSTORE ISZERO ISZERO PUSH1 0xA0 DUP7 ADD MSTORE ISZERO ISZERO PUSH1 0xC0 DUP6 ADD MSTORE PUSH1 0xE0 DUP5 ADD MSTORE PUSH2 0x100 DUP4 ADD MSTORE PUSH1 0x1 PUSH1 0x1 PUSH1 0xA0 SHL SUB AND PUSH2 0x120 DUP3 ADD MSTORE PUSH2 0x140 ADD PUSH2 0x249 JUMP JUMPDEST PUSH2 0x435 PUSH2 0x420 CALLDATASIZE PUSH1 0x4 PUSH2 0x2D56 JUMP JUMPDEST PUSH1 0x0 SWAP1 DUP2 MSTORE PUSH1 0xE PUSH1 0x20 MSTORE PUSH1 0x40 SWAP1 KECCAK256 SLOAD PUSH1 0xFF AND SWAP1 JUMP JUMPDEST PUSH1 0x40 MLOAD SWAP1 ISZERO ISZERO DUP2 MSTORE PUSH1 0x20 ADD PUSH2 0x249 JUMP JUMPDEST PUSH2 0x265 PUSH2 0x453 CALLDATASIZE PUSH1 0x4 PUSH2 0x3033 JUMP JUMPDEST PUSH2 0xC99 JUMP JUMPDEST PUSH2 0x2FD PUSH2 0xD12 JUMP JUMPDEST PUSH2 0x23F PUSH2 0x46E CALLDATASIZE PUSH1 0x4 PUSH2 0x2D00 JUMP JUMPDEST PUSH2 0xD71 JUMP JUMPDEST PUSH2 0x265 PUSH2 0x481 CALLDATASIZE PUSH1 0x4 PUSH2 0x30A4 JUMP JUMPDEST PUSH2 0xD8D JUMP JUMPDEST PUSH2 0x499 PUSH2 0x494 CALLDATASIZE PUSH1 0x4 PUSH2 0x2D56 JUMP JUMPDEST PUSH2 0x107B JUMP JUMPDEST PUSH1 0x40 MLOAD PUSH2 0x249 SWAP2 SWAP1 PUSH2 0x316F JUMP JUMPDEST PUSH1 0xF SLOAD PUSH2 0x4B9 SWAP1 PUSH1 0x1 PUSH1 0x1 PUSH1 0xA0 SHL SUB AND DUP2 JUMP JUMPDEST PUSH1 0x40 MLOAD PUSH1 0x1 PUSH1 0x1 PUSH1 0xA0 SHL SUB SWAP1 SWAP2 AND DUP2 MSTORE PUSH1 0x20 ADD PUSH2 0x249 JUMP JUMPDEST PUSH2 0x435 PUSH2 0x4DF CALLDATASIZE PUSH1 0x4 PUSH2 0x2D56 JUMP JUMPDEST PUSH1 0x0 SWAP1 DUP2 MSTORE PUSH1 0xE PUSH1 0x20 MSTORE PUSH1 0x40 SWAP1 KECCAK256 SLOAD PUSH2 0x100 SWAP1 DIV PUSH1 0xFF AND SWAP1 JUMP JUMPDEST PUSH2 0x330 PUSH2 0x507 CALLDATASIZE PUSH1 0x4 PUSH2 0x2D00 JUMP JUMPDEST PUSH2 0x1202 JUMP JUMPDEST PUSH2 0x265 PUSH2 0x51A CALLDATASIZE PUSH1 0x4 PUSH2 0x3182 JUMP JUMPDEST PUSH2 0x1248 JUMP JUMPDEST PUSH2 0x532 PUSH2 0x52D CALLDATASIZE PUSH1 0x4 PUSH2 0x2D56 JUMP JUMPDEST PUSH2 0x14CD JUMP JUMPDEST PUSH1 0x40 MLOAD PUSH2 0x249 SWAP2 SWAP1 PUSH2 0x31DA JUMP JUMPDEST PUSH2 0x435 PUSH2 0x54D CALLDATASIZE PUSH1 0x4 PUSH2 0x2D2A JUMP JUMPDEST PUSH1 0xD PUSH1 0x20 SWAP1 DUP2 MSTORE PUSH1 0x0 SWAP3 DUP4 MSTORE PUSH1 0x40 DUP1 DUP5 KECCAK256 SWAP1 SWAP2 MSTORE SWAP1 DUP3 MSTORE SWAP1 KECCAK256 SLOAD PUSH1 0xFF AND DUP2 JUMP JUMPDEST PUSH2 0x265 PUSH2 0x57B CALLDATASIZE PUSH1 0x4 PUSH2 0x3276 JUMP JUMPDEST PUSH2 0x166E JUMP JUMPDEST PUSH2 0x593 PUSH2 0x58E CALLDATASIZE PUSH1 0x4 PUSH2 0x2D56 JUMP JUMPDEST PUSH2 0x18FE JUMP JUMPDEST PUSH1 0x40 MLOAD PUSH2 0x249 SWAP2 SWAP1 PUSH2 0x3335 JUMP JUMPDEST PUSH2 0x265 PUSH2 0x5AE CALLDATASIZE PUSH1 0x4 PUSH2 0x2D2A JUMP JUMPDEST PUSH2 0x1C45 JUMP JUMPDEST PUSH2 0x435 PUSH2 0x5C1 CALLDATASIZE PUSH1 0x4 PUSH2 0x2D56 JUMP JUMPDEST PUSH2 0x1CD7 JUMP JUMPDEST PUSH2 0x5D9 PUSH2 0x5D4 CALLDATASIZE PUSH1 0x4 PUSH2 0x2D56 JUMP JUMPDEST PUSH2 0x1E37 JUMP JUMPDEST PUSH1 0x40 MLOAD PUSH2 0x249 SWAP2 SWAP1 PUSH2 0x33F1 JUMP JUMPDEST PUSH2 0x265 PUSH2 0x5F4 CALLDATASIZE PUSH1 0x4 PUSH2 0x3432 JUMP JUMPDEST PUSH2 0x1E72 JUMP JUMPDEST PUSH2 0x60C PUSH2 0x607 CALLDATASIZE PUSH1 0x4 PUSH2 0x2D56 JUMP JUMPDEST PUSH2 0x20F0 JUMP JUMPDEST PUSH1 0x40 MLOAD PUSH2 0x249 SWAP2 SWAP1 PUSH2 0x3489 JUMP JUMPDEST PUSH2 0x62C PUSH2 0x627 CALLDATASIZE PUSH1 0x4 PUSH2 0x2D56 JUMP JUMPDEST PUSH2 0x2237 JUMP JUMPDEST PUSH1 0x40 MLOAD PUSH2 0x249 SWAP9 SWAP8 SWAP7 SWAP6 SWAP5 SWAP4 SWAP3 SWAP2 SWAP1 PUSH2 0x3527 JUMP JUMPDEST PUSH2 0x435 PUSH2 0x64E CALLDATASIZE PUSH1 0x4 PUSH2 0x2D56 JUMP JUMPDEST PUSH1 0x0 SWAP1 DUP2 MSTORE PUSH1 0xE PUSH1 0x20 MSTORE PUSH1 0x40 SWAP1 KECCAK256 SLOAD PUSH3 0x10000 SWAP1 DIV PUSH1 0xFF AND SWAP1 JUMP JUMPDEST PUSH2 0x265 PUSH2 0x677 CALLDATASIZE PUSH1 0x4 PUSH2 0x35A7 JUMP JUMPDEST PUSH2 0x24A3 JUMP JUMPDEST PUSH2 0x435 PUSH2 0x68A CALLDATASIZE PUSH1 0x4 PUSH2 0x2D2A JUMP JUMPDEST PUSH2 0x2679 JUMP JUMPDEST PUSH2 0x697 PUSH2 0x26A6 JUMP JUMPDEST PUSH1 0x40 MLOAD PUSH2 0x249 SWAP2 SWAP1 PUSH2 0x35FD JUMP JUMPDEST PUSH2 0x6B7 PUSH2 0x6B2 CALLDATASIZE PUSH1 0x4 PUSH2 0x2D56 JUMP JUMPDEST PUSH2 0x27F9 JUMP JUMPDEST PUSH1 0x40 MLOAD PUSH2 0x249 SWAP2 SWAP1 DUP2 MLOAD DUP2 MSTORE PUSH1 0x20 DUP1 DUP4 ADD MLOAD SWAP1 DUP3 ADD MSTORE PUSH1 0x40 DUP1 DUP4 ADD MLOAD ISZERO ISZERO SWAP1 DUP3 ADD MSTORE PUSH1 0x60 DUP1 DUP4 ADD MLOAD SWAP1 DUP3 ADD MSTORE PUSH1 0x80 DUP1 DUP4 ADD MLOAD ISZERO ISZERO SWAP1 DUP3 ADD MSTORE PUSH1 0xA0 DUP1 DUP4 ADD MLOAD SWAP1 DUP3 ADD MSTORE PUSH1 0xC0 DUP1 DUP4 ADD MLOAD SWAP1 DUP3 ADD MSTORE PUSH1 0xE0 SWAP2 DUP3 ADD MLOAD PUSH1 0x1 PUSH1 0x1 PUSH1 0xA0 SHL SUB AND SWAP2 DUP2 ADD SWAP2 SWAP1 SWAP2 MSTORE PUSH2 0x100 ADD SWAP1 JUMP JUMPDEST PUSH2 0x780 PUSH2 0x72E CALLDATASIZE PUSH1 0x4 PUSH2 0x2D56 JUMP JUMPDEST PUSH1 0xA PUSH1 0x20 MSTORE PUSH1 0x0 SWAP1 DUP2 MSTORE PUSH1 0x40 SWAP1 KECCAK256 DUP1 SLOAD PUSH1 0x1 DUP3 ADD SLOAD PUSH1 0x2 DUP4 ADD SLOAD PUSH1 0x3 DUP5 ADD SLOAD PUSH1 0x4 DUP6 ADD SLOAD PUSH1 0x5 DUP7 ADD SLOAD PUSH1 0x6 DUP8 ADD SLOAD PUSH1 0x7 SWAP1 SWAP8 ADD SLOAD SWAP6 SWAP7 SWAP5 SWAP6 PUSH1 0xFF SWAP5 DUP6 AND SWAP6 SWAP4 SWAP5 SWAP1 SWAP3 AND SWAP3 SWAP1 SWAP2 PUSH1 0x1 PUSH1 0x1 PUSH1 0xA0 SHL SUB AND DUP9 JUMP JUMPDEST PUSH1 0x40 DUP1 MLOAD SWAP9 DUP10 MSTORE PUSH1 0x20 DUP10 ADD SWAP8 SWAP1 SWAP8 MSTORE SWAP5 ISZERO ISZERO SWAP6 DUP8 ADD SWAP6 SWAP1 SWAP6 MSTORE PUSH1 0x60 DUP7 ADD SWAP3 SWAP1 SWAP3 MSTORE ISZERO ISZERO PUSH1 0x80 DUP6 ADD MSTORE PUSH1 0xA0 DUP5 ADD MSTORE PUSH1 0xC0 DUP4 ADD SWAP2 SWAP1 SWAP2 MSTORE PUSH1 0x1 PUSH1 0x1 PUSH1 0xA0 SHL SUB AND PUSH1 0xE0 DUP3 ADD MSTORE PUSH2 0x100 ADD PUSH2 0x249 JUMP JUMPDEST PUSH1 0x8 PUSH1 0x20 MSTORE DUP2 PUSH1 0x0 MSTORE PUSH1 0x40 PUSH1 0x0 KECCAK256 DUP2 DUP2 SLOAD DUP2 LT PUSH2 0x7E8 JUMPI PUSH1 0x0 DUP1 REVERT JUMPDEST SWAP1 PUSH1 0x0 MSTORE PUSH1 0x20 PUSH1 0x0 KECCAK256 ADD PUSH1 0x0 SWAP2 POP SWAP2 POP POP SLOAD DUP2 JUMP JUMPDEST PUSH2 0x806 DUP3 PUSH2 0x1CD7 JUMP JUMPDEST PUSH2 0x82B JUMPI PUSH1 0x40 MLOAD PUSH3 0x461BCD PUSH1 0xE5 SHL DUP2 MSTORE PUSH1 0x4 ADD PUSH2 0x822 SWAP1 PUSH2 0x365F JUMP JUMPDEST PUSH1 0x40 MLOAD DUP1 SWAP2 SUB SWAP1 REVERT JUMPDEST PUSH1 0x0 DUP3 DUP2 MSTORE PUSH1 0xD PUSH1 0x20 SWAP1 DUP2 MSTORE PUSH1 0x40 DUP1 DUP4 KECCAK256 PUSH1 0x1 PUSH1 0x1 PUSH1 0xA0 SHL SUB DUP6 AND DUP5 MSTORE DUP3 MSTORE SWAP2 DUP3 SWAP1 KECCAK256 DUP1 SLOAD PUSH1 0xFF NOT AND SWAP1 SSTORE DUP2 MLOAD DUP1 DUP4 ADD SWAP1 SWAP3 MSTORE PUSH1 0x15 DUP3 MSTORE PUSH21 0x1055551213D4925690551253D397D4915593D2D151 PUSH1 0x5A SHL SWAP1 DUP3 ADD MSTORE PUSH2 0x8B2 SWAP1 DUP4 SWAP1 PUSH2 0x88E DUP5 PUSH2 0x292C JUMP JUMPDEST PUSH1 0x40 MLOAD PUSH1 0x20 ADD PUSH2 0x89E SWAP2 SWAP1 PUSH2 0x3696 JUMP JUMPDEST PUSH1 0x40 MLOAD PUSH1 0x20 DUP2 DUP4 SUB SUB DUP2 MSTORE SWAP1 PUSH1 0x40 MSTORE PUSH2 0x2B17 JUMP JUMPDEST POP POP JUMP JUMPDEST PUSH2 0x8BF DUP2 PUSH2 0x1CD7 JUMP JUMPDEST PUSH2 0x8DB JUMPI PUSH1 0x40 MLOAD PUSH3 0x461BCD PUSH1 0xE5 SHL DUP2 MSTORE PUSH1 0x4 ADD PUSH2 0x822 SWAP1 PUSH2 0x36DB JUMP JUMPDEST PUSH1 0x0 DUP2 DUP2 MSTORE PUSH1 0xE PUSH1 0x20 SWAP1 DUP2 MSTORE PUSH1 0x40 SWAP2 DUP3 SWAP1 KECCAK256 DUP1 SLOAD PUSH3 0xFFFFFF NOT AND PUSH3 0x10101 OR SWAP1 SSTORE DUP2 MLOAD DUP1 DUP4 ADD DUP4 MSTORE PUSH1 0x11 DUP2 MSTORE PUSH17 0x4341504142494C4954595F555044415445 PUSH1 0x78 SHL DUP2 DUP4 ADD MSTORE DUP3 MLOAD PUSH1 0x60 DUP2 ADD SWAP1 SWAP4 MSTORE PUSH1 0x21 DUP1 DUP5 MSTORE PUSH2 0x943 SWAP4 DUP6 SWAP4 SWAP1 SWAP2 SWAP1 PUSH2 0x3BF2 SWAP1 DUP4 ADD CODECOPY PUSH2 0x2B17 JUMP JUMPDEST PUSH1 0x40 DUP1 MLOAD DUP3 DUP2 MSTORE PUSH1 0x60 PUSH1 0x20 DUP3 ADD DUP2 SWAP1 MSTORE PUSH1 0x9 SWAP1 DUP3 ADD MSTORE PUSH9 0x736567726567617465 PUSH1 0xB8 SHL PUSH1 0x80 DUP3 ADD MSTORE PUSH1 0x1 DUP2 DUP4 ADD MSTORE SWAP1 MLOAD PUSH1 0x0 DUP1 MLOAD PUSH1 0x20 PUSH2 0x3C13 DUP4 CODECOPY DUP2 MLOAD SWAP2 MSTORE SWAP2 DUP2 SWAP1 SUB PUSH1 0xA0 ADD SWAP1 LOG1 PUSH1 0x40 DUP1 MLOAD DUP3 DUP2 MSTORE PUSH1 0x60 PUSH1 0x20 DUP3 ADD DUP2 SWAP1 MSTORE PUSH1 0x9 SWAP1 DUP3 ADD MSTORE PUSH9 0x1D1C985B9CDC1BDC9D PUSH1 0xBA SHL PUSH1 0x80 DUP3 ADD MSTORE PUSH1 0x1 DUP2 DUP4 ADD MSTORE SWAP1 MLOAD PUSH1 0x0 DUP1 MLOAD PUSH1 0x20 PUSH2 0x3C13 DUP4 CODECOPY DUP2 MLOAD SWAP2 MSTORE SWAP2 DUP2 SWAP1 SUB PUSH1 0xA0 ADD SWAP1 LOG1 PUSH1 0x40 DUP1 MLOAD DUP3 DUP2 MSTORE PUSH1 0x60 PUSH1 0x20 DUP3 ADD DUP2 SWAP1 MSTORE PUSH1 0x7 SWAP1 DUP3 ADD MSTORE PUSH7 0x646973706F7365 PUSH1 0xC8 SHL PUSH1 0x80 DUP3 ADD MSTORE PUSH1 0x1 DUP2 DUP4 ADD MSTORE SWAP1 MLOAD PUSH1 0x0 DUP1 MLOAD PUSH1 0x20 PUSH2 0x3C13 DUP4 CODECOPY DUP2 MLOAD SWAP2 MSTORE SWAP2 DUP2 SWAP1 SUB PUSH1 0xA0 ADD SWAP1 LOG1 POP JUMP JUMPDEST PUSH1 0x5 PUSH1 0x20 MSTORE DUP2 PUSH1 0x0 MSTORE PUSH1 0x40 PUSH1 0x0 KECCAK256 DUP2 DUP2 SLOAD DUP2 LT PUSH2 0x7E8 JUMPI PUSH1 0x0 DUP1 REVERT JUMPDEST CALLER PUSH1 0x0 SWAP1 DUP2 MSTORE PUSH1 0x1 PUSH1 0x20 MSTORE PUSH1 0x40 SWAP1 KECCAK256 SLOAD PUSH2 0xA64 JUMPI PUSH1 0x40 MLOAD PUSH3 0x461BCD PUSH1 0xE5 SHL DUP2 MSTORE PUSH1 0x4 ADD PUSH2 0x822 SWAP1 PUSH2 0x372A JUMP JUMPDEST CALLER PUSH1 0x0 SWAP1 DUP2 MSTORE PUSH1 0x1 PUSH1 0x20 MSTORE PUSH1 0x40 DUP2 KECCAK256 DUP1 SLOAD DUP3 SWAP1 PUSH2 0xA83 JUMPI PUSH2 0xA83 PUSH2 0x3773 JUMP JUMPDEST SWAP1 PUSH1 0x0 MSTORE PUSH1 0x20 PUSH1 0x0 KECCAK256 SWAP1 PUSH1 0x3 MUL ADD PUSH1 0x0 ADD SLOAD SWAP1 POP PUSH2 0xAA5 DUP7 DUP7 DUP7 DUP7 DUP7 DUP7 PUSH2 0x166E JUMP JUMPDEST POP POP POP POP POP POP JUMP JUMPDEST CALLER PUSH1 0x0 SWAP1 DUP2 MSTORE PUSH1 0xB PUSH1 0x20 SWAP1 DUP2 MSTORE PUSH1 0x40 SWAP2 DUP3 SWAP1 KECCAK256 DUP1 SLOAD DUP4 MLOAD DUP2 DUP5 MUL DUP2 ADD DUP5 ADD SWAP1 SWAP5 MSTORE DUP1 DUP5 MSTORE PUSH1 0x60 SWAP4 SWAP3 DUP4 ADD DUP3 DUP3 DUP1 ISZERO PUSH2 0xB04 JUMPI PUSH1 0x20 MUL DUP3 ADD SWAP2 SWAP1 PUSH1 0x0 MSTORE PUSH1 0x20 PUSH1 0x0 KECCAK256 SWAP1 JUMPDEST DUP2 SLOAD DUP2 MSTORE PUSH1 0x20 ADD SWAP1 PUSH1 0x1 ADD SWAP1 DUP1 DUP4 GT PUSH2 0xAF0 JUMPI JUMPDEST POP POP POP POP POP SWAP1 POP SWAP1 JUMP JUMPDEST CALLER PUSH1 0x0 SWAP1 DUP2 MSTORE PUSH1 0x1 PUSH1 0x20 MSTORE PUSH1 0x40 SWAP1 KECCAK256 SLOAD PUSH2 0xB3A JUMPI PUSH1 0x40 MLOAD PUSH3 0x461BCD PUSH1 0xE5 SHL DUP2 MSTORE PUSH1 0x4 ADD PUSH2 0x822 SWAP1 PUSH2 0x372A JUMP JUMPDEST CALLER PUSH1 0x0 SWAP1 DUP2 MSTORE PUSH1 0x1 PUSH1 0x20 MSTORE PUSH1 0x40 DUP2 KECCAK256 DUP1 SLOAD DUP3 SWAP1 PUSH2 0xB59 JUMPI PUSH2 0xB59 PUSH2 0x3773 JUMP JUMPDEST SWAP1 PUSH1 0x0 MSTORE PUSH1 0x20 PUSH1 0x0 KECCAK256 SWAP1 PUSH1 0x3 MUL ADD PUSH1 0x0 ADD SLOAD SWAP1 POP PUSH2 0xAA5 DUP7 DUP7 DUP7 DUP7 DUP7 DUP7 PUSH2 0x1248 JUMP JUMPDEST PUSH1 0x2 PUSH1 0x20 MSTORE PUSH1 0x0 SWAP1 DUP2 MSTORE PUSH1 0x40 SWAP1 KECCAK256 DUP1 SLOAD PUSH1 0x1 DUP3 ADD DUP1 SLOAD SWAP2 SWAP3 SWAP2 PUSH2 0xB9D SWAP1 PUSH2 0x3789 JUMP JUMPDEST DUP1 PUSH1 0x1F ADD PUSH1 0x20 DUP1 SWAP2 DIV MUL PUSH1 0x20 ADD PUSH1 0x40 MLOAD SWAP1 DUP2 ADD PUSH1 0x40 MSTORE DUP1 SWAP3 SWAP2 SWAP1 DUP2 DUP2 MSTORE PUSH1 0x20 ADD DUP3 DUP1 SLOAD PUSH2 0xBC9 SWAP1 PUSH2 0x3789 JUMP JUMPDEST DUP1 ISZERO PUSH2 0xC16 JUMPI DUP1 PUSH1 0x1F LT PUSH2 0xBEB JUMPI PUSH2 0x100 DUP1 DUP4 SLOAD DIV MUL DUP4 MSTORE SWAP2 PUSH1 0x20 ADD SWAP2 PUSH2 0xC16 JUMP JUMPDEST DUP3 ADD SWAP2 SWAP1 PUSH1 0x0 MSTORE PUSH1 0x20 PUSH1 0x0 KECCAK256 SWAP1 JUMPDEST DUP2 SLOAD DUP2 MSTORE SWAP1 PUSH1 0x1 ADD SWAP1 PUSH1 0x20 ADD DUP1 DUP4 GT PUSH2 0xBF9 JUMPI DUP3 SWAP1 SUB PUSH1 0x1F AND DUP3 ADD SWAP2 JUMPDEST POP POP POP PUSH1 0x2 SWAP1 SWAP4 ADD SLOAD SWAP2 SWAP3 POP POP PUSH1 0xFF DUP2 AND SWAP1 PUSH1 0x1 PUSH1 0x1 PUSH1 0xA0 SHL SUB PUSH2 0x100 SWAP1 SWAP2 DIV AND DUP5 JUMP JUMPDEST CALLER PUSH1 0x0 SWAP1 DUP2 MSTORE PUSH1 0x5 PUSH1 0x20 SWAP1 DUP2 MSTORE PUSH1 0x40 SWAP2 DUP3 SWAP1 KECCAK256 DUP1 SLOAD DUP4 MLOAD DUP2 DUP5 MUL DUP2 ADD DUP5 ADD SWAP1 SWAP5 MSTORE DUP1 DUP5 MSTORE PUSH1 0x60 SWAP4 SWAP3 DUP4 ADD DUP3 DUP3 DUP1 ISZERO PUSH2 0xB04 JUMPI PUSH1 0x20 MUL DUP3 ADD SWAP2 SWAP1 PUSH1 0x0 MSTORE PUSH1 0x20 PUSH1 0x0 KECCAK256 SWAP1 DUP2 SLOAD DUP2 MSTORE PUSH1 0x20 ADD SWAP1 PUSH1 0x1 ADD SWAP1 DUP1 DUP4 GT PUSH2 0xAF0 JUMPI POP POP POP POP POP SWAP1 POP SWAP1 JUMP JUMPDEST CALLER PUSH1 0x0 SWAP1 DUP2 MSTORE PUSH1 0x1 PUSH1 0x20 MSTORE PUSH1 0x40 SWAP1 KECCAK256 SLOAD PUSH2 0xCC5 JUMPI PUSH1 0x40 MLOAD PUSH3 0x461BCD PUSH1 0xE5 SHL DUP2 MSTORE PUSH1 0x4 ADD PUSH2 0x822 SWAP1 PUSH2 0x372A JUMP JUMPDEST CALLER PUSH1 0x0 SWAP1 DUP2 MSTORE PUSH1 0x1 PUSH1 0x20 MSTORE PUSH1 0x40 DUP2 KECCAK256 DUP1 SLOAD DUP3 SWAP1 PUSH2 0xCE4 JUMPI PUSH2 0xCE4 PUSH2 0x3773 JUMP JUMPDEST SWAP1 PUSH1 0x0 MSTORE PUSH1 0x20 PUSH1 0x0 KECCAK256 SWAP1 PUSH1 0x3 MUL ADD PUSH1 0x0 ADD SLOAD SWAP1 POP PUSH2 0xD08 DUP9 DUP9 DUP9 DUP9 DUP9 DUP9 DUP9 DUP9 PUSH2 0xD8D JUMP JUMPDEST POP POP POP POP POP POP POP POP JUMP JUMPDEST CALLER PUSH1 0x0 SWAP1 DUP2 MSTORE PUSH1 0x8 PUSH1 0x20 SWAP1 DUP2 MSTORE PUSH1 0x40 SWAP2 DUP3 SWAP1 KECCAK256 DUP1 SLOAD DUP4 MLOAD DUP2 DUP5 MUL DUP2 ADD DUP5 ADD SWAP1 SWAP5 MSTORE DUP1 DUP5 MSTORE PUSH1 0x60 SWAP4 SWAP3 DUP4 ADD DUP3 DUP3 DUP1 ISZERO PUSH2 0xB04 JUMPI PUSH1 0x20 MUL DUP3 ADD SWAP2 SWAP1 PUSH1 0x0 MSTORE PUSH1 0x20 PUSH1 0x0 KECCAK256 SWAP1 DUP2 SLOAD DUP2 MSTORE PUSH1 0x20 ADD SWAP1 PUSH1 0x1 ADD SWAP1 DUP1 DUP4 GT PUSH2 0xAF0 JUMPI POP POP POP POP POP SWAP1 POP SWAP1 JUMP JUMPDEST PUSH1 0xB PUSH1 0x20 MSTORE DUP2 PUSH1 0x0 MSTORE PUSH1 0x40 PUSH1 0x0 KECCAK256 DUP2 DUP2 SLOAD DUP2 LT PUSH2 0x7E8 JUMPI PUSH1 0x0 DUP1 REVERT JUMPDEST PUSH2 0xD96 DUP2 PUSH2 0x1CD7 JUMP JUMPDEST PUSH2 0xDB2 JUMPI PUSH1 0x40 MLOAD PUSH3 0x461BCD PUSH1 0xE5 SHL DUP2 MSTORE PUSH1 0x4 ADD PUSH2 0x822 SWAP1 PUSH2 0x36DB JUMP JUMPDEST PUSH1 0x0 DUP2 DUP2 MSTORE PUSH1 0xE PUSH1 0x20 MSTORE PUSH1 0x40 SWAP1 KECCAK256 SLOAD PUSH1 0xFF AND PUSH2 0xE2E JUMPI PUSH1 0x40 MLOAD PUSH3 0x461BCD PUSH1 0xE5 SHL DUP2 MSTORE PUSH1 0x20 PUSH1 0x4 DUP3 ADD MSTORE PUSH1 0x35 PUSH1 0x24 DUP3 ADD MSTORE PUSH32 0x5468697320666163696C697479206973206E6F74207265676973746572656420 PUSH1 0x44 DUP3 ADD MSTORE PUSH21 0x3337B9103BB0B9BA329039B2B3B932B3B0BA34B7B7 PUSH1 0x59 SHL PUSH1 0x64 DUP3 ADD MSTORE PUSH1 0x84 ADD PUSH2 0x822 JUMP JUMPDEST PUSH1 0x6 DUP1 SLOAD SWAP1 PUSH1 0x0 PUSH2 0xE3E DUP4 PUSH2 0x37D9 JUMP JUMPDEST SWAP2 SWAP1 POP SSTORE POP PUSH1 0x0 PUSH1 0x6 SLOAD SWAP1 POP PUSH1 0x0 PUSH1 0x40 MLOAD DUP1 PUSH2 0x140 ADD PUSH1 0x40 MSTORE DUP1 DUP4 DUP2 MSTORE PUSH1 0x20 ADD DUP12 ISZERO ISZERO DUP2 MSTORE PUSH1 0x20 ADD DUP11 DUP2 MSTORE PUSH1 0x20 ADD DUP10 DUP2 MSTORE PUSH1 0x20 ADD DUP9 ISZERO ISZERO DUP2 MSTORE PUSH1 0x20 ADD DUP8 ISZERO ISZERO DUP2 MSTORE PUSH1 0x20 ADD DUP7 ISZERO ISZERO DUP2 MSTORE PUSH1 0x20 ADD DUP6 DUP2 MSTORE PUSH1 0x20 ADD DUP5 DUP2 MSTORE PUSH1 0x20 ADD CALLER PUSH1 0x1 PUSH1 0x1 PUSH1 0xA0 SHL SUB AND DUP2 MSTORE POP SWAP1 POP DUP1 PUSH1 0x4 PUSH1 0x0 DUP5 DUP2 MSTORE PUSH1 0x20 ADD SWAP1 DUP2 MSTORE PUSH1 0x20 ADD PUSH1 0x0 KECCAK256 PUSH1 0x0 DUP3 ADD MLOAD DUP2 PUSH1 0x0 ADD SSTORE PUSH1 0x20 DUP3 ADD MLOAD DUP2 PUSH1 0x1 ADD PUSH1 0x0 PUSH2 0x100 EXP DUP2 SLOAD DUP2 PUSH1 0xFF MUL NOT AND SWAP1 DUP4 ISZERO ISZERO MUL OR SWAP1 SSTORE POP PUSH1 0x40 DUP3 ADD MLOAD DUP2 PUSH1 0x2 ADD SSTORE PUSH1 0x60 DUP3 ADD MLOAD DUP2 PUSH1 0x3 ADD SSTORE PUSH1 0x80 DUP3 ADD MLOAD DUP2 PUSH1 0x4 ADD PUSH1 0x0 PUSH2 0x100 EXP DUP2 SLOAD DUP2 PUSH1 0xFF MUL NOT AND SWAP1 DUP4 ISZERO ISZERO MUL OR SWAP1 SSTORE POP PUSH1 0xA0 DUP3 ADD MLOAD DUP2 PUSH1 0x4 ADD PUSH1 0x1 PUSH2 0x100 EXP DUP2 SLOAD DUP2 PUSH1 0xFF MUL NOT AND SWAP1 DUP4 ISZERO ISZERO MUL OR SWAP1 SSTORE POP PUSH1 0xC0 DUP3 ADD MLOAD DUP2 PUSH1 0x4 ADD PUSH1 0x2 PUSH2 0x100 EXP DUP2 SLOAD DUP2 PUSH1 0xFF MUL NOT AND SWAP1 DUP4 ISZERO ISZERO MUL OR SWAP1 SSTORE POP PUSH1 0xE0 DUP3 ADD MLOAD DUP2 PUSH1 0x5 ADD SSTORE PUSH2 0x100 DUP3 ADD MLOAD DUP2 PUSH1 0x6 ADD SSTORE PUSH2 0x120 DUP3 ADD MLOAD DUP2 PUSH1 0x7 ADD PUSH1 0x0 PUSH2 0x100 EXP DUP2 SLOAD DUP2 PUSH1 0x1 PUSH1 0x1 PUSH1 0xA0 SHL SUB MUL NOT AND SWAP1 DUP4 PUSH1 0x1 PUSH1 0x1 PUSH1 0xA0 SHL SUB AND MUL OR SWAP1 SSTORE POP SWAP1 POP POP PUSH1 0x5 PUSH1 0x0 CALLER PUSH1 0x1 PUSH1 0x1 PUSH1 0xA0 SHL SUB AND PUSH1 0x1 PUSH1 0x1 PUSH1 0xA0 SHL SUB AND DUP2 MSTORE PUSH1 0x20 ADD SWAP1 DUP2 MSTORE PUSH1 0x20 ADD PUSH1 0x0 KECCAK256 DUP3 SWAP1 DUP1 PUSH1 0x1 DUP2 SLOAD ADD DUP1 DUP3 SSTORE DUP1 SWAP2 POP POP PUSH1 0x1 SWAP1 SUB SWAP1 PUSH1 0x0 MSTORE PUSH1 0x20 PUSH1 0x0 KECCAK256 ADD PUSH1 0x0 SWAP1 SWAP2 SWAP1 SWAP2 SWAP1 SWAP2 POP SSTORE PUSH2 0x102D DUP4 PUSH1 0x40 MLOAD DUP1 PUSH1 0x40 ADD PUSH1 0x40 MSTORE DUP1 PUSH1 0xE DUP2 MSTORE PUSH1 0x20 ADD PUSH14 0x484F53504954414C5F5741535445 PUSH1 0x90 SHL DUP2 MSTORE POP PUSH2 0x101D DUP6 PUSH2 0x2BDB JUMP JUMPDEST PUSH1 0x40 MLOAD PUSH1 0x20 ADD PUSH2 0x89E SWAP2 SWAP1 PUSH2 0x37F2 JUMP JUMPDEST PUSH1 0x40 DUP1 MLOAD DUP4 DUP2 MSTORE DUP12 ISZERO ISZERO PUSH1 0x20 DUP3 ADD MSTORE SWAP1 DUP2 ADD DUP5 SWAP1 MSTORE PUSH32 0x82560527E033C54838D3005C1BC85FCDC3764CD9F2FCC93D0DA0474CF1940FF2 SWAP1 PUSH1 0x60 ADD PUSH1 0x40 MLOAD DUP1 SWAP2 SUB SWAP1 LOG1 POP POP POP POP POP POP POP POP POP POP JUMP JUMPDEST PUSH2 0x10A6 PUSH1 0x40 DUP1 MLOAD PUSH1 0x80 DUP2 ADD DUP3 MSTORE PUSH1 0x0 DUP1 DUP3 MSTORE PUSH1 0x60 PUSH1 0x20 DUP4 ADD MSTORE SWAP1 SWAP2 DUP3 ADD SWAP1 DUP2 MSTORE PUSH1 0x0 PUSH1 0x20 SWAP1 SWAP2 ADD MSTORE SWAP1 JUMP JUMPDEST PUSH1 0x0 DUP3 DUP2 MSTORE PUSH1 0x2 PUSH1 0x20 MSTORE PUSH1 0x40 SWAP1 KECCAK256 SLOAD PUSH2 0x10F6 JUMPI PUSH1 0x40 MLOAD PUSH3 0x461BCD PUSH1 0xE5 SHL DUP2 MSTORE PUSH1 0x20 PUSH1 0x4 DUP3 ADD MSTORE PUSH1 0x12 PUSH1 0x24 DUP3 ADD MSTORE PUSH18 0x119858DA5B1A5D1E481B9BDD08199BDD5B99 PUSH1 0x72 SHL PUSH1 0x44 DUP3 ADD MSTORE PUSH1 0x64 ADD PUSH2 0x822 JUMP JUMPDEST PUSH1 0x2 PUSH1 0x0 DUP4 DUP2 MSTORE PUSH1 0x20 ADD SWAP1 DUP2 MSTORE PUSH1 0x20 ADD PUSH1 0x0 KECCAK256 PUSH1 0x40 MLOAD DUP1 PUSH1 0x80 ADD PUSH1 0x40 MSTORE SWAP1 DUP2 PUSH1 0x0 DUP3 ADD SLOAD DUP2 MSTORE PUSH1 0x20 ADD PUSH1 0x1 DUP3 ADD DUP1 SLOAD PUSH2 0x112E SWAP1 PUSH2 0x3789 JUMP JUMPDEST DUP1 PUSH1 0x1F ADD PUSH1 0x20 DUP1 SWAP2 DIV MUL PUSH1 0x20 ADD PUSH1 0x40 MLOAD SWAP1 DUP2 ADD PUSH1 0x40 MSTORE DUP1 SWAP3 SWAP2 SWAP1 DUP2 DUP2 MSTORE PUSH1 0x20 ADD DUP3 DUP1 SLOAD PUSH2 0x115A SWAP1 PUSH2 0x3789 JUMP JUMPDEST DUP1 ISZERO PUSH2 0x11A7 JUMPI DUP1 PUSH1 0x1F LT PUSH2 0x117C JUMPI PUSH2 0x100 DUP1 DUP4 SLOAD DIV MUL DUP4 MSTORE SWAP2 PUSH1 0x20 ADD SWAP2 PUSH2 0x11A7 JUMP JUMPDEST DUP3 ADD SWAP2 SWAP1 PUSH1 0x0 MSTORE PUSH1 0x20 PUSH1 0x0 KECCAK256 SWAP1 JUMPDEST DUP2 SLOAD DUP2 MSTORE SWAP1 PUSH1 0x1 ADD SWAP1 PUSH1 0x20 ADD DUP1 DUP4 GT PUSH2 0x118A JUMPI DUP3 SWAP1 SUB PUSH1 0x1F AND DUP3 ADD SWAP2 JUMPDEST POP POP POP SWAP2 DUP4 MSTORE POP POP PUSH1 0x2 DUP3 ADD SLOAD PUSH1 0x20 SWAP1 SWAP2 ADD SWAP1 PUSH1 0xFF AND PUSH1 0x4 DUP2 GT ISZERO PUSH2 0x11CE JUMPI PUSH2 0x11CE PUSH2 0x2FB9 JUMP JUMPDEST PUSH1 0x4 DUP2 GT ISZERO PUSH2 0x11DF JUMPI PUSH2 0x11DF PUSH2 0x2FB9 JUMP JUMPDEST DUP2 MSTORE PUSH1 0x2 SWAP2 SWAP1 SWAP2 ADD SLOAD PUSH2 0x100 SWAP1 DIV PUSH1 0x1 PUSH1 0x1 PUSH1 0xA0 SHL SUB AND PUSH1 0x20 SWAP1 SWAP2 ADD MSTORE SWAP3 SWAP2 POP POP JUMP JUMPDEST PUSH1 0x1 PUSH1 0x20 MSTORE DUP2 PUSH1 0x0 MSTORE PUSH1 0x40 PUSH1 0x0 KECCAK256 DUP2 DUP2 SLOAD DUP2 LT PUSH2 0x121E JUMPI PUSH1 0x0 DUP1 REVERT JUMPDEST SWAP1 PUSH1 0x0 MSTORE PUSH1 0x20 PUSH1 0x0 KECCAK256 SWAP1 PUSH1 0x3 MUL ADD PUSH1 0x0 SWAP2 POP SWAP2 POP POP DUP1 PUSH1 0x0 ADD SLOAD SWAP1 DUP1 PUSH1 0x1 ADD DUP1 SLOAD PUSH2 0xB9D SWAP1 PUSH2 0x3789 JUMP JUMPDEST PUSH2 0x1251 DUP2 PUSH2 0x1CD7 JUMP JUMPDEST PUSH2 0x126D JUMPI PUSH1 0x40 MLOAD PUSH3 0x461BCD PUSH1 0xE5 SHL DUP2 MSTORE PUSH1 0x4 ADD PUSH2 0x822 SWAP1 PUSH2 0x36DB JUMP JUMPDEST PUSH1 0x0 DUP3 DUP2 MSTORE PUSH1 0x7 PUSH1 0x20 MSTORE PUSH1 0x40 SWAP1 KECCAK256 SLOAD PUSH2 0x12C4 JUMPI PUSH1 0x40 MLOAD PUSH3 0x461BCD PUSH1 0xE5 SHL DUP2 MSTORE PUSH1 0x20 PUSH1 0x4 DUP3 ADD MSTORE PUSH1 0x19 PUSH1 0x24 DUP3 ADD MSTORE PUSH25 0x151C985B9CDC1BDC9D081DD85CDD19481B9BDD08199BDD5B99 PUSH1 0x3A SHL PUSH1 0x44 DUP3 ADD MSTORE PUSH1 0x64 ADD PUSH2 0x822 JUMP JUMPDEST PUSH1 0x0 DUP2 DUP2 MSTORE PUSH1 0xE PUSH1 0x20 MSTORE PUSH1 0x40 SWAP1 KECCAK256 SLOAD PUSH3 0x10000 SWAP1 DIV PUSH1 0xFF AND PUSH2 0x1343 JUMPI PUSH1 0x40 MLOAD PUSH3 0x461BCD PUSH1 0xE5 SHL DUP2 MSTORE PUSH1 0x20 PUSH1 0x4 DUP3 ADD MSTORE PUSH1 0x32 PUSH1 0x24 DUP3 ADD MSTORE PUSH32 0x5468697320666163696C697479206973206E6F74207265676973746572656420 PUSH1 0x44 DUP3 ADD MSTORE PUSH18 0x199BDC881DD85CDD1948191A5CDC1BDCD85B PUSH1 0x72 SHL PUSH1 0x64 DUP3 ADD MSTORE PUSH1 0x84 ADD PUSH2 0x822 JUMP JUMPDEST PUSH1 0xC DUP1 SLOAD SWAP1 PUSH1 0x0 PUSH2 0x1353 DUP4 PUSH2 0x37D9 JUMP JUMPDEST SWAP1 SWAP2 SSTORE POP POP PUSH1 0xC SLOAD PUSH1 0x40 DUP1 MLOAD PUSH2 0x100 DUP2 ADD DUP3 MSTORE DUP3 DUP2 MSTORE PUSH1 0x20 DUP1 DUP3 ADD DUP11 DUP2 MSTORE DUP10 ISZERO ISZERO DUP4 DUP6 ADD SWAP1 DUP2 MSTORE PUSH1 0x60 DUP5 ADD DUP11 DUP2 MSTORE DUP10 ISZERO ISZERO PUSH1 0x80 DUP7 ADD SWAP1 DUP2 MSTORE PUSH1 0xA0 DUP7 ADD DUP11 DUP2 MSTORE PUSH1 0xC0 DUP8 ADD DUP11 DUP2 MSTORE CALLER PUSH1 0xE0 DUP10 ADD DUP2 DUP2 MSTORE PUSH1 0x0 DUP13 DUP2 MSTORE PUSH1 0xA DUP11 MSTORE DUP12 DUP2 KECCAK256 DUP12 MLOAD DUP2 SSTORE SWAP9 MLOAD PUSH1 0x1 DUP1 DUP12 ADD SWAP2 SWAP1 SWAP2 SSTORE SWAP8 MLOAD PUSH1 0x2 DUP11 ADD DUP1 SLOAD PUSH1 0xFF NOT SWAP1 DUP2 AND SWAP3 ISZERO ISZERO SWAP3 SWAP1 SWAP3 OR SWAP1 SSTORE SWAP7 MLOAD PUSH1 0x3 DUP11 ADD SSTORE SWAP5 MLOAD PUSH1 0x4 DUP10 ADD DUP1 SLOAD SWAP1 SWAP8 AND SWAP1 ISZERO ISZERO OR SWAP1 SWAP6 SSTORE SWAP2 MLOAD PUSH1 0x5 DUP8 ADD SSTORE MLOAD PUSH1 0x6 DUP7 ADD SSTORE SWAP2 MLOAD PUSH1 0x7 SWAP1 SWAP5 ADD DUP1 SLOAD PUSH1 0x1 PUSH1 0x1 PUSH1 0xA0 SHL SUB NOT AND PUSH1 0x1 PUSH1 0x1 PUSH1 0xA0 SHL SUB SWAP1 SWAP6 AND SWAP5 SWAP1 SWAP5 OR SWAP1 SWAP4 SSTORE DUP3 MSTORE PUSH1 0xB DUP4 MSTORE DUP5 DUP3 KECCAK256 DUP1 SLOAD SWAP2 DUP3 ADD DUP2 SSTORE DUP3 MSTORE SWAP1 DUP3 SWAP1 KECCAK256 ADD DUP5 SWAP1 SSTORE DUP3 MLOAD DUP1 DUP5 ADD SWAP1 SWAP4 MSTORE PUSH1 0xE DUP4 MSTORE PUSH14 0x444953504F53414C5F5741535445 PUSH1 0x90 SHL SWAP1 DUP4 ADD MSTORE SWAP1 PUSH2 0x147A SWAP1 DUP5 SWAP1 PUSH2 0x146A DUP6 PUSH2 0x2BDB JUMP JUMPDEST PUSH1 0x40 MLOAD PUSH1 0x20 ADD PUSH2 0x89E SWAP2 SWAP1 PUSH2 0x3843 JUMP JUMPDEST PUSH1 0x40 DUP1 MLOAD DUP4 DUP2 MSTORE PUSH1 0x20 DUP2 ADD DUP11 SWAP1 MSTORE SWAP1 DUP2 ADD DUP6 SWAP1 MSTORE PUSH1 0x60 DUP2 ADD DUP5 SWAP1 MSTORE PUSH32 0x81060CDB462A17818C25AC4AEF15A0D1FAD18517CFBC8E8350B3BB770C43BFF1 SWAP1 PUSH1 0x80 ADD JUMPDEST PUSH1 0x40 MLOAD DUP1 SWAP2 SUB SWAP1 LOG1 POP POP POP POP POP POP POP POP JUMP JUMPDEST PUSH1 0x0 DUP2 DUP2 MSTORE PUSH1 0x20 DUP2 DUP2 MSTORE PUSH1 0x40 DUP1 DUP4 KECCAK256 DUP1 SLOAD DUP3 MLOAD DUP2 DUP6 MUL DUP2 ADD DUP6 ADD SWAP1 SWAP4 MSTORE DUP1 DUP4 MSTORE PUSH1 0x60 SWAP5 SWAP3 SWAP4 SWAP2 SWAP3 SWAP1 SWAP2 DUP5 ADD JUMPDEST DUP3 DUP3 LT ISZERO PUSH2 0x1663 JUMPI DUP4 DUP3 SWAP1 PUSH1 0x0 MSTORE PUSH1 0x20 PUSH1 0x0 KECCAK256 SWAP1 PUSH1 0x4 MUL ADD PUSH1 0x40 MLOAD DUP1 PUSH1 0x80 ADD PUSH1 0x40 MSTORE SWAP1 DUP2 PUSH1 0x0 DUP3 ADD SLOAD DUP2 MSTORE PUSH1 0x20 ADD PUSH1 0x1 DUP3 ADD DUP1 SLOAD PUSH2 0x1536 SWAP1 PUSH2 0x3789 JUMP JUMPDEST DUP1 PUSH1 0x1F ADD PUSH1 0x20 DUP1 SWAP2 DIV MUL PUSH1 0x20 ADD PUSH1 0x40 MLOAD SWAP1 DUP2 ADD PUSH1 0x40 MSTORE DUP1 SWAP3 SWAP2 SWAP1 DUP2 DUP2 MSTORE PUSH1 0x20 ADD DUP3 DUP1 SLOAD PUSH2 0x1562 SWAP1 PUSH2 0x3789 JUMP JUMPDEST DUP1 ISZERO PUSH2 0x15AF JUMPI DUP1 PUSH1 0x1F LT PUSH2 0x1584 JUMPI PUSH2 0x100 DUP1 DUP4 SLOAD DIV MUL DUP4 MSTORE SWAP2 PUSH1 0x20 ADD SWAP2 PUSH2 0x15AF JUMP JUMPDEST DUP3 ADD SWAP2 SWAP1 PUSH1 0x0 MSTORE PUSH1 0x20 PUSH1 0x0 KECCAK256 SWAP1 JUMPDEST DUP2 SLOAD DUP2 MSTORE SWAP1 PUSH1 0x1 ADD SWAP1 PUSH1 0x20 ADD DUP1 DUP4 GT PUSH2 0x1592 JUMPI DUP3 SWAP1 SUB PUSH1 0x1F AND DUP3 ADD SWAP2 JUMPDEST POP POP POP POP POP DUP2 MSTORE PUSH1 0x20 ADD PUSH1 0x2 DUP3 ADD DUP1 SLOAD PUSH2 0x15C8 SWAP1 PUSH2 0x3789 JUMP JUMPDEST DUP1 PUSH1 0x1F ADD PUSH1 0x20 DUP1 SWAP2 DIV MUL PUSH1 0x20 ADD PUSH1 0x40 MLOAD SWAP1 DUP2 ADD PUSH1 0x40 MSTORE DUP1 SWAP3 SWAP2 SWAP1 DUP2 DUP2 MSTORE PUSH1 0x20 ADD DUP3 DUP1 SLOAD PUSH2 0x15F4 SWAP1 PUSH2 0x3789 JUMP JUMPDEST DUP1 ISZERO PUSH2 0x1641 JUMPI DUP1 PUSH1 0x1F LT PUSH2 0x1616 JUMPI PUSH2 0x100 DUP1 DUP4 SLOAD DIV MUL DUP4 MSTORE SWAP2 PUSH1 0x20 ADD SWAP2 PUSH2 0x1641 JUMP JUMPDEST DUP3 ADD SWAP2 SWAP1 PUSH1 0x0 MSTORE PUSH1 0x20 PUSH1 0x0 KECCAK256 SWAP1 JUMPDEST DUP2 SLOAD DUP2 MSTORE SWAP1 PUSH1 0x1 ADD SWAP1 PUSH1 0x20 ADD DUP1 DUP4 GT PUSH2 0x1624 JUMPI DUP3 SWAP1 SUB PUSH1 0x1F AND DUP3 ADD SWAP2 JUMPDEST POP POP POP POP POP DUP2 MSTORE PUSH1 0x20 ADD PUSH1 0x3 DUP3 ADD SLOAD DUP2 MSTORE POP POP DUP2 MSTORE PUSH1 0x20 ADD SWAP1 PUSH1 0x1 ADD SWAP1 PUSH2 0x14F9 JUMP JUMPDEST POP POP POP POP SWAP1 POP SWAP2 SWAP1 POP JUMP JUMPDEST PUSH2 0x1677 DUP2 PUSH2 0x1CD7 JUMP JUMPDEST PUSH2 0x1693 JUMPI PUSH1 0x40 MLOAD PUSH3 0x461BCD PUSH1 0xE5 SHL DUP2 MSTORE PUSH1 0x4 ADD PUSH2 0x822 SWAP1 PUSH2 0x36DB JUMP JUMPDEST PUSH1 0x0 DUP3 DUP2 MSTORE PUSH1 0x4 PUSH1 0x20 MSTORE PUSH1 0x40 SWAP1 KECCAK256 SLOAD PUSH2 0x16E9 JUMPI PUSH1 0x40 MLOAD PUSH3 0x461BCD PUSH1 0xE5 SHL DUP2 MSTORE PUSH1 0x20 PUSH1 0x4 DUP3 ADD MSTORE PUSH1 0x18 PUSH1 0x24 DUP3 ADD MSTORE PUSH24 0x121BDCDC1A5D185B081DD85CDD19481B9BDD08199BDD5B99 PUSH1 0x42 SHL PUSH1 0x44 DUP3 ADD MSTORE PUSH1 0x64 ADD PUSH2 0x822 JUMP JUMPDEST PUSH1 0x0 DUP2 DUP2 MSTORE PUSH1 0xE PUSH1 0x20 MSTORE PUSH1 0x40 SWAP1 KECCAK256 SLOAD PUSH2 0x100 SWAP1 DIV PUSH1 0xFF AND PUSH2 0x1768 JUMPI PUSH1 0x40 MLOAD PUSH3 0x461BCD PUSH1 0xE5 SHL DUP2 MSTORE PUSH1 0x20 PUSH1 0x4 DUP3 ADD MSTORE PUSH1 0x33 PUSH1 0x24 DUP3 ADD MSTORE PUSH32 0x5468697320666163696C697479206973206E6F74207265676973746572656420 PUSH1 0x44 DUP3 ADD MSTORE PUSH19 0x199BDC881DD85CDD19481D1C985B9CDC1BDC9D PUSH1 0x6A SHL PUSH1 0x64 DUP3 ADD MSTORE PUSH1 0x84 ADD PUSH2 0x822 JUMP JUMPDEST PUSH1 0x9 DUP1 SLOAD SWAP1 PUSH1 0x0 PUSH2 0x1778 DUP4 PUSH2 0x37D9 JUMP JUMPDEST SWAP1 SWAP2 SSTORE POP POP PUSH1 0x9 SLOAD PUSH1 0x40 DUP1 MLOAD PUSH2 0x100 DUP2 ADD DUP3 MSTORE DUP3 DUP2 MSTORE PUSH1 0x20 DUP1 DUP3 ADD DUP11 DUP2 MSTORE DUP3 DUP5 ADD DUP11 SWAP1 MSTORE PUSH1 0x60 DUP4 ADD DUP10 SWAP1 MSTORE PUSH1 0x80 DUP4 ADD DUP9 SWAP1 MSTORE PUSH1 0xA0 DUP4 ADD DUP8 SWAP1 MSTORE PUSH1 0xC0 DUP4 ADD DUP7 SWAP1 MSTORE CALLER PUSH1 0xE0 DUP5 ADD MSTORE PUSH1 0x0 DUP6 DUP2 MSTORE PUSH1 0x7 SWAP1 SWAP3 MSTORE SWAP3 SWAP1 KECCAK256 DUP2 MLOAD DUP2 SSTORE SWAP2 MLOAD SWAP1 SWAP2 DUP3 SWAP2 PUSH1 0x1 DUP3 ADD SWAP1 PUSH2 0x17E4 SWAP1 DUP3 PUSH2 0x38D2 JUMP JUMPDEST POP PUSH1 0x40 DUP3 ADD MLOAD PUSH1 0x2 DUP3 ADD SWAP1 PUSH2 0x17F9 SWAP1 DUP3 PUSH2 0x38D2 JUMP JUMPDEST POP PUSH1 0x60 DUP3 ADD MLOAD PUSH1 0x3 DUP3 ADD SWAP1 PUSH2 0x180E SWAP1 DUP3 PUSH2 0x38D2 JUMP JUMPDEST POP PUSH1 0x80 DUP3 ADD MLOAD PUSH1 0x4 DUP3 ADD SWAP1 PUSH2 0x1823 SWAP1 DUP3 PUSH2 0x38D2 JUMP JUMPDEST POP PUSH1 0xA0 DUP3 ADD MLOAD PUSH1 0x5 DUP3 ADD SSTORE PUSH1 0xC0 DUP3 ADD MLOAD PUSH1 0x6 DUP3 ADD SSTORE PUSH1 0xE0 SWAP1 SWAP2 ADD MLOAD PUSH1 0x7 SWAP1 SWAP2 ADD DUP1 SLOAD PUSH1 0x1 PUSH1 0x1 PUSH1 0xA0 SHL SUB NOT AND PUSH1 0x1 PUSH1 0x1 PUSH1 0xA0 SHL SUB SWAP1 SWAP3 AND SWAP2 SWAP1 SWAP2 OR SWAP1 SSTORE CALLER PUSH1 0x0 SWAP1 DUP2 MSTORE PUSH1 0x8 PUSH1 0x20 SWAP1 DUP2 MSTORE PUSH1 0x40 DUP1 DUP4 KECCAK256 DUP1 SLOAD PUSH1 0x1 DUP2 ADD DUP3 SSTORE SWAP1 DUP5 MSTORE SWAP3 DUP3 SWAP1 KECCAK256 SWAP1 SWAP3 ADD DUP5 SWAP1 SSTORE DUP2 MLOAD DUP1 DUP4 ADD SWAP1 SWAP3 MSTORE PUSH1 0xF DUP3 MSTORE PUSH15 0x5452414E53504F52545F5741535445 PUSH1 0x88 SHL SWAP1 DUP3 ADD MSTORE PUSH2 0x18C9 SWAP1 DUP5 SWAP1 PUSH2 0x18B9 DUP6 PUSH2 0x2BDB JUMP JUMPDEST PUSH1 0x40 MLOAD PUSH1 0x20 ADD PUSH2 0x89E SWAP2 SWAP1 PUSH2 0x3992 JUMP JUMPDEST PUSH32 0x734F3E705D98E08CF141C22197EDF19CCE7E665E932CA904A80D85CE4FAD82D7 DUP3 DUP10 DUP7 DUP7 PUSH1 0x40 MLOAD PUSH2 0x14BB SWAP5 SWAP4 SWAP3 SWAP2 SWAP1 PUSH2 0x39E4 JUMP JUMPDEST PUSH2 0x194F PUSH1 0x40 MLOAD DUP1 PUSH2 0x100 ADD PUSH1 0x40 MSTORE DUP1 PUSH1 0x0 DUP2 MSTORE PUSH1 0x20 ADD PUSH1 0x60 DUP2 MSTORE PUSH1 0x20 ADD PUSH1 0x60 DUP2 MSTORE PUSH1 0x20 ADD PUSH1 0x60 DUP2 MSTORE PUSH1 0x20 ADD PUSH1 0x60 DUP2 MSTORE PUSH1 0x20 ADD PUSH1 0x0 DUP2 MSTORE PUSH1 0x20 ADD PUSH1 0x0 DUP2 MSTORE PUSH1 0x20 ADD PUSH1 0x0 PUSH1 0x1 PUSH1 0x1 PUSH1 0xA0 SHL SUB AND DUP2 MSTORE POP SWAP1 JUMP JUMPDEST PUSH1 0x0 DUP3 DUP2 MSTORE PUSH1 0x7 PUSH1 0x20 MSTORE PUSH1 0x40 SWAP1 KECCAK256 SLOAD PUSH2 0x19A6 JUMPI PUSH1 0x40 MLOAD PUSH3 0x461BCD PUSH1 0xE5 SHL DUP2 MSTORE PUSH1 0x20 PUSH1 0x4 DUP3 ADD MSTORE PUSH1 0x19 PUSH1 0x24 DUP3 ADD MSTORE PUSH25 0x151C985B9CDC1BDC9D081DD85CDD19481B9BDD08199BDD5B99 PUSH1 0x3A SHL PUSH1 0x44 DUP3 ADD MSTORE PUSH1 0x64 ADD PUSH2 0x822 JUMP JUMPDEST PUSH1 0x7 PUSH1 0x0 DUP4 DUP2 MSTORE PUSH1 0x20 ADD SWAP1 DUP2 MSTORE PUSH1 0x20 ADD PUSH1 0x0 KECCAK256 PUSH1 0x40 MLOAD DUP1 PUSH2 0x100 ADD PUSH1 0x40 MSTORE SWAP1 DUP2 PUSH1 0x0 DUP3 ADD SLOAD DUP2 MSTORE PUSH1 0x20 ADD PUSH1 0x1 DUP3 ADD DUP1 SLOAD PUSH2 0x19DF SWAP1 PUSH2 0x3789 JUMP JUMPDEST DUP1 PUSH1 0x1F ADD PUSH1 0x20 DUP1 SWAP2 DIV MUL PUSH1 0x20 ADD PUSH1 0x40 MLOAD SWAP1 DUP2 ADD PUSH1 0x40 MSTORE DUP1 SWAP3 SWAP2 SWAP1 DUP2 DUP2 MSTORE PUSH1 0x20 ADD DUP3 DUP1 SLOAD PUSH2 0x1A0B SWAP1 PUSH2 0x3789 JUMP JUMPDEST DUP1 ISZERO PUSH2 0x1A58 JUMPI DUP1 PUSH1 0x1F LT PUSH2 0x1A2D JUMPI PUSH2 0x100 DUP1 DUP4 SLOAD DIV MUL DUP4 MSTORE SWAP2 PUSH1 0x20 ADD SWAP2 PUSH2 0x1A58 JUMP JUMPDEST DUP3 ADD SWAP2 SWAP1 PUSH1 0x0 MSTORE PUSH1 0x20 PUSH1 0x0 KECCAK256 SWAP1 JUMPDEST DUP2 SLOAD DUP2 MSTORE SWAP1 PUSH1 0x1 ADD SWAP1 PUSH1 0x20 ADD DUP1 DUP4 GT PUSH2 0x1A3B JUMPI DUP3 SWAP1 SUB PUSH1 0x1F AND DUP3 ADD SWAP2 JUMPDEST POP POP POP POP POP DUP2 MSTORE PUSH1 0x20 ADD PUSH1 0x2 DUP3 ADD DUP1 SLOAD PUSH2 0x1A71 SWAP1 PUSH2 0x3789 JUMP JUMPDEST DUP1 PUSH1 0x1F ADD PUSH1 0x20 DUP1 SWAP2 DIV MUL PUSH1 0x20 ADD PUSH1 0x40 MLOAD SWAP1 DUP2 ADD PUSH1 0x40 MSTORE DUP1 SWAP3 SWAP2 SWAP1 DUP2 DUP2 MSTORE PUSH1 0x20 ADD DUP3 DUP1 SLOAD PUSH2 0x1A9D SWAP1 PUSH2 0x3789 JUMP JUMPDEST DUP1 ISZERO PUSH2 0x1AEA JUMPI DUP1 PUSH1 0x1F LT PUSH2 0x1ABF JUMPI PUSH2 0x100 DUP1 DUP4 SLOAD DIV MUL DUP4 MSTORE SWAP2 PUSH1 0x20 ADD SWAP2 PUSH2 0x1AEA JUMP JUMPDEST DUP3 ADD SWAP2 SWAP1 PUSH1 0x0 MSTORE PUSH1 0x20 PUSH1 0x0 KECCAK256 SWAP1 JUMPDEST DUP2 SLOAD DUP2 MSTORE SWAP1 PUSH1 0x1 ADD SWAP1 PUSH1 0x20 ADD DUP1 DUP4 GT PUSH2 0x1ACD JUMPI DUP3 SWAP1 SUB PUSH1 0x1F AND DUP3 ADD SWAP2 JUMPDEST POP POP POP POP POP DUP2 MSTORE PUSH1 0x20 ADD PUSH1 0x3 DUP3 ADD DUP1 SLOAD PUSH2 0x1B03 SWAP1 PUSH2 0x3789 JUMP JUMPDEST DUP1 PUSH1 0x1F ADD PUSH1 0x20 DUP1 SWAP2 DIV MUL PUSH1 0x20 ADD PUSH1 0x40 MLOAD SWAP1 DUP2 ADD PUSH1 0x40 MSTORE DUP1 SWAP3 SWAP2 SWAP1 DUP2 DUP2 MSTORE PUSH1 0x20 ADD DUP3 DUP1 SLOAD PUSH2 0x1B2F SWAP1 PUSH2 0x3789 JUMP JUMPDEST DUP1 ISZERO PUSH2 0x1B7C JUMPI DUP1 PUSH1 0x1F LT PUSH2 0x1B51 JUMPI PUSH2 0x100 DUP1 DUP4 SLOAD DIV MUL DUP4 MSTORE SWAP2 PUSH1 0x20 ADD SWAP2 PUSH2 0x1B7C JUMP JUMPDEST DUP3 ADD SWAP2 SWAP1 PUSH1 0x0 MSTORE PUSH1 0x20 PUSH1 0x0 KECCAK256 SWAP1 JUMPDEST DUP2 SLOAD DUP2 MSTORE SWAP1 PUSH1 0x1 ADD SWAP1 PUSH1 0x20 ADD DUP1 DUP4 GT PUSH2 0x1B5F JUMPI DUP3 SWAP1 SUB PUSH1 0x1F AND DUP3 ADD SWAP2 JUMPDEST POP POP POP POP POP DUP2 MSTORE PUSH1 0x20 ADD PUSH1 0x4 DUP3 ADD DUP1 SLOAD PUSH2 0x1B95 SWAP1 PUSH2 0x3789 JUMP JUMPDEST DUP1 PUSH1 0x1F ADD PUSH1 0x20 DUP1 SWAP2 DIV MUL PUSH1 0x20 ADD PUSH1 0x40 MLOAD SWAP1 DUP2 ADD PUSH1 0x40 MSTORE DUP1 SWAP3 SWAP2 SWAP1 DUP2 DUP2 MSTORE PUSH1 0x20 ADD DUP3 DUP1 SLOAD PUSH2 0x1BC1 SWAP1 PUSH2 0x3789 JUMP JUMPDEST DUP1 ISZERO PUSH2 0x1C0E JUMPI DUP1 PUSH1 0x1F LT PUSH2 0x1BE3 JUMPI PUSH2 0x100 DUP1 DUP4 SLOAD DIV MUL DUP4 MSTORE SWAP2 PUSH1 0x20 ADD SWAP2 PUSH2 0x1C0E JUMP JUMPDEST DUP3 ADD SWAP2 SWAP1 PUSH1 0x0 MSTORE PUSH1 0x20 PUSH1 0x0 KECCAK256 SWAP1 JUMPDEST DUP2 SLOAD DUP2 MSTORE SWAP1 PUSH1 0x1 ADD SWAP1 PUSH1 0x20 ADD DUP1 DUP4 GT PUSH2 0x1BF1 JUMPI DUP3 SWAP1 SUB PUSH1 0x1F AND DUP3 ADD SWAP2 JUMPDEST POP POP POP SWAP2 DUP4 MSTORE POP POP PUSH1 0x5 DUP3 ADD SLOAD PUSH1 0x20 DUP3 ADD MSTORE PUSH1 0x6 DUP3 ADD SLOAD PUSH1 0x40 DUP3 ADD MSTORE PUSH1 0x7 SWAP1 SWAP2 ADD SLOAD PUSH1 0x1 PUSH1 0x1 PUSH1 0xA0 SHL SUB AND PUSH1 0x60 SWAP1 SWAP2 ADD MSTORE SWAP3 SWAP2 POP POP JUMP JUMPDEST PUSH2 0x1C4E DUP3 PUSH2 0x1CD7 JUMP JUMPDEST PUSH2 0x1C6A JUMPI PUSH1 0x40 MLOAD PUSH3 0x461BCD PUSH1 0xE5 SHL DUP2 MSTORE PUSH1 0x4 ADD PUSH2 0x822 SWAP1 PUSH2 0x365F JUMP JUMPDEST PUSH1 0x0 DUP3 DUP2 MSTORE PUSH1 0xD PUSH1 0x20 DUP2 DUP2 MSTORE PUSH1 0x40 DUP1 DUP5 KECCAK256 PUSH1 0x1 PUSH1 0x1 PUSH1 0xA0 SHL SUB DUP7 AND DUP6 MSTORE DUP3 MSTORE SWAP3 DUP4 SWAP1 KECCAK256 DUP1 SLOAD PUSH1 0xFF NOT AND PUSH1 0x1 OR SWAP1 SSTORE DUP3 MLOAD DUP1 DUP5 ADD SWAP1 SWAP4 MSTORE SWAP1 DUP3 MSTORE PUSH13 0x20AAAA2427A924AD20AA24A7A7 PUSH1 0x99 SHL SWAP1 DUP3 ADD MSTORE PUSH2 0x8B2 SWAP1 DUP4 SWAP1 PUSH2 0x1CC7 DUP5 PUSH2 0x292C JUMP JUMPDEST PUSH1 0x40 MLOAD PUSH1 0x20 ADD PUSH2 0x89E SWAP2 SWAP1 PUSH2 0x3A10 JUMP JUMPDEST PUSH1 0x0 DUP2 ISZERO DUP1 PUSH2 0x1CE7 JUMPI POP PUSH1 0x3 SLOAD DUP3 GT JUMPDEST ISZERO PUSH2 0x1CF4 JUMPI POP PUSH1 0x0 SWAP2 SWAP1 POP JUMP JUMPDEST PUSH1 0x0 PUSH1 0x2 PUSH1 0x0 DUP5 DUP2 MSTORE PUSH1 0x20 ADD SWAP1 DUP2 MSTORE PUSH1 0x20 ADD PUSH1 0x0 KECCAK256 PUSH1 0x40 MLOAD DUP1 PUSH1 0x80 ADD PUSH1 0x40 MSTORE SWAP1 DUP2 PUSH1 0x0 DUP3 ADD SLOAD DUP2 MSTORE PUSH1 0x20 ADD PUSH1 0x1 DUP3 ADD DUP1 SLOAD PUSH2 0x1D2E SWAP1 PUSH2 0x3789 JUMP JUMPDEST DUP1 PUSH1 0x1F ADD PUSH1 0x20 DUP1 SWAP2 DIV MUL PUSH1 0x20 ADD PUSH1 0x40 MLOAD SWAP1 DUP2 ADD PUSH1 0x40 MSTORE DUP1 SWAP3 SWAP2 SWAP1 DUP2 DUP2 MSTORE PUSH1 0x20 ADD DUP3 DUP1 SLOAD PUSH2 0x1D5A SWAP1 PUSH2 0x3789 JUMP JUMPDEST DUP1 ISZERO PUSH2 0x1DA7 JUMPI DUP1 PUSH1 0x1F LT PUSH2 0x1D7C JUMPI PUSH2 0x100 DUP1 DUP4 SLOAD DIV MUL DUP4 MSTORE SWAP2 PUSH1 0x20 ADD SWAP2 PUSH2 0x1DA7 JUMP JUMPDEST DUP3 ADD SWAP2 SWAP1 PUSH1 0x0 MSTORE PUSH1 0x20 PUSH1 0x0 KECCAK256 SWAP1 JUMPDEST DUP2 SLOAD DUP2 MSTORE SWAP1 PUSH1 0x1 ADD SWAP1 PUSH1 0x20 ADD DUP1 DUP4 GT PUSH2 0x1D8A JUMPI DUP3 SWAP1 SUB PUSH1 0x1F AND DUP3 ADD SWAP2 JUMPDEST POP POP POP SWAP2 DUP4 MSTORE POP POP PUSH1 0x2 DUP3 ADD SLOAD PUSH1 0x20 SWAP1 SWAP2 ADD SWAP1 PUSH1 0xFF AND PUSH1 0x4 DUP2 GT ISZERO PUSH2 0x1DCE JUMPI PUSH2 0x1DCE PUSH2 0x2FB9 JUMP JUMPDEST PUSH1 0x4 DUP2 GT ISZERO PUSH2 0x1DDF JUMPI PUSH2 0x1DDF PUSH2 0x2FB9 JUMP JUMPDEST DUP2 MSTORE PUSH1 0x2 SWAP2 SWAP1 SWAP2 ADD SLOAD PUSH1 0x1 PUSH1 0x1 PUSH1 0xA0 SHL SUB PUSH2 0x100 SWAP1 SWAP2 DIV DUP2 AND PUSH1 0x20 SWAP1 SWAP3 ADD SWAP2 SWAP1 SWAP2 MSTORE PUSH1 0x60 DUP3 ADD MLOAD SWAP2 SWAP3 POP AND CALLER EQ DUP1 PUSH2 0x1E30 JUMPI POP PUSH1 0x0 DUP4 DUP2 MSTORE PUSH1 0xD PUSH1 0x20 SWAP1 DUP2 MSTORE PUSH1 0x40 DUP1 DUP4 KECCAK256 CALLER DUP5 MSTORE SWAP1 SWAP2 MSTORE SWAP1 KECCAK256 SLOAD PUSH1 0xFF AND JUMPDEST SWAP4 SWAP3 POP POP POP JUMP JUMPDEST PUSH1 0x60 PUSH2 0x1E42 DUP3 PUSH2 0x1CD7 JUMP JUMPDEST PUSH2 0x1E5E JUMPI PUSH1 0x40 MLOAD PUSH3 0x461BCD PUSH1 0xE5 SHL DUP2 MSTORE PUSH1 0x4 ADD PUSH2 0x822 SWAP1 PUSH2 0x365F JUMP JUMPDEST POP POP PUSH1 0x40 DUP1 MLOAD PUSH1 0x0 DUP2 MSTORE PUSH1 0x20 DUP2 ADD SWAP1 SWAP2 MSTORE SWAP1 JUMP JUMPDEST PUSH2 0x1E7B DUP4 PUSH2 0x1CD7 JUMP JUMPDEST PUSH2 0x1E97 JUMPI PUSH1 0x40 MLOAD PUSH3 0x461BCD PUSH1 0xE5 SHL DUP2 MSTORE PUSH1 0x4 ADD PUSH2 0x822 SWAP1 PUSH2 0x36DB JUMP JUMPDEST PUSH1 0x0 DUP4 DUP2 MSTORE PUSH1 0xE PUSH1 0x20 SWAP1 DUP2 MSTORE PUSH1 0x40 SWAP2 DUP3 SWAP1 KECCAK256 SWAP2 MLOAD PUSH2 0x1EC5 SWAP2 ADD PUSH9 0x736567726567617465 PUSH1 0xB8 SHL DUP2 MSTORE PUSH1 0x9 ADD SWAP1 JUMP JUMPDEST PUSH1 0x40 MLOAD PUSH1 0x20 DUP2 DUP4 SUB SUB DUP2 MSTORE SWAP1 PUSH1 0x40 MSTORE DUP1 MLOAD SWAP1 PUSH1 0x20 ADD KECCAK256 DUP4 PUSH1 0x40 MLOAD PUSH1 0x20 ADD PUSH2 0x1EEC SWAP2 SWAP1 PUSH2 0x3A49 JUMP JUMPDEST PUSH1 0x40 MLOAD PUSH1 0x20 DUP2 DUP4 SUB SUB DUP2 MSTORE SWAP1 PUSH1 0x40 MSTORE DUP1 MLOAD SWAP1 PUSH1 0x20 ADD KECCAK256 SUB PUSH2 0x1F18 JUMPI DUP1 SLOAD PUSH1 0xFF NOT AND DUP3 ISZERO ISZERO OR DUP2 SSTORE PUSH2 0x2035 JUMP JUMPDEST PUSH1 0x40 MLOAD PUSH9 0x1D1C985B9CDC1BDC9D PUSH1 0xBA SHL PUSH1 0x20 DUP3 ADD MSTORE PUSH1 0x29 ADD PUSH1 0x40 MLOAD PUSH1 0x20 DUP2 DUP4 SUB SUB DUP2 MSTORE SWAP1 PUSH1 0x40 MSTORE DUP1 MLOAD SWAP1 PUSH1 0x20 ADD KECCAK256 DUP4 PUSH1 0x40 MLOAD PUSH1 0x20 ADD PUSH2 0x1F57 SWAP2 SWAP1 PUSH2 0x3A49 JUMP JUMPDEST PUSH1 0x40 MLOAD PUSH1 0x20 DUP2 DUP4 SUB SUB DUP2 MSTORE SWAP1 PUSH1 0x40 MSTORE DUP1 MLOAD SWAP1 PUSH1 0x20 ADD KECCAK256 SUB PUSH2 0x1F88 JUMPI DUP1 SLOAD PUSH2 0xFF00 NOT AND PUSH2 0x100 DUP4 ISZERO ISZERO MUL OR DUP2 SSTORE PUSH2 0x2035 JUMP JUMPDEST PUSH1 0x40 MLOAD PUSH7 0x646973706F7365 PUSH1 0xC8 SHL PUSH1 0x20 DUP3 ADD MSTORE PUSH1 0x27 ADD PUSH1 0x40 MLOAD PUSH1 0x20 DUP2 DUP4 SUB SUB DUP2 MSTORE SWAP1 PUSH1 0x40 MSTORE DUP1 MLOAD SWAP1 PUSH1 0x20 ADD KECCAK256 DUP4 PUSH1 0x40 MLOAD PUSH1 0x20 ADD PUSH2 0x1FC5 SWAP2 SWAP1 PUSH2 0x3A49 JUMP JUMPDEST PUSH1 0x40 MLOAD PUSH1 0x20 DUP2 DUP4 SUB SUB DUP2 MSTORE SWAP1 PUSH1 0x40 MSTORE DUP1 MLOAD SWAP1 PUSH1 0x20 ADD KECCAK256 SUB PUSH2 0x1FF8 JUMPI DUP1 SLOAD PUSH3 0xFF0000 NOT AND PUSH3 0x10000 DUP4 ISZERO ISZERO MUL OR DUP2 SSTORE PUSH2 0x2035 JUMP JUMPDEST PUSH1 0x40 MLOAD PUSH3 0x461BCD PUSH1 0xE5 SHL DUP2 MSTORE PUSH1 0x20 PUSH1 0x4 DUP3 ADD MSTORE PUSH1 0x12 PUSH1 0x24 DUP3 ADD MSTORE PUSH18 0x496E76616C6964206361706162696C697479 PUSH1 0x70 SHL PUSH1 0x44 DUP3 ADD MSTORE PUSH1 0x64 ADD PUSH2 0x822 JUMP JUMPDEST PUSH2 0x20C1 DUP5 PUSH1 0x40 MLOAD DUP1 PUSH1 0x40 ADD PUSH1 0x40 MSTORE DUP1 PUSH1 0x11 DUP2 MSTORE PUSH1 0x20 ADD PUSH17 0x4341504142494C4954595F555044415445 PUSH1 0x78 SHL DUP2 MSTORE POP DUP6 DUP6 PUSH2 0x208F JUMPI PUSH1 0x40 MLOAD DUP1 PUSH1 0x40 ADD PUSH1 0x40 MSTORE DUP1 PUSH1 0x8 DUP2 MSTORE PUSH1 0x20 ADD PUSH8 0x191A5CD8589B1959 PUSH1 0xC2 SHL DUP2 MSTORE POP PUSH2 0x20B0 JUMP JUMPDEST PUSH1 0x40 MLOAD DUP1 PUSH1 0x40 ADD PUSH1 0x40 MSTORE DUP1 PUSH1 0x7 DUP2 MSTORE PUSH1 0x20 ADD PUSH7 0x195B98589B1959 PUSH1 0xCA SHL DUP2 MSTORE POP JUMPDEST PUSH1 0x40 MLOAD PUSH1 0x20 ADD PUSH2 0x89E SWAP3 SWAP2 SWAP1 PUSH2 0x3A65 JUMP JUMPDEST PUSH1 0x0 DUP1 MLOAD PUSH1 0x20 PUSH2 0x3C13 DUP4 CODECOPY DUP2 MLOAD SWAP2 MSTORE DUP5 DUP5 DUP5 PUSH1 0x40 MLOAD PUSH2 0x20E2 SWAP4 SWAP3 SWAP2 SWAP1 PUSH2 0x3AD1 JUMP JUMPDEST PUSH1 0x40 MLOAD DUP1 SWAP2 SUB SWAP1 LOG1 POP POP POP POP JUMP JUMPDEST PUSH1 0x40 DUP1 MLOAD PUSH2 0x140 DUP2 ADD DUP3 MSTORE PUSH1 0x0 DUP1 DUP3 MSTORE PUSH1 0x20 DUP3 ADD DUP2 SWAP1 MSTORE SWAP2 DUP2 ADD DUP3 SWAP1 MSTORE PUSH1 0x60 DUP2 ADD DUP3 SWAP1 MSTORE PUSH1 0x80 DUP2 ADD DUP3 SWAP1 MSTORE PUSH1 0xA0 DUP2 ADD DUP3 SWAP1 MSTORE PUSH1 0xC0 DUP2 ADD DUP3 SWAP1 MSTORE PUSH1 0xE0 DUP2 ADD DUP3 SWAP1 MSTORE PUSH2 0x100 DUP2 ADD DUP3 SWAP1 MSTORE PUSH2 0x120 DUP2 ADD SWAP2 SWAP1 SWAP2 MSTORE PUSH1 0x0 DUP3 DUP2 MSTORE PUSH1 0x4 PUSH1 0x20 MSTORE PUSH1 0x40 SWAP1 KECCAK256 SLOAD PUSH2 0x2197 JUMPI PUSH1 0x40 MLOAD PUSH3 0x461BCD PUSH1 0xE5 SHL DUP2 MSTORE PUSH1 0x20 PUSH1 0x4 DUP3 ADD MSTORE PUSH1 0x18 PUSH1 0x24 DUP3 ADD MSTORE PUSH24 0x121BDCDC1A5D185B081DD85CDD19481B9BDD08199BDD5B99 PUSH1 0x42 SHL PUSH1 0x44 DUP3 ADD MSTORE PUSH1 0x64 ADD PUSH2 0x822 JUMP JUMPDEST POP PUSH1 0x0 SWAP1 DUP2 MSTORE PUSH1 0x4 PUSH1 0x20 DUP2 DUP2 MSTORE PUSH1 0x40 SWAP3 DUP4 SWAP1 KECCAK256 DUP4 MLOAD PUSH2 0x140 DUP2 ADD DUP6 MSTORE DUP2 SLOAD DUP2 MSTORE PUSH1 0x1 DUP3 ADD SLOAD PUSH1 0xFF SWAP1 DUP2 AND ISZERO ISZERO SWAP4 DUP3 ADD SWAP4 SWAP1 SWAP4 MSTORE PUSH1 0x2 DUP3 ADD SLOAD SWAP5 DUP2 ADD SWAP5 SWAP1 SWAP5 MSTORE PUSH1 0x3 DUP2 ADD SLOAD PUSH1 0x60 DUP6 ADD MSTORE SWAP2 DUP3 ADD SLOAD DUP1 DUP3 AND ISZERO ISZERO PUSH1 0x80 DUP6 ADD MSTORE PUSH2 0x100 DUP1 DUP3 DIV DUP4 AND ISZERO ISZERO PUSH1 0xA0 DUP7 ADD MSTORE PUSH3 0x10000 SWAP1 SWAP2 DIV SWAP1 SWAP2 AND ISZERO ISZERO PUSH1 0xC0 DUP5 ADD MSTORE PUSH1 0x5 DUP3 ADD SLOAD PUSH1 0xE0 DUP5 ADD MSTORE PUSH1 0x6 DUP3 ADD SLOAD SWAP1 DUP4 ADD MSTORE PUSH1 0x7 ADD SLOAD PUSH1 0x1 PUSH1 0x1 PUSH1 0xA0 SHL SUB AND PUSH2 0x120 DUP3 ADD MSTORE SWAP1 JUMP JUMPDEST PUSH1 0x7 PUSH1 0x20 MSTORE PUSH1 0x0 SWAP1 DUP2 MSTORE PUSH1 0x40 SWAP1 KECCAK256 DUP1 SLOAD PUSH1 0x1 DUP3 ADD DUP1 SLOAD SWAP2 SWAP3 SWAP2 PUSH2 0x2259 SWAP1 PUSH2 0x3789 JUMP JUMPDEST DUP1 PUSH1 0x1F ADD PUSH1 0x20 DUP1 SWAP2 DIV MUL PUSH1 0x20 ADD PUSH1 0x40 MLOAD SWAP1 DUP2 ADD PUSH1 0x40 MSTORE DUP1 SWAP3 SWAP2 SWAP1 DUP2 DUP2 MSTORE PUSH1 0x20 ADD DUP3 DUP1 SLOAD PUSH2 0x2285 SWAP1 PUSH2 0x3789 JUMP JUMPDEST DUP1 ISZERO PUSH2 0x22D2 JUMPI DUP1 PUSH1 0x1F LT PUSH2 0x22A7 JUMPI PUSH2 0x100 DUP1 DUP4 SLOAD DIV MUL DUP4 MSTORE SWAP2 PUSH1 0x20 ADD SWAP2 PUSH2 0x22D2 JUMP JUMPDEST DUP3 ADD SWAP2 SWAP1 PUSH1 0x0 MSTORE PUSH1 0x20 PUSH1 0x0 KECCAK256 SWAP1 JUMPDEST DUP2 SLOAD DUP2 MSTORE SWAP1 PUSH1 0x1 ADD SWAP1 PUSH1 0x20 ADD DUP1 DUP4 GT PUSH2 0x22B5 JUMPI DUP3 SWAP1 SUB PUSH1 0x1F AND DUP3 ADD SWAP2 JUMPDEST POP POP POP POP POP SWAP1 DUP1 PUSH1 0x2 ADD DUP1 SLOAD PUSH2 0x22E7 SWAP1 PUSH2 0x3789 JUMP JUMPDEST DUP1 PUSH1 0x1F ADD PUSH1 0x20 DUP1 SWAP2 DIV MUL PUSH1 0x20 ADD PUSH1 0x40 MLOAD SWAP1 DUP2 ADD PUSH1 0x40 MSTORE DUP1 SWAP3 SWAP2 SWAP1 DUP2 DUP2 MSTORE PUSH1 0x20 ADD DUP3 DUP1 SLOAD PUSH2 0x2313 SWAP1 PUSH2 0x3789 JUMP JUMPDEST DUP1 ISZERO PUSH2 0x2360 JUMPI DUP1 PUSH1 0x1F LT PUSH2 0x2335 JUMPI PUSH2 0x100 DUP1 DUP4 SLOAD DIV MUL DUP4 MSTORE SWAP2 PUSH1 0x20 ADD SWAP2 PUSH2 0x2360 JUMP JUMPDEST DUP3 ADD SWAP2 SWAP1 PUSH1 0x0 MSTORE PUSH1 0x20 PUSH1 0x0 KECCAK256 SWAP1 JUMPDEST DUP2 SLOAD DUP2 MSTORE SWAP1 PUSH1 0x1 ADD SWAP1 PUSH1 0x20 ADD DUP1 DUP4 GT PUSH2 0x2343 JUMPI DUP3 SWAP1 SUB PUSH1 0x1F AND DUP3 ADD SWAP2 JUMPDEST POP POP POP POP POP SWAP1 DUP1 PUSH1 0x3 ADD DUP1 SLOAD PUSH2 0x2375 SWAP1 PUSH2 0x3789 JUMP JUMPDEST DUP1 PUSH1 0x1F ADD PUSH1 0x20 DUP1 SWAP2 DIV MUL PUSH1 0x20 ADD PUSH1 0x40 MLOAD SWAP1 DUP2 ADD PUSH1 0x40 MSTORE DUP1 SWAP3 SWAP2 SWAP1 DUP2 DUP2 MSTORE PUSH1 0x20 ADD DUP3 DUP1 SLOAD PUSH2 0x23A1 SWAP1 PUSH2 0x3789 JUMP JUMPDEST DUP1 ISZERO PUSH2 0x23EE JUMPI DUP1 PUSH1 0x1F LT PUSH2 0x23C3 JUMPI PUSH2 0x100 DUP1 DUP4 SLOAD DIV MUL DUP4 MSTORE SWAP2 PUSH1 0x20 ADD SWAP2 PUSH2 0x23EE JUMP JUMPDEST DUP3 ADD SWAP2 SWAP1 PUSH1 0x0 MSTORE PUSH1 0x20 PUSH1 0x0 KECCAK256 SWAP1 JUMPDEST DUP2 SLOAD DUP2 MSTORE SWAP1 PUSH1 0x1 ADD SWAP1 PUSH1 0x20 ADD DUP1 DUP4 GT PUSH2 0x23D1 JUMPI DUP3 SWAP1 SUB PUSH1 0x1F AND DUP3 ADD SWAP2 JUMPDEST POP POP POP POP POP SWAP1 DUP1 PUSH1 0x4 ADD DUP1 SLOAD PUSH2 0x2403 SWAP1 PUSH2 0x3789 JUMP JUMPDEST DUP1 PUSH1 0x1F ADD PUSH1 0x20 DUP1 SWAP2 DIV MUL PUSH1 0x20 ADD PUSH1 0x40 MLOAD SWAP1 DUP2 ADD PUSH1 0x40 MSTORE DUP1 SWAP3 SWAP2 SWAP1 DUP2 DUP2 MSTORE PUSH1 0x20 ADD DUP3 DUP1 SLOAD PUSH2 0x242F SWAP1 PUSH2 0x3789 JUMP JUMPDEST DUP1 ISZERO PUSH2 0x247C JUMPI DUP1 PUSH1 0x1F LT PUSH2 0x2451 JUMPI PUSH2 0x100 DUP1 DUP4 SLOAD DIV MUL DUP4 MSTORE SWAP2 PUSH1 0x20 ADD SWAP2 PUSH2 0x247C JUMP JUMPDEST DUP3 ADD SWAP2 SWAP1 PUSH1 0x0 MSTORE PUSH1 0x20 PUSH1 0x0 KECCAK256 SWAP1 JUMPDEST DUP2 SLOAD DUP2 MSTORE SWAP1 PUSH1 0x1 ADD SWAP1 PUSH1 0x20 ADD DUP1 DUP4 GT PUSH2 0x245F JUMPI DUP3 SWAP1 SUB PUSH1 0x1F AND DUP3 ADD SWAP2 JUMPDEST POP POP POP POP PUSH1 0x5 DUP4 ADD SLOAD PUSH1 0x6 DUP5 ADD SLOAD PUSH1 0x7 SWAP1 SWAP5 ADD SLOAD SWAP3 SWAP4 SWAP1 SWAP3 SWAP1 SWAP2 POP PUSH1 0x1 PUSH1 0x1 PUSH1 0xA0 SHL SUB AND DUP9 JUMP JUMPDEST PUSH1 0x3 DUP1 SLOAD SWAP1 PUSH1 0x0 PUSH2 0x24B3 DUP4 PUSH2 0x37D9 JUMP JUMPDEST SWAP1 SWAP2 SSTORE POP POP PUSH1 0x3 SLOAD PUSH1 0x40 DUP1 MLOAD PUSH1 0x80 DUP2 ADD DUP3 MSTORE DUP3 DUP2 MSTORE PUSH1 0x20 DUP2 ADD DUP6 SWAP1 MSTORE PUSH1 0x0 SWAP2 DUP2 ADD DUP5 PUSH1 0x4 DUP2 GT ISZERO PUSH2 0x24E6 JUMPI PUSH2 0x24E6 PUSH2 0x2FB9 JUMP JUMPDEST DUP2 MSTORE CALLER PUSH1 0x20 SWAP2 DUP3 ADD DUP2 SWAP1 MSTORE PUSH1 0x0 SWAP1 DUP2 MSTORE PUSH1 0x1 DUP1 DUP4 MSTORE PUSH1 0x40 DUP3 KECCAK256 DUP1 SLOAD DUP1 DUP4 ADD DUP3 SSTORE SWAP1 DUP4 MSTORE SWAP2 DUP4 SWAP1 KECCAK256 DUP5 MLOAD PUSH1 0x3 SWAP1 SWAP4 MUL ADD SWAP2 DUP3 SSTORE SWAP2 DUP4 ADD MLOAD SWAP3 SWAP4 POP DUP4 SWAP3 SWAP1 SWAP2 DUP3 ADD SWAP1 PUSH2 0x2530 SWAP1 DUP3 PUSH2 0x38D2 JUMP JUMPDEST POP PUSH1 0x40 DUP3 ADD MLOAD PUSH1 0x2 DUP3 ADD DUP1 SLOAD PUSH1 0xFF NOT AND PUSH1 0x1 DUP4 PUSH1 0x4 DUP2 GT ISZERO PUSH2 0x2554 JUMPI PUSH2 0x2554 PUSH2 0x2FB9 JUMP JUMPDEST MUL OR SWAP1 SSTORE POP PUSH1 0x60 SWAP2 SWAP1 SWAP2 ADD MLOAD PUSH1 0x2 SWAP2 DUP3 ADD DUP1 SLOAD PUSH1 0x1 PUSH1 0x1 PUSH1 0xA0 SHL SUB SWAP1 SWAP3 AND PUSH2 0x100 MUL PUSH2 0x100 PUSH1 0x1 PUSH1 0xA8 SHL SUB NOT SWAP1 SWAP3 AND SWAP2 SWAP1 SWAP2 OR SWAP1 SSTORE PUSH1 0x0 DUP4 DUP2 MSTORE PUSH1 0x20 SWAP2 DUP3 MSTORE PUSH1 0x40 SWAP1 KECCAK256 DUP3 MLOAD DUP2 SSTORE SWAP1 DUP3 ADD MLOAD DUP3 SWAP2 SWAP1 PUSH1 0x1 DUP3 ADD SWAP1 PUSH2 0x25B1 SWAP1 DUP3 PUSH2 0x38D2 JUMP JUMPDEST POP PUSH1 0x40 DUP3 ADD MLOAD PUSH1 0x2 DUP3 ADD DUP1 SLOAD PUSH1 0xFF NOT AND PUSH1 0x1 DUP4 PUSH1 0x4 DUP2 GT ISZERO PUSH2 0x25D5 JUMPI PUSH2 0x25D5 PUSH2 0x2FB9 JUMP JUMPDEST MUL OR SWAP1 SSTORE POP PUSH1 0x60 DUP3 ADD MLOAD DUP2 PUSH1 0x2 ADD PUSH1 0x1 PUSH2 0x100 EXP DUP2 SLOAD DUP2 PUSH1 0x1 PUSH1 0x1 PUSH1 0xA0 SHL SUB MUL NOT AND SWAP1 DUP4 PUSH1 0x1 PUSH1 0x1 PUSH1 0xA0 SHL SUB AND MUL OR SWAP1 SSTORE POP SWAP1 POP POP PUSH2 0x2644 DUP3 PUSH1 0x40 MLOAD DUP1 PUSH1 0x40 ADD PUSH1 0x40 MSTORE DUP1 PUSH1 0xC DUP2 MSTORE PUSH1 0x20 ADD PUSH12 0x2922A3A4A9AA2920AA24A7A7 PUSH1 0xA1 SHL DUP2 MSTORE POP DUP7 PUSH1 0x40 MLOAD PUSH1 0x20 ADD PUSH2 0x89E SWAP2 SWAP1 PUSH2 0x3AFC JUMP JUMPDEST PUSH32 0xE12B00CB2A4BF11F0EFB3122DF82FDA9DA45B52F73B965B9A120ADB375741537 DUP3 DUP6 DUP6 CALLER PUSH1 0x40 MLOAD PUSH2 0x20E2 SWAP5 SWAP4 SWAP3 SWAP2 SWAP1 PUSH2 0x2FF1 JUMP JUMPDEST PUSH1 0x0 DUP3 DUP2 MSTORE PUSH1 0xD PUSH1 0x20 SWAP1 DUP2 MSTORE PUSH1 0x40 DUP1 DUP4 KECCAK256 PUSH1 0x1 PUSH1 0x1 PUSH1 0xA0 SHL SUB DUP6 AND DUP5 MSTORE SWAP1 SWAP2 MSTORE SWAP1 KECCAK256 SLOAD PUSH1 0xFF AND JUMPDEST SWAP3 SWAP2 POP POP JUMP JUMPDEST CALLER PUSH1 0x0 SWAP1 DUP2 MSTORE PUSH1 0x1 PUSH1 0x20 SWAP1 DUP2 MSTORE PUSH1 0x40 DUP1 DUP4 KECCAK256 DUP1 SLOAD DUP3 MLOAD DUP2 DUP6 MUL DUP2 ADD DUP6 ADD SWAP1 SWAP4 MSTORE DUP1 DUP4 MSTORE PUSH1 0x60 SWAP5 SWAP3 SWAP4 SWAP2 SWAP3 SWAP1 SWAP2 DUP5 ADD JUMPDEST DUP3 DUP3 LT ISZERO PUSH2 0x27F0 JUMPI DUP4 DUP3 SWAP1 PUSH1 0x0 MSTORE PUSH1 0x20 PUSH1 0x0 KECCAK256 SWAP1 PUSH1 0x3 MUL ADD PUSH1 0x40 MLOAD DUP1 PUSH1 0x80 ADD PUSH1 0x40 MSTORE SWAP1 DUP2 PUSH1 0x0 DUP3 ADD SLOAD DUP2 MSTORE PUSH1 0x20 ADD PUSH1 0x1 DUP3 ADD DUP1 SLOAD PUSH2 0x2712 SWAP1 PUSH2 0x3789 JUMP JUMPDEST DUP1 PUSH1 0x1F ADD PUSH1 0x20 DUP1 SWAP2 DIV MUL PUSH1 0x20 ADD PUSH1 0x40 MLOAD SWAP1 DUP2 ADD PUSH1 0x40 MSTORE DUP1 SWAP3 SWAP2 SWAP1 DUP2 DUP2 MSTORE PUSH1 0x20 ADD DUP3 DUP1 SLOAD PUSH2 0x273E SWAP1 PUSH2 0x3789 JUMP JUMPDEST DUP1 ISZERO PUSH2 0x278B JUMPI DUP1 PUSH1 0x1F LT PUSH2 0x2760 JUMPI PUSH2 0x100 DUP1 DUP4 SLOAD DIV MUL DUP4 MSTORE SWAP2 PUSH1 0x20 ADD SWAP2 PUSH2 0x278B JUMP JUMPDEST DUP3 ADD SWAP2 SWAP1 PUSH1 0x0 MSTORE PUSH1 0x20 PUSH1 0x0 KECCAK256 SWAP1 JUMPDEST DUP2 SLOAD DUP2 MSTORE SWAP1 PUSH1 0x1 ADD SWAP1 PUSH1 0x20 ADD DUP1 DUP4 GT PUSH2 0x276E JUMPI DUP3 SWAP1 SUB PUSH1 0x1F AND DUP3 ADD SWAP2 JUMPDEST POP POP POP SWAP2 DUP4 MSTORE POP POP PUSH1 0x2 DUP3 ADD SLOAD PUSH1 0x20 SWAP1 SWAP2 ADD SWAP1 PUSH1 0xFF AND PUSH1 0x4 DUP2 GT ISZERO PUSH2 0x27B2 JUMPI PUSH2 0x27B2 PUSH2 0x2FB9 JUMP JUMPDEST PUSH1 0x4 DUP2 GT ISZERO PUSH2 0x27C3 JUMPI PUSH2 0x27C3 PUSH2 0x2FB9 JUMP JUMPDEST DUP2 MSTORE PUSH1 0x2 SWAP2 SWAP1 SWAP2 ADD SLOAD PUSH2 0x100 SWAP1 DIV PUSH1 0x1 PUSH1 0x1 PUSH1 0xA0 SHL SUB AND PUSH1 0x20 SWAP2 DUP3 ADD MSTORE SWAP1 DUP3 MSTORE PUSH1 0x1 SWAP3 SWAP1 SWAP3 ADD SWAP2 ADD PUSH2 0x26D5 JUMP JUMPDEST POP POP POP POP SWAP1 POP SWAP1 JUMP JUMPDEST PUSH2 0x284E PUSH1 0x40 MLOAD DUP1 PUSH2 0x100 ADD PUSH1 0x40 MSTORE DUP1 PUSH1 0x0 DUP2 MSTORE PUSH1 0x20 ADD PUSH1 0x0 DUP2 MSTORE PUSH1 0x20 ADD PUSH1 0x0 ISZERO ISZERO DUP2 MSTORE PUSH1 0x20 ADD PUSH1 0x0 DUP2 MSTORE PUSH1 0x20 ADD PUSH1 0x0 ISZERO ISZERO DUP2 MSTORE PUSH1 0x20 ADD PUSH1 0x0 DUP2 MSTORE PUSH1 0x20 ADD PUSH1 0x0 DUP2 MSTORE PUSH1 0x20 ADD PUSH1 0x0 PUSH1 0x1 PUSH1 0x1 PUSH1 0xA0 SHL SUB AND DUP2 MSTORE POP SWAP1 JUMP JUMPDEST PUSH1 0x0 DUP3 DUP2 MSTORE PUSH1 0xA PUSH1 0x20 MSTORE PUSH1 0x40 SWAP1 KECCAK256 SLOAD PUSH2 0x28A9 JUMPI PUSH1 0x40 MLOAD PUSH3 0x461BCD PUSH1 0xE5 SHL DUP2 MSTORE PUSH1 0x20 PUSH1 0x4 DUP3 ADD MSTORE PUSH1 0x18 PUSH1 0x24 DUP3 ADD MSTORE PUSH32 0x446973706F73616C207761737465206E6F7420666F756E640000000000000000 PUSH1 0x44 DUP3 ADD MSTORE PUSH1 0x64 ADD PUSH2 0x822 JUMP JUMPDEST POP PUSH1 0x0 SWAP1 DUP2 MSTORE PUSH1 0xA PUSH1 0x20 SWAP1 DUP2 MSTORE PUSH1 0x40 SWAP2 DUP3 SWAP1 KECCAK256 DUP3 MLOAD PUSH2 0x100 DUP2 ADD DUP5 MSTORE DUP2 SLOAD DUP2 MSTORE PUSH1 0x1 DUP3 ADD SLOAD SWAP3 DUP2 ADD SWAP3 SWAP1 SWAP3 MSTORE PUSH1 0x2 DUP2 ADD SLOAD PUSH1 0xFF SWAP1 DUP2 AND ISZERO ISZERO SWAP4 DUP4 ADD SWAP4 SWAP1 SWAP4 MSTORE PUSH1 0x3 DUP2 ADD SLOAD PUSH1 0x60 DUP4 ADD MSTORE PUSH1 0x4 DUP2 ADD SLOAD SWAP1 SWAP3 AND ISZERO ISZERO PUSH1 0x80 DUP3 ADD MSTORE PUSH1 0x5 DUP3 ADD SLOAD PUSH1 0xA0 DUP3 ADD MSTORE PUSH1 0x6 DUP3 ADD SLOAD PUSH1 0xC0 DUP3 ADD MSTORE PUSH1 0x7 SWAP1 SWAP2 ADD SLOAD PUSH1 0x1 PUSH1 0x1 PUSH1 0xA0 SHL SUB AND PUSH1 0xE0 DUP3 ADD MSTORE SWAP1 JUMP JUMPDEST PUSH1 0x40 DUP1 MLOAD DUP1 DUP3 ADD DUP3 MSTORE PUSH1 0x10 DUP2 MSTORE PUSH16 0x181899199A1A9B1B9C1CB0B131B232B3 PUSH1 0x81 SHL PUSH1 0x20 DUP3 ADD MSTORE DUP2 MLOAD PUSH1 0x2A DUP1 DUP3 MSTORE PUSH1 0x60 DUP3 DUP2 ADD SWAP1 SWAP5 MSTORE PUSH1 0x1 PUSH1 0x1 PUSH1 0xA0 SHL SUB DUP6 AND SWAP3 SWAP2 PUSH1 0x0 SWAP2 PUSH1 0x20 DUP3 ADD DUP2 DUP1 CALLDATASIZE DUP4 CALLDATACOPY ADD SWAP1 POP POP SWAP1 POP PUSH1 0x3 PUSH1 0xFC SHL DUP2 PUSH1 0x0 DUP2 MLOAD DUP2 LT PUSH2 0x2997 JUMPI PUSH2 0x2997 PUSH2 0x3773 JUMP JUMPDEST PUSH1 0x20 ADD ADD SWAP1 PUSH1 0x1 PUSH1 0x1 PUSH1 0xF8 SHL SUB NOT AND SWAP1 DUP2 PUSH1 0x0 BYTE SWAP1 MSTORE8 POP PUSH1 0xF PUSH1 0xFB SHL DUP2 PUSH1 0x1 DUP2 MLOAD DUP2 LT PUSH2 0x29C6 JUMPI PUSH2 0x29C6 PUSH2 0x3773 JUMP JUMPDEST PUSH1 0x20 ADD ADD SWAP1 PUSH1 0x1 PUSH1 0x1 PUSH1 0xF8 SHL SUB NOT AND SWAP1 DUP2 PUSH1 0x0 BYTE SWAP1 MSTORE8 POP PUSH1 0x0 JUMPDEST PUSH1 0x14 DUP2 LT ISZERO PUSH2 0x2B0E JUMPI DUP3 PUSH1 0x4 DUP6 PUSH2 0x29F8 DUP5 PUSH1 0xC PUSH2 0x3B41 JUMP JUMPDEST PUSH1 0x20 DUP2 LT PUSH2 0x2A08 JUMPI PUSH2 0x2A08 PUSH2 0x3773 JUMP JUMPDEST BYTE PUSH1 0xF8 SHL PUSH1 0x1 PUSH1 0x1 PUSH1 0xF8 SHL SUB NOT AND SWAP1 SHR PUSH1 0xF8 SHR PUSH1 0xFF AND DUP2 MLOAD DUP2 LT PUSH2 0x2A2E JUMPI PUSH2 0x2A2E PUSH2 0x3773 JUMP JUMPDEST ADD PUSH1 0x20 ADD MLOAD PUSH1 0x1 PUSH1 0x1 PUSH1 0xF8 SHL SUB NOT AND DUP3 PUSH2 0x2A49 DUP4 PUSH1 0x2 PUSH2 0x3B54 JUMP JUMPDEST PUSH2 0x2A54 SWAP1 PUSH1 0x2 PUSH2 0x3B41 JUMP JUMPDEST DUP2 MLOAD DUP2 LT PUSH2 0x2A64 JUMPI PUSH2 0x2A64 PUSH2 0x3773 JUMP JUMPDEST PUSH1 0x20 ADD ADD SWAP1 PUSH1 0x1 PUSH1 0x1 PUSH1 0xF8 SHL SUB NOT AND SWAP1 DUP2 PUSH1 0x0 BYTE SWAP1 MSTORE8 POP DUP3 DUP5 PUSH2 0x2A88 DUP4 PUSH1 0xC PUSH2 0x3B41 JUMP JUMPDEST PUSH1 0x20 DUP2 LT PUSH2 0x2A98 JUMPI PUSH2 0x2A98 PUSH2 0x3773 JUMP JUMPDEST DUP3 MLOAD SWAP2 SWAP1 BYTE PUSH1 0xF AND SWAP1 DUP2 LT PUSH2 0x2AAF JUMPI PUSH2 0x2AAF PUSH2 0x3773 JUMP JUMPDEST ADD PUSH1 0x20 ADD MLOAD PUSH1 0x1 PUSH1 0x1 PUSH1 0xF8 SHL SUB NOT AND DUP3 PUSH2 0x2ACA DUP4 PUSH1 0x2 PUSH2 0x3B54 JUMP JUMPDEST PUSH2 0x2AD5 SWAP1 PUSH1 0x3 PUSH2 0x3B41 JUMP JUMPDEST DUP2 MLOAD DUP2 LT PUSH2 0x2AE5 JUMPI PUSH2 0x2AE5 PUSH2 0x3773 JUMP JUMPDEST PUSH1 0x20 ADD ADD SWAP1 PUSH1 0x1 PUSH1 0x1 PUSH1 0xF8 SHL SUB NOT AND SWAP1 DUP2 PUSH1 0x0 BYTE SWAP1 MSTORE8 POP DUP1 PUSH2 0x2B06 DUP2 PUSH2 0x37D9 JUMP JUMPDEST SWAP2 POP POP PUSH2 0x29E0 JUMP JUMPDEST POP SWAP5 SWAP4 POP POP POP POP JUMP JUMPDEST PUSH1 0x0 PUSH1 0x40 MLOAD DUP1 PUSH1 0x80 ADD PUSH1 0x40 MSTORE DUP1 TIMESTAMP DUP2 MSTORE PUSH1 0x20 ADD DUP5 DUP2 MSTORE PUSH1 0x20 ADD DUP4 DUP2 MSTORE PUSH1 0x20 ADD PUSH1 0x1 NUMBER PUSH2 0x2B43 SWAP2 SWAP1 PUSH2 0x3B6B JUMP JUMPDEST BLOCKHASH SWAP1 MSTORE PUSH1 0x0 DUP6 DUP2 MSTORE PUSH1 0x20 DUP2 DUP2 MSTORE PUSH1 0x40 DUP3 KECCAK256 DUP1 SLOAD PUSH1 0x1 DUP2 DUP2 ADD DUP4 SSTORE SWAP2 DUP5 MSTORE SWAP3 DUP3 SWAP1 KECCAK256 DUP5 MLOAD PUSH1 0x4 SWAP1 SWAP5 MUL ADD SWAP3 DUP4 SSTORE SWAP1 DUP4 ADD MLOAD SWAP3 SWAP4 POP DUP4 SWAP3 SWAP1 DUP3 ADD SWAP1 PUSH2 0x2B86 SWAP1 DUP3 PUSH2 0x38D2 JUMP JUMPDEST POP PUSH1 0x40 DUP3 ADD MLOAD PUSH1 0x2 DUP3 ADD SWAP1 PUSH2 0x2B9B SWAP1 DUP3 PUSH2 0x38D2 JUMP JUMPDEST POP PUSH1 0x60 DUP3 ADD MLOAD DUP2 PUSH1 0x3 ADD SSTORE POP POP PUSH32 0xAAA6D9D5E9BC4EA75D825A9574845A28FAFD39A9BF7DE88EB011817E6CAC3639 DUP5 DUP5 DUP5 PUSH1 0x40 MLOAD PUSH2 0x20E2 SWAP4 SWAP3 SWAP2 SWAP1 PUSH2 0x3B7E JUMP JUMPDEST PUSH1 0x60 DUP2 PUSH1 0x0 SUB PUSH2 0x2C02 JUMPI POP POP PUSH1 0x40 DUP1 MLOAD DUP1 DUP3 ADD SWAP1 SWAP2 MSTORE PUSH1 0x1 DUP2 MSTORE PUSH1 0x3 PUSH1 0xFC SHL PUSH1 0x20 DUP3 ADD MSTORE SWAP1 JUMP JUMPDEST DUP2 PUSH1 0x0 JUMPDEST DUP2 ISZERO PUSH2 0x2C2C JUMPI DUP1 PUSH2 0x2C16 DUP2 PUSH2 0x37D9 JUMP JUMPDEST SWAP2 POP PUSH2 0x2C25 SWAP1 POP PUSH1 0xA DUP4 PUSH2 0x3BC9 JUMP JUMPDEST SWAP2 POP PUSH2 0x2C06 JUMP JUMPDEST PUSH1 0x0 DUP2 PUSH8 0xFFFFFFFFFFFFFFFF DUP2 GT ISZERO PUSH2 0x2C47 JUMPI PUSH2 0x2C47 PUSH2 0x2D6F JUMP JUMPDEST PUSH1 0x40 MLOAD SWAP1 DUP1 DUP3 MSTORE DUP1 PUSH1 0x1F ADD PUSH1 0x1F NOT AND PUSH1 0x20 ADD DUP3 ADD PUSH1 0x40 MSTORE DUP1 ISZERO PUSH2 0x2C71 JUMPI PUSH1 0x20 DUP3 ADD DUP2 DUP1 CALLDATASIZE DUP4 CALLDATACOPY ADD SWAP1 POP JUMPDEST POP SWAP1 POP JUMPDEST DUP5 ISZERO PUSH2 0x2CDC JUMPI PUSH2 0x2C86 PUSH1 0x1 DUP4 PUSH2 0x3B6B JUMP JUMPDEST SWAP2 POP PUSH2 0x2C93 PUSH1 0xA DUP7 PUSH2 0x3BDD JUMP JUMPDEST PUSH2 0x2C9E SWAP1 PUSH1 0x30 PUSH2 0x3B41 JUMP JUMPDEST PUSH1 0xF8 SHL DUP2 DUP4 DUP2 MLOAD DUP2 LT PUSH2 0x2CB3 JUMPI PUSH2 0x2CB3 PUSH2 0x3773 JUMP JUMPDEST PUSH1 0x20 ADD ADD SWAP1 PUSH1 0x1 PUSH1 0x1 PUSH1 0xF8 SHL SUB NOT AND SWAP1 DUP2 PUSH1 0x0 BYTE SWAP1 MSTORE8 POP PUSH2 0x2CD5 PUSH1 0xA DUP7 PUSH2 0x3BC9 JUMP JUMPDEST SWAP5 POP PUSH2 0x2C75 JUMP JUMPDEST SWAP5 SWAP4 POP POP POP POP JUMP JUMPDEST DUP1 CALLDATALOAD PUSH1 0x1 PUSH1 0x1 PUSH1 0xA0 SHL SUB DUP2 AND DUP2 EQ PUSH2 0x2CFB JUMPI PUSH1 0x0 DUP1 REVERT JUMPDEST SWAP2 SWAP1 POP JUMP JUMPDEST PUSH1 0x0 DUP1 PUSH1 0x40 DUP4 DUP6 SUB SLT ISZERO PUSH2 0x2D13 JUMPI PUSH1 0x0 DUP1 REVERT JUMPDEST PUSH2 0x2D1C DUP4 PUSH2 0x2CE4 JUMP JUMPDEST SWAP5 PUSH1 0x20 SWAP4 SWAP1 SWAP4 ADD CALLDATALOAD SWAP4 POP POP POP JUMP JUMPDEST PUSH1 0x0 DUP1 PUSH1 0x40 DUP4 DUP6 SUB SLT ISZERO PUSH2 0x2D3D JUMPI PUSH1 0x0 DUP1 REVERT JUMPDEST DUP3 CALLDATALOAD SWAP2 POP PUSH2 0x2D4D PUSH1 0x20 DUP5 ADD PUSH2 0x2CE4 JUMP JUMPDEST SWAP1 POP SWAP3 POP SWAP3 SWAP1 POP JUMP JUMPDEST PUSH1 0x0 PUSH1 0x20 DUP3 DUP5 SUB SLT ISZERO PUSH2 0x2D68 JUMPI PUSH1 0x0 DUP1 REVERT JUMPDEST POP CALLDATALOAD SWAP2 SWAP1 POP JUMP JUMPDEST PUSH4 0x4E487B71 PUSH1 0xE0 SHL PUSH1 0x0 MSTORE PUSH1 0x41 PUSH1 0x4 MSTORE PUSH1 0x24 PUSH1 0x0 REVERT JUMPDEST PUSH1 0x0 DUP3 PUSH1 0x1F DUP4 ADD SLT PUSH2 0x2D96 JUMPI PUSH1 0x0 DUP1 REVERT JUMPDEST DUP2 CALLDATALOAD PUSH8 0xFFFFFFFFFFFFFFFF DUP1 DUP3 GT ISZERO PUSH2 0x2DB1 JUMPI PUSH2 0x2DB1 PUSH2 0x2D6F JUMP JUMPDEST PUSH1 0x40 MLOAD PUSH1 0x1F DUP4 ADD PUSH1 0x1F NOT SWAP1 DUP2 AND PUSH1 0x3F ADD AND DUP2 ADD SWAP1 DUP3 DUP3 GT DUP2 DUP4 LT OR ISZERO PUSH2 0x2DD9 JUMPI PUSH2 0x2DD9 PUSH2 0x2D6F JUMP JUMPDEST DUP2 PUSH1 0x40 MSTORE DUP4 DUP2 MSTORE DUP7 PUSH1 0x20 DUP6 DUP9 ADD ADD GT ISZERO PUSH2 0x2DF2 JUMPI PUSH1 0x0 DUP1 REVERT JUMPDEST DUP4 PUSH1 0x20 DUP8 ADD PUSH1 0x20 DUP4 ADD CALLDATACOPY PUSH1 0x0 PUSH1 0x20 DUP6 DUP4 ADD ADD MSTORE DUP1 SWAP5 POP POP POP POP POP SWAP3 SWAP2 POP POP JUMP JUMPDEST PUSH1 0x0 DUP1 PUSH1 0x0 DUP1 PUSH1 0x0 PUSH1 0xA0 DUP7 DUP9 SUB SLT ISZERO PUSH2 0x2E2A JUMPI PUSH1 0x0 DUP1 REVERT JUMPDEST DUP6 CALLDATALOAD PUSH8 0xFFFFFFFFFFFFFFFF DUP1 DUP3 GT ISZERO PUSH2 0x2E42 JUMPI PUSH1 0x0 DUP1 REVERT JUMPDEST PUSH2 0x2E4E DUP10 DUP4 DUP11 ADD PUSH2 0x2D85 JUMP JUMPDEST SWAP7 POP PUSH1 0x20 DUP9 ADD CALLDATALOAD SWAP2 POP DUP1 DUP3 GT ISZERO PUSH2 0x2E64 JUMPI PUSH1 0x0 DUP1 REVERT JUMPDEST PUSH2 0x2E70 DUP10 DUP4 DUP11 ADD PUSH2 0x2D85 JUMP JUMPDEST SWAP6 POP PUSH1 0x40 DUP9 ADD CALLDATALOAD SWAP2 POP DUP1 DUP3 GT ISZERO PUSH2 0x2E86 JUMPI PUSH1 0x0 DUP1 REVERT JUMPDEST PUSH2 0x2E92 DUP10 DUP4 DUP11 ADD PUSH2 0x2D85 JUMP JUMPDEST SWAP5 POP PUSH1 0x60 DUP9 ADD CALLDATALOAD SWAP2 POP DUP1 DUP3 GT ISZERO PUSH2 0x2EA8 JUMPI PUSH1 0x0 DUP1 REVERT JUMPDEST POP PUSH2 0x2EB5 DUP9 DUP3 DUP10 ADD PUSH2 0x2D85 JUMP JUMPDEST SWAP6 SWAP9 SWAP5 SWAP8 POP SWAP3 SWAP6 PUSH1 0x80 ADD CALLDATALOAD SWAP4 SWAP3 POP POP POP JUMP JUMPDEST PUSH1 0x20 DUP1 DUP3 MSTORE DUP3 MLOAD DUP3 DUP3 ADD DUP2 SWAP1 MSTORE PUSH1 0x0 SWAP2 SWAP1 DUP5 DUP3 ADD SWAP1 PUSH1 0x40 DUP6 ADD SWAP1 DUP5 JUMPDEST DUP2 DUP2 LT ISZERO PUSH2 0x2EFF JUMPI DUP4 MLOAD DUP4 MSTORE SWAP3 DUP5 ADD SWAP3 SWAP2 DUP5 ADD SWAP2 PUSH1 0x1 ADD PUSH2 0x2EE3 JUMP JUMPDEST POP SWAP1 SWAP7 SWAP6 POP POP POP POP POP POP JUMP JUMPDEST DUP1 CALLDATALOAD DUP1 ISZERO ISZERO DUP2 EQ PUSH2 0x2CFB JUMPI PUSH1 0x0 DUP1 REVERT JUMPDEST PUSH1 0x0 DUP1 PUSH1 0x0 DUP1 PUSH1 0x0 PUSH1 0xA0 DUP7 DUP9 SUB SLT ISZERO PUSH2 0x2F33 JUMPI PUSH1 0x0 DUP1 REVERT JUMPDEST DUP6 CALLDATALOAD SWAP5 POP PUSH2 0x2F43 PUSH1 0x20 DUP8 ADD PUSH2 0x2F0B JUMP JUMPDEST SWAP4 POP PUSH1 0x40 DUP7 ADD CALLDATALOAD SWAP3 POP PUSH2 0x2F58 PUSH1 0x60 DUP8 ADD PUSH2 0x2F0B JUMP JUMPDEST SWAP5 SWAP8 SWAP4 SWAP7 POP SWAP2 SWAP5 PUSH1 0x80 ADD CALLDATALOAD SWAP3 SWAP2 POP POP JUMP JUMPDEST PUSH1 0x0 JUMPDEST DUP4 DUP2 LT ISZERO PUSH2 0x2F84 JUMPI DUP2 DUP2 ADD MLOAD DUP4 DUP3 ADD MSTORE PUSH1 0x20 ADD PUSH2 0x2F6C JUMP JUMPDEST POP POP PUSH1 0x0 SWAP2 ADD MSTORE JUMP JUMPDEST PUSH1 0x0 DUP2 MLOAD DUP1 DUP5 MSTORE PUSH2 0x2FA5 DUP2 PUSH1 0x20 DUP7 ADD PUSH1 0x20 DUP7 ADD PUSH2 0x2F69 JUMP JUMPDEST PUSH1 0x1F ADD PUSH1 0x1F NOT AND SWAP3 SWAP1 SWAP3 ADD PUSH1 0x20 ADD SWAP3 SWAP2 POP POP JUMP JUMPDEST PUSH4 0x4E487B71 PUSH1 0xE0 SHL PUSH1 0x0 MSTORE PUSH1 0x21 PUSH1 0x4 MSTORE PUSH1 0x24 PUSH1 0x0 REVERT JUMPDEST PUSH1 0x5 DUP2 LT PUSH2 0x2FED JUMPI PUSH4 0x4E487B71 PUSH1 0xE0 SHL PUSH1 0x0 MSTORE PUSH1 0x21 PUSH1 0x4 MSTORE PUSH1 0x24 PUSH1 0x0 REVERT JUMPDEST SWAP1 MSTORE JUMP JUMPDEST DUP5 DUP2 MSTORE PUSH1 0x80 PUSH1 0x20 DUP3 ADD MSTORE PUSH1 0x0 PUSH2 0x300A PUSH1 0x80 DUP4 ADD DUP7 PUSH2 0x2F8D JUMP JUMPDEST SWAP1 POP PUSH2 0x3019 PUSH1 0x40 DUP4 ADD DUP6 PUSH2 0x2FCF JUMP JUMPDEST PUSH1 0x1 PUSH1 0x1 PUSH1 0xA0 SHL SUB SWAP3 SWAP1 SWAP3 AND PUSH1 0x60 SWAP2 SWAP1 SWAP2 ADD MSTORE SWAP4 SWAP3 POP POP POP JUMP JUMPDEST PUSH1 0x0 DUP1 PUSH1 0x0 DUP1 PUSH1 0x0 DUP1 PUSH1 0x0 PUSH1 0xE0 DUP9 DUP11 SUB SLT ISZERO PUSH2 0x304E JUMPI PUSH1 0x0 DUP1 REVERT JUMPDEST PUSH2 0x3057 DUP9 PUSH2 0x2F0B JUMP JUMPDEST SWAP7 POP PUSH1 0x20 DUP9 ADD CALLDATALOAD SWAP6 POP PUSH1 0x40 DUP9 ADD CALLDATALOAD SWAP5 POP PUSH2 0x3073 PUSH1 0x60 DUP10 ADD PUSH2 0x2F0B JUMP JUMPDEST SWAP4 POP PUSH2 0x3081 PUSH1 0x80 DUP10 ADD PUSH2 0x2F0B JUMP JUMPDEST SWAP3 POP PUSH2 0x308F PUSH1 0xA0 DUP10 ADD PUSH2 0x2F0B JUMP JUMPDEST SWAP2 POP PUSH1 0xC0 DUP9 ADD CALLDATALOAD SWAP1 POP SWAP3 SWAP6 SWAP9 SWAP2 SWAP5 SWAP8 POP SWAP3 SWAP6 POP JUMP JUMPDEST PUSH1 0x0 DUP1 PUSH1 0x0 DUP1 PUSH1 0x0 DUP1 PUSH1 0x0 DUP1 PUSH2 0x100 DUP10 DUP12 SUB SLT ISZERO PUSH2 0x30C1 JUMPI PUSH1 0x0 DUP1 REVERT JUMPDEST PUSH2 0x30CA DUP10 PUSH2 0x2F0B JUMP JUMPDEST SWAP8 POP PUSH1 0x20 DUP10 ADD CALLDATALOAD SWAP7 POP PUSH1 0x40 DUP10 ADD CALLDATALOAD SWAP6 POP PUSH2 0x30E6 PUSH1 0x60 DUP11 ADD PUSH2 0x2F0B JUMP JUMPDEST SWAP5 POP PUSH2 0x30F4 PUSH1 0x80 DUP11 ADD PUSH2 0x2F0B JUMP JUMPDEST SWAP4 POP PUSH2 0x3102 PUSH1 0xA0 DUP11 ADD PUSH2 0x2F0B JUMP JUMPDEST SWAP3 POP PUSH1 0xC0 DUP10 ADD CALLDATALOAD SWAP2 POP PUSH1 0xE0 DUP10 ADD CALLDATALOAD SWAP1 POP SWAP3 SWAP6 SWAP9 POP SWAP3 SWAP6 SWAP9 SWAP1 SWAP4 SWAP7 POP JUMP JUMPDEST DUP1 MLOAD DUP3 MSTORE PUSH1 0x0 PUSH1 0x20 DUP3 ADD MLOAD PUSH1 0x80 PUSH1 0x20 DUP6 ADD MSTORE PUSH2 0x313E PUSH1 0x80 DUP6 ADD DUP3 PUSH2 0x2F8D JUMP JUMPDEST SWAP1 POP PUSH1 0x40 DUP4 ADD MLOAD PUSH2 0x3152 PUSH1 0x40 DUP7 ADD DUP3 PUSH2 0x2FCF JUMP JUMPDEST POP PUSH1 0x60 SWAP3 DUP4 ADD MLOAD PUSH1 0x1 PUSH1 0x1 PUSH1 0xA0 SHL SUB AND SWAP4 SWAP1 SWAP3 ADD SWAP3 SWAP1 SWAP3 MSTORE SWAP2 SWAP1 POP JUMP JUMPDEST PUSH1 0x20 DUP2 MSTORE PUSH1 0x0 PUSH2 0x1E30 PUSH1 0x20 DUP4 ADD DUP5 PUSH2 0x311F JUMP JUMPDEST PUSH1 0x0 DUP1 PUSH1 0x0 DUP1 PUSH1 0x0 DUP1 PUSH1 0xC0 DUP8 DUP10 SUB SLT ISZERO PUSH2 0x319B JUMPI PUSH1 0x0 DUP1 REVERT JUMPDEST DUP7 CALLDATALOAD SWAP6 POP PUSH2 0x31AB PUSH1 0x20 DUP9 ADD PUSH2 0x2F0B JUMP JUMPDEST SWAP5 POP PUSH1 0x40 DUP8 ADD CALLDATALOAD SWAP4 POP PUSH2 0x31C0 PUSH1 0x60 DUP9 ADD PUSH2 0x2F0B JUMP JUMPDEST SWAP3 POP PUSH1 0x80 DUP8 ADD CALLDATALOAD SWAP2 POP PUSH1 0xA0 DUP8 ADD CALLDATALOAD SWAP1 POP SWAP3 SWAP6 POP SWAP3 SWAP6 POP SWAP3 SWAP6 JUMP JUMPDEST PUSH1 0x0 PUSH1 0x20 DUP1 DUP4 ADD DUP2 DUP5 MSTORE DUP1 DUP6 MLOAD DUP1 DUP4 MSTORE PUSH1 0x40 SWAP3 POP DUP3 DUP7 ADD SWAP2 POP DUP3 DUP2 PUSH1 0x5 SHL DUP8 ADD ADD DUP5 DUP9 ADD PUSH1 0x0 JUMPDEST DUP4 DUP2 LT ISZERO PUSH2 0x3268 JUMPI PUSH1 0x3F NOT DUP10 DUP5 SUB ADD DUP6 MSTORE DUP2 MLOAD PUSH1 0x80 DUP2 MLOAD DUP6 MSTORE DUP9 DUP3 ADD MLOAD DUP2 DUP11 DUP8 ADD MSTORE PUSH2 0x322F DUP3 DUP8 ADD DUP3 PUSH2 0x2F8D JUMP JUMPDEST SWAP2 POP POP DUP8 DUP3 ADD MLOAD DUP6 DUP3 SUB DUP10 DUP8 ADD MSTORE PUSH2 0x3247 DUP3 DUP3 PUSH2 0x2F8D JUMP JUMPDEST PUSH1 0x60 SWAP4 DUP5 ADD MLOAD SWAP7 SWAP1 SWAP4 ADD SWAP6 SWAP1 SWAP6 MSTORE POP SWAP5 DUP8 ADD SWAP5 SWAP3 POP SWAP1 DUP7 ADD SWAP1 PUSH1 0x1 ADD PUSH2 0x3201 JUMP JUMPDEST POP SWAP1 SWAP9 SWAP8 POP POP POP POP POP POP POP POP JUMP JUMPDEST PUSH1 0x0 DUP1 PUSH1 0x0 DUP1 PUSH1 0x0 DUP1 PUSH1 0xC0 DUP8 DUP10 SUB SLT ISZERO PUSH2 0x328F JUMPI PUSH1 0x0 DUP1 REVERT JUMPDEST DUP7 CALLDATALOAD PUSH8 0xFFFFFFFFFFFFFFFF DUP1 DUP3 GT ISZERO PUSH2 0x32A7 JUMPI PUSH1 0x0 DUP1 REVERT JUMPDEST PUSH2 0x32B3 DUP11 DUP4 DUP12 ADD PUSH2 0x2D85 JUMP JUMPDEST SWAP8 POP PUSH1 0x20 DUP10 ADD CALLDATALOAD SWAP2 POP DUP1 DUP3 GT ISZERO PUSH2 0x32C9 JUMPI PUSH1 0x0 DUP1 REVERT JUMPDEST PUSH2 0x32D5 DUP11 DUP4 DUP12 ADD PUSH2 0x2D85 JUMP JUMPDEST SWAP7 POP PUSH1 0x40 DUP10 ADD CALLDATALOAD SWAP2 POP DUP1 DUP3 GT ISZERO PUSH2 0x32EB JUMPI PUSH1 0x0 DUP1 REVERT JUMPDEST PUSH2 0x32F7 DUP11 DUP4 DUP12 ADD PUSH2 0x2D85 JUMP JUMPDEST SWAP6 POP PUSH1 0x60 DUP10 ADD CALLDATALOAD SWAP2 POP DUP1 DUP3 GT ISZERO PUSH2 0x330D JUMPI PUSH1 0x0 DUP1 REVERT JUMPDEST POP PUSH2 0x331A DUP10 DUP3 DUP11 ADD PUSH2 0x2D85 JUMP JUMPDEST SWAP4 POP POP PUSH1 0x80 DUP8 ADD CALLDATALOAD SWAP2 POP PUSH1 0xA0 DUP8 ADD CALLDATALOAD SWAP1 POP SWAP3 SWAP6 POP SWAP3 SWAP6 POP SWAP3 SWAP6 JUMP JUMPDEST PUSH1 0x20 DUP2 MSTORE DUP2 MLOAD PUSH1 0x20 DUP3 ADD MSTORE PUSH1 0x0 PUSH1 0x20 DUP4 ADD MLOAD PUSH2 0x100 DUP1 PUSH1 0x40 DUP6 ADD MSTORE PUSH2 0x335E PUSH2 0x120 DUP6 ADD DUP4 PUSH2 0x2F8D JUMP JUMPDEST SWAP2 POP PUSH1 0x40 DUP6 ADD MLOAD PUSH1 0x1F NOT DUP1 DUP7 DUP6 SUB ADD PUSH1 0x60 DUP8 ADD MSTORE PUSH2 0x337C DUP5 DUP4 PUSH2 0x2F8D JUMP JUMPDEST SWAP4 POP PUSH1 0x60 DUP8 ADD MLOAD SWAP2 POP DUP1 DUP7 DUP6 SUB ADD PUSH1 0x80 DUP8 ADD MSTORE PUSH2 0x3399 DUP5 DUP4 PUSH2 0x2F8D JUMP JUMPDEST SWAP4 POP PUSH1 0x80 DUP8 ADD MLOAD SWAP2 POP DUP1 DUP7 DUP6 SUB ADD PUSH1 0xA0 DUP8 ADD MSTORE POP PUSH2 0x33B7 DUP4 DUP3 PUSH2 0x2F8D JUMP JUMPDEST SWAP3 POP POP PUSH1 0xA0 DUP6 ADD MLOAD PUSH1 0xC0 DUP6 ADD MSTORE PUSH1 0xC0 DUP6 ADD MLOAD PUSH1 0xE0 DUP6 ADD MSTORE PUSH1 0xE0 DUP6 ADD MLOAD PUSH2 0x33E7 DUP3 DUP7 ADD DUP3 PUSH1 0x1 PUSH1 0x1 PUSH1 0xA0 SHL SUB AND SWAP1 MSTORE JUMP JUMPDEST POP SWAP1 SWAP5 SWAP4 POP POP POP POP JUMP JUMPDEST PUSH1 0x20 DUP1 DUP3 MSTORE DUP3 MLOAD DUP3 DUP3 ADD DUP2 SWAP1 MSTORE PUSH1 0x0 SWAP2 SWAP1 DUP5 DUP3 ADD SWAP1 PUSH1 0x40 DUP6 ADD SWAP1 DUP5 JUMPDEST DUP2 DUP2 LT ISZERO PUSH2 0x2EFF JUMPI DUP4 MLOAD PUSH1 0x1 PUSH1 0x1 PUSH1 0xA0 SHL SUB AND DUP4 MSTORE SWAP3 DUP5 ADD SWAP3 SWAP2 DUP5 ADD SWAP2 PUSH1 0x1 ADD PUSH2 0x340D JUMP JUMPDEST PUSH1 0x0 DUP1 PUSH1 0x0 PUSH1 0x60 DUP5 DUP7 SUB SLT ISZERO PUSH2 0x3447 JUMPI PUSH1 0x0 DUP1 REVERT JUMPDEST DUP4 CALLDATALOAD SWAP3 POP PUSH1 0x20 DUP5 ADD CALLDATALOAD PUSH8 0xFFFFFFFFFFFFFFFF DUP2 GT ISZERO PUSH2 0x3465 JUMPI PUSH1 0x0 DUP1 REVERT JUMPDEST PUSH2 0x3471 DUP7 DUP3 DUP8 ADD PUSH2 0x2D85 JUMP JUMPDEST SWAP3 POP POP PUSH2 0x3480 PUSH1 0x40 DUP6 ADD PUSH2 0x2F0B JUMP JUMPDEST SWAP1 POP SWAP3 POP SWAP3 POP SWAP3 JUMP JUMPDEST DUP2 MLOAD DUP2 MSTORE PUSH1 0x20 DUP1 DUP4 ADD MLOAD PUSH2 0x140 DUP4 ADD SWAP2 PUSH2 0x34A6 SWAP1 DUP5 ADD DUP3 ISZERO ISZERO SWAP1 MSTORE JUMP JUMPDEST POP PUSH1 0x40 DUP4 ADD MLOAD PUSH1 0x40 DUP4 ADD MSTORE PUSH1 0x60 DUP4 ADD MLOAD PUSH1 0x60 DUP4 ADD MSTORE PUSH1 0x80 DUP4 ADD MLOAD PUSH2 0x34CE PUSH1 0x80 DUP5 ADD DUP3 ISZERO ISZERO SWAP1 MSTORE JUMP JUMPDEST POP PUSH1 0xA0 DUP4 ADD MLOAD PUSH2 0x34E2 PUSH1 0xA0 DUP5 ADD DUP3 ISZERO ISZERO SWAP1 MSTORE JUMP JUMPDEST POP PUSH1 0xC0 DUP4 ADD MLOAD PUSH2 0x34F6 PUSH1 0xC0 DUP5 ADD DUP3 ISZERO ISZERO SWAP1 MSTORE JUMP JUMPDEST POP PUSH1 0xE0 DUP4 DUP2 ADD MLOAD SWAP1 DUP4 ADD MSTORE PUSH2 0x100 DUP1 DUP5 ADD MLOAD SWAP1 DUP4 ADD MSTORE PUSH2 0x120 SWAP3 DUP4 ADD MLOAD PUSH1 0x1 PUSH1 0x1 PUSH1 0xA0 SHL SUB AND SWAP3 SWAP1 SWAP2 ADD SWAP2 SWAP1 SWAP2 MSTORE SWAP1 JUMP JUMPDEST PUSH1 0x0 PUSH2 0x100 DUP11 DUP4 MSTORE DUP1 PUSH1 0x20 DUP5 ADD MSTORE PUSH2 0x3541 DUP2 DUP5 ADD DUP12 PUSH2 0x2F8D JUMP JUMPDEST SWAP1 POP DUP3 DUP2 SUB PUSH1 0x40 DUP5 ADD MSTORE PUSH2 0x3555 DUP2 DUP11 PUSH2 0x2F8D JUMP JUMPDEST SWAP1 POP DUP3 DUP2 SUB PUSH1 0x60 DUP5 ADD MSTORE PUSH2 0x3569 DUP2 DUP10 PUSH2 0x2F8D JUMP JUMPDEST SWAP1 POP DUP3 DUP2 SUB PUSH1 0x80 DUP5 ADD MSTORE PUSH2 0x357D DUP2 DUP9 PUSH2 0x2F8D JUMP JUMPDEST PUSH1 0xA0 DUP5 ADD SWAP7 SWAP1 SWAP7 MSTORE POP POP PUSH1 0xC0 DUP2 ADD SWAP3 SWAP1 SWAP3 MSTORE PUSH1 0x1 PUSH1 0x1 PUSH1 0xA0 SHL SUB AND PUSH1 0xE0 SWAP1 SWAP2 ADD MSTORE SWAP6 SWAP5 POP POP POP POP POP JUMP JUMPDEST PUSH1 0x0 DUP1 PUSH1 0x40 DUP4 DUP6 SUB SLT ISZERO PUSH2 0x35BA JUMPI PUSH1 0x0 DUP1 REVERT JUMPDEST DUP3 CALLDATALOAD PUSH8 0xFFFFFFFFFFFFFFFF DUP2 GT ISZERO PUSH2 0x35D1 JUMPI PUSH1 0x0 DUP1 REVERT JUMPDEST PUSH2 0x35DD DUP6 DUP3 DUP7 ADD PUSH2 0x2D85 JUMP JUMPDEST SWAP3 POP POP PUSH1 0x20 DUP4 ADD CALLDATALOAD PUSH1 0x5 DUP2 LT PUSH2 0x35F2 JUMPI PUSH1 0x0 DUP1 REVERT JUMPDEST DUP1 SWAP2 POP POP SWAP3 POP SWAP3 SWAP1 POP JUMP JUMPDEST PUSH1 0x0 PUSH1 0x20 DUP1 DUP4 ADD DUP2 DUP5 MSTORE DUP1 DUP6 MLOAD DUP1 DUP4 MSTORE PUSH1 0x40 DUP7 ADD SWAP2 POP PUSH1 0x40 DUP2 PUSH1 0x5 SHL DUP8 ADD ADD SWAP3 POP DUP4 DUP8 ADD PUSH1 0x0 JUMPDEST DUP3 DUP2 LT ISZERO PUSH2 0x3652 JUMPI PUSH1 0x3F NOT DUP9 DUP7 SUB ADD DUP5 MSTORE PUSH2 0x3640 DUP6 DUP4 MLOAD PUSH2 0x311F JUMP JUMPDEST SWAP5 POP SWAP3 DUP6 ADD SWAP3 SWAP1 DUP6 ADD SWAP1 PUSH1 0x1 ADD PUSH2 0x3624 JUMP JUMPDEST POP SWAP3 SWAP8 SWAP7 POP POP POP POP POP POP POP JUMP JUMPDEST PUSH1 0x20 DUP1 DUP3 MSTORE PUSH1 0x1B SWAP1 DUP3 ADD MSTORE PUSH32 0x596F7520646F6E2774206F776E207468697320666163696C6974790000000000 PUSH1 0x40 DUP3 ADD MSTORE PUSH1 0x60 ADD SWAP1 JUMP JUMPDEST PUSH32 0x5573657220617574686F72697A6174696F6E207265766F6B65643A2000000000 DUP2 MSTORE PUSH1 0x0 DUP3 MLOAD PUSH2 0x36CE DUP2 PUSH1 0x1C DUP6 ADD PUSH1 0x20 DUP8 ADD PUSH2 0x2F69 JUMP JUMPDEST SWAP2 SWAP1 SWAP2 ADD PUSH1 0x1C ADD SWAP3 SWAP2 POP POP JUMP JUMPDEST PUSH1 0x20 DUP1 DUP3 MSTORE PUSH1 0x2F SWAP1 DUP3 ADD MSTORE PUSH32 0x596F7520646F6E2774206F776E207468697320666163696C697479206F722069 PUSH1 0x40 DUP3 ADD MSTORE PUSH15 0x1D08191BD95CDB89DD08195E1A5CDD PUSH1 0x8A SHL PUSH1 0x60 DUP3 ADD MSTORE PUSH1 0x80 ADD SWAP1 JUMP JUMPDEST PUSH1 0x20 DUP1 DUP3 MSTORE PUSH1 0x29 SWAP1 DUP3 ADD MSTORE PUSH32 0x4E6F20666163696C6974696573207265676973746572656420666F7220746869 PUSH1 0x40 DUP3 ADD MSTORE PUSH9 0x732061646472657373 PUSH1 0xB8 SHL PUSH1 0x60 DUP3 ADD MSTORE PUSH1 0x80 ADD SWAP1 JUMP JUMPDEST PUSH4 0x4E487B71 PUSH1 0xE0 SHL PUSH1 0x0 MSTORE PUSH1 0x32 PUSH1 0x4 MSTORE PUSH1 0x24 PUSH1 0x0 REVERT JUMPDEST PUSH1 0x1 DUP2 DUP2 SHR SWAP1 DUP3 AND DUP1 PUSH2 0x379D JUMPI PUSH1 0x7F DUP3 AND SWAP2 POP JUMPDEST PUSH1 0x20 DUP3 LT DUP2 SUB PUSH2 0x37BD JUMPI PUSH4 0x4E487B71 PUSH1 0xE0 SHL PUSH1 0x0 MSTORE PUSH1 0x22 PUSH1 0x4 MSTORE PUSH1 0x24 PUSH1 0x0 REVERT JUMPDEST POP SWAP2 SWAP1 POP JUMP JUMPDEST PUSH4 0x4E487B71 PUSH1 0xE0 SHL PUSH1 0x0 MSTORE PUSH1 0x11 PUSH1 0x4 MSTORE PUSH1 0x24 PUSH1 0x0 REVERT JUMPDEST PUSH1 0x0 PUSH1 0x1 DUP3 ADD PUSH2 0x37EB JUMPI PUSH2 0x37EB PUSH2 0x37C3 JUMP JUMPDEST POP PUSH1 0x1 ADD SWAP1 JUMP JUMPDEST PUSH32 0x486F73706974616C207761737465207265676973746572656420776974682049 DUP2 MSTORE PUSH3 0x221D1 PUSH1 0xED SHL PUSH1 0x20 DUP3 ADD MSTORE PUSH1 0x0 DUP3 MLOAD PUSH2 0x3836 DUP2 PUSH1 0x23 DUP6 ADD PUSH1 0x20 DUP8 ADD PUSH2 0x2F69 JUMP JUMPDEST SWAP2 SWAP1 SWAP2 ADD PUSH1 0x23 ADD SWAP3 SWAP2 POP POP JUMP JUMPDEST PUSH32 0x446973706F73616C207761737465207265676973746572656420776974682049 DUP2 MSTORE PUSH3 0x221D1 PUSH1 0xED SHL PUSH1 0x20 DUP3 ADD MSTORE PUSH1 0x0 DUP3 MLOAD PUSH2 0x3836 DUP2 PUSH1 0x23 DUP6 ADD PUSH1 0x20 DUP8 ADD PUSH2 0x2F69 JUMP JUMPDEST PUSH1 0x1F DUP3 GT ISZERO PUSH2 0x38CD JUMPI PUSH1 0x0 DUP2 DUP2 MSTORE PUSH1 0x20 DUP2 KECCAK256 PUSH1 0x1F DUP6 ADD PUSH1 0x5 SHR DUP2 ADD PUSH1 0x20 DUP7 LT ISZERO PUSH2 0x38AE JUMPI POP DUP1 JUMPDEST PUSH1 0x1F DUP6 ADD PUSH1 0x5 SHR DUP3 ADD SWAP2 POP JUMPDEST DUP2 DUP2 LT ISZERO PUSH2 0xAA5 JUMPI DUP3 DUP2 SSTORE PUSH1 0x1 ADD PUSH2 0x38BA JUMP JUMPDEST POP POP POP JUMP JUMPDEST DUP2 MLOAD PUSH8 0xFFFFFFFFFFFFFFFF DUP2 GT ISZERO PUSH2 0x38EC JUMPI PUSH2 0x38EC PUSH2 0x2D6F JUMP JUMPDEST PUSH2 0x3900 DUP2 PUSH2 0x38FA DUP5 SLOAD PUSH2 0x3789 JUMP JUMPDEST DUP5 PUSH2 0x3887 JUMP JUMPDEST PUSH1 0x20 DUP1 PUSH1 0x1F DUP4 GT PUSH1 0x1 DUP2 EQ PUSH2 0x3935 JUMPI PUSH1 0x0 DUP5 ISZERO PUSH2 0x391D JUMPI POP DUP6 DUP4 ADD MLOAD JUMPDEST PUSH1 0x0 NOT PUSH1 0x3 DUP7 SWAP1 SHL SHR NOT AND PUSH1 0x1 DUP6 SWAP1 SHL OR DUP6 SSTORE PUSH2 0xAA5 JUMP JUMPDEST PUSH1 0x0 DUP6 DUP2 MSTORE PUSH1 0x20 DUP2 KECCAK256 PUSH1 0x1F NOT DUP7 AND SWAP2 JUMPDEST DUP3 DUP2 LT ISZERO PUSH2 0x3964 JUMPI DUP9 DUP7 ADD MLOAD DUP3 SSTORE SWAP5 DUP5 ADD SWAP5 PUSH1 0x1 SWAP1 SWAP2 ADD SWAP1 DUP5 ADD PUSH2 0x3945 JUMP JUMPDEST POP DUP6 DUP3 LT ISZERO PUSH2 0x3982 JUMPI DUP8 DUP6 ADD MLOAD PUSH1 0x0 NOT PUSH1 0x3 DUP9 SWAP1 SHL PUSH1 0xF8 AND SHR NOT AND DUP2 SSTORE JUMPDEST POP POP POP POP POP PUSH1 0x1 SWAP1 DUP2 SHL ADD SWAP1 SSTORE POP JUMP JUMPDEST PUSH32 0x5472616E73706F72742077617374652072656769737465726564207769746820 DUP2 MSTORE PUSH4 0x24A21D1 PUSH1 0xE5 SHL PUSH1 0x20 DUP3 ADD MSTORE PUSH1 0x0 DUP3 MLOAD PUSH2 0x39D7 DUP2 PUSH1 0x24 DUP6 ADD PUSH1 0x20 DUP8 ADD PUSH2 0x2F69 JUMP JUMPDEST SWAP2 SWAP1 SWAP2 ADD PUSH1 0x24 ADD SWAP3 SWAP2 POP POP JUMP JUMPDEST DUP5 DUP2 MSTORE PUSH1 0x80 PUSH1 0x20 DUP3 ADD MSTORE PUSH1 0x0 PUSH2 0x39FD PUSH1 0x80 DUP4 ADD DUP7 PUSH2 0x2F8D JUMP JUMPDEST PUSH1 0x40 DUP4 ADD SWAP5 SWAP1 SWAP5 MSTORE POP PUSH1 0x60 ADD MSTORE SWAP3 SWAP2 POP POP JUMP JUMPDEST PUSH17 0x2AB9B2B91030BABA3437B934BD32B21D1 PUSH1 0x7D SHL DUP2 MSTORE PUSH1 0x0 DUP3 MLOAD PUSH2 0x3A3C DUP2 PUSH1 0x11 DUP6 ADD PUSH1 0x20 DUP8 ADD PUSH2 0x2F69 JUMP JUMPDEST SWAP2 SWAP1 SWAP2 ADD PUSH1 0x11 ADD SWAP3 SWAP2 POP POP JUMP JUMPDEST PUSH1 0x0 DUP3 MLOAD PUSH2 0x3A5B DUP2 DUP5 PUSH1 0x20 DUP8 ADD PUSH2 0x2F69 JUMP JUMPDEST SWAP2 SWAP1 SWAP2 ADD SWAP3 SWAP2 POP POP JUMP JUMPDEST PUSH32 0x466163696C697479206361706162696C69747920757064617465643A20000000 DUP2 MSTORE PUSH1 0x0 DUP4 MLOAD PUSH2 0x3A9D DUP2 PUSH1 0x1D DUP6 ADD PUSH1 0x20 DUP9 ADD PUSH2 0x2F69 JUMP JUMPDEST PUSH8 0x1039B2BA103A379 PUSH1 0xC5 SHL PUSH1 0x1D SWAP2 DUP5 ADD SWAP2 DUP3 ADD MSTORE DUP4 MLOAD PUSH2 0x3AC5 DUP2 PUSH1 0x25 DUP5 ADD PUSH1 0x20 DUP9 ADD PUSH2 0x2F69 JUMP JUMPDEST ADD PUSH1 0x25 ADD SWAP5 SWAP4 POP POP POP POP JUMP JUMPDEST DUP4 DUP2 MSTORE PUSH1 0x60 PUSH1 0x20 DUP3 ADD MSTORE PUSH1 0x0 PUSH2 0x3AEA PUSH1 0x60 DUP4 ADD DUP6 PUSH2 0x2F8D JUMP JUMPDEST SWAP1 POP DUP3 ISZERO ISZERO PUSH1 0x40 DUP4 ADD MSTORE SWAP5 SWAP4 POP POP POP POP JUMP JUMPDEST PUSH32 0x466163696C69747920726567697374657265642077697468206E616D653A2000 DUP2 MSTORE PUSH1 0x0 DUP3 MLOAD PUSH2 0x3B34 DUP2 PUSH1 0x1F DUP6 ADD PUSH1 0x20 DUP8 ADD PUSH2 0x2F69 JUMP JUMPDEST SWAP2 SWAP1 SWAP2 ADD PUSH1 0x1F ADD SWAP3 SWAP2 POP POP JUMP JUMPDEST DUP1 DUP3 ADD DUP1 DUP3 GT ISZERO PUSH2 0x26A0 JUMPI PUSH2 0x26A0 PUSH2 0x37C3 JUMP JUMPDEST DUP1 DUP3 MUL DUP2 ISZERO DUP3 DUP3 DIV DUP5 EQ OR PUSH2 0x26A0 JUMPI PUSH2 0x26A0 PUSH2 0x37C3 JUMP JUMPDEST DUP2 DUP2 SUB DUP2 DUP2 GT ISZERO PUSH2 0x26A0 JUMPI PUSH2 0x26A0 PUSH2 0x37C3 JUMP JUMPDEST DUP4 DUP2 MSTORE PUSH1 0x60 PUSH1 0x20 DUP3 ADD MSTORE PUSH1 0x0 PUSH2 0x3B97 PUSH1 0x60 DUP4 ADD DUP6 PUSH2 0x2F8D JUMP JUMPDEST DUP3 DUP2 SUB PUSH1 0x40 DUP5 ADD MSTORE PUSH2 0x3BA9 DUP2 DUP6 PUSH2 0x2F8D JUMP JUMPDEST SWAP7 SWAP6 POP POP POP POP POP POP JUMP JUMPDEST PUSH4 0x4E487B71 PUSH1 0xE0 SHL PUSH1 0x0 MSTORE PUSH1 0x12 PUSH1 0x4 MSTORE PUSH1 0x24 PUSH1 0x0 REVERT JUMPDEST PUSH1 0x0 DUP3 PUSH2 0x3BD8 JUMPI PUSH2 0x3BD8 PUSH2 0x3BB3 JUMP JUMPDEST POP DIV SWAP1 JUMP JUMPDEST PUSH1 0x0 DUP3 PUSH2 0x3BEC JUMPI PUSH2 0x3BEC PUSH2 0x3BB3 JUMP JUMPDEST POP MOD SWAP1 JUMP INVALID COINBASE PUSH13 0x6C20666163696C697479206361 PUSH17 0x6162696C697469657320656E61626C6564 0xC6 0x4D DELEGATECALL 0xB4 0x4F 0x49 0x27 0xD8 PC PUSH3 0x9D0899 0xD8 0xC0 BLOCKHASH SWAP2 0xC3 0xC2 PREVRANDAO MUL 0xCE PUSH18 0xE73F11B15BB92AC640A26469706673582212 KECCAK256 PUSH32 0xD3D90AFFB91CBA5CDCB25E03FAFDD48D64E6AC0A4C762E5F5B92A3EDEF2B7664 PUSH20 0x6F6C634300081300330000000000000000000000 "},"methodIdentifiers":{"authorizeFacilityUser(uint256,address)":"cb405cad","authorizedUsers(uint256,address)":"a5663a9f","canFacilityDisposeWaste(uint256)":"f0671049","canFacilitySegregateWaste(uint256)":"5653bc67","canFacilityTransportWaste(uint256)":"9209d4d6","disposalWastes(uint256)":"fcbcbf42","disposalWastesByAddress(address,uint256)":"68f07d97","enableAllCapabilities(uint256)":"11d76f6c","facilitiesByAddress(address,uint256)":"978b33e0","facilitiesById(uint256)":"36498dff","facilityCapabilities(uint256)":"13c38bb5","getAuthorizedUsers(uint256)":"d35e0586","getDisposalWasteById(uint256)":"fafa622a","getDisposalWastes()":"1ea84ac7","getFacilities()":"fa71bbf9","getFacility(uint256)":"8698fb32","getFacilityHistory(uint256)":"a55677cd","getHospitalWasteById(uint256)":"e4962bff","getHospitalWastes()":"3eeef27a","getTransportWasteById(uint256)":"aeb13f47","getTransportWastes()":"5d2daf4e","hospitalWastes(uint256)":"4669d64a","hospitalWastesByAddress(address,uint256)":"1220b1e5","isAuthorizedForFacility(uint256,address)":"f6e2fada","owner()":"8da5cb5b","ownsValidFacility(uint256)":"d2ad9a53","registerDisposalWaste(uint256,bool,uint256,bool,uint256)":"2d448e39","registerDisposalWaste(uint256,bool,uint256,bool,uint256,uint256)":"a2443e1f","registerFacility(string,uint8)":"f6048bd0","registerHospitalWaste(bool,uint256,uint256,bool,bool,bool,uint256)":"5b0bd7be","registerHospitalWaste(bool,uint256,uint256,bool,bool,bool,uint256,uint256)":"6f82277b","registerTransportWaste(string,string,string,string,uint256)":"1b5be013","registerTransportWaste(string,string,string,string,uint256,uint256)":"aa3bcaf8","revokeFacilityAuthorization(uint256,address)":"02e24186","setFacilityCapability(uint256,string,bool)":"d3ae7cfe","transportWastes(uint256)":"e60ff966","transportWastesByAddress(address,uint256)":"015d2990"}}}}}