{
  "_format": "hh-sol-artifact-1",
  "contractName": "WasteManagement",
  "sourceName": "contracts/WasteManagement.sol",
  "abi": [
    {
      "inputs": [],
      "stateMutability": "nonpayable",
      "type": "constructor"
    },
    {
      "anonymous": false,
      "inputs": [
        {
          "indexed": false,
          "internalType": "uint256",
          "name": "wasteId",
          "type": "uint256"
        },
        {
          "indexed": false,
          "internalType": "uint256",
          "name": "disposalInfo",
          "type": "uint256"
        },
        {
          "indexed": false,
          "internalType": "uint256",
          "name": "transportWasteId",
          "type": "uint256"
        },
        {
          "indexed": false,
          "internalType": "uint256",
          "name": "facilityId",
          "type": "uint256"
        }
      ],
      "name": "DisposalWasteRegistered",
      "type": "event"
    },
    {
      "anonymous": false,
      "inputs": [
        {
          "indexed": false,
          "internalType": "uint256",
          "name": "facilityId",
          "type": "uint256"
        },
        {
          "indexed": false,
          "internalType": "string",
          "name": "capability",
          "type": "string"
        },
        {
          "indexed": false,
          "internalType": "bool",
          "name": "enabled",
          "type": "bool"
        }
      ],
      "name": "FacilityCapabilityUpdated",
      "type": "event"
    },
    {
      "anonymous": false,
      "inputs": [
        {
          "indexed": false,
          "internalType": "uint256",
          "name": "facilityId",
          "type": "uint256"
        },
        {
          "indexed": false,
          "internalType": "string",
          "name": "name",
          "type": "string"
        },
        {
          "indexed": false,
          "internalType": "enum WasteManagement.FacilityType",
          "name": "facilityType",
          "type": "uint8"
        },
        {
          "indexed": false,
          "internalType": "address",
          "name": "owner",
          "type": "address"
        }
      ],
      "name": "FacilityRegistered",
      "type": "event"
    },
    {
      "anonymous": false,
      "inputs": [
        {
          "indexed": false,
          "internalType": "uint256",
          "name": "facilityId",
          "type": "uint256"
        },
        {
          "indexed": false,
          "internalType": "string",
          "name": "action",
          "type": "string"
        },
        {
          "indexed": false,
          "internalType": "string",
          "name": "details",
          "type": "string"
        }
      ],
      "name": "HistoryAdded",
      "type": "event"
    },
    {
      "anonymous": false,
      "inputs": [
        {
          "indexed": false,
          "internalType": "uint256",
          "name": "wasteId",
          "type": "uint256"
        },
        {
          "indexed": false,
          "internalType": "bool",
          "name": "isSegregationDone",
          "type": "bool"
        },
        {
          "indexed": false,
          "internalType": "uint256",
          "name": "facilityId",
          "type": "uint256"
        }
      ],
      "name": "HospitalWasteRegistered",
      "type": "event"
    },
    {
      "anonymous": false,
      "inputs": [
        {
          "indexed": false,
          "internalType": "uint256",
          "name": "wasteId",
          "type": "uint256"
        },
        {
          "indexed": false,
          "internalType": "string",
          "name": "vehicleNumber",
          "type": "string"
        },
        {
          "indexed": false,
          "internalType": "uint256",
          "name": "hospitalWasteId",
          "type": "uint256"
        },
        {
          "indexed": false,
          "internalType": "uint256",
          "name": "facilityId",
          "type": "uint256"
        }
      ],
      "name": "TransportWasteRegistered",
      "type": "event"
    },
    {
      "inputs": [
        {
          "internalType": "uint256",
          "name": "_facilityId",
          "type": "uint256"
        },
        {
          "internalType": "address",
          "name": "_user",
          "type": "address"
        }
      ],
      "name": "authorizeFacilityUser",
      "outputs": [],
      "stateMutability": "nonpayable",
      "type": "function"
    },
    {
      "inputs": [
        {
          "internalType": "uint256",
          "name": "",
          "type": "uint256"
        },
        {
          "internalType": "address",
          "name": "",
          "type": "address"
        }
      ],
      "name": "authorizedUsers",
      "outputs": [
        {
          "internalType": "bool",
          "name": "",
          "type": "bool"
        }
      ],
      "stateMutability": "view",
      "type": "function"
    },
    {
      "inputs": [
        {
          "internalType": "uint256",
          "name": "_facilityId",
          "type": "uint256"
        }
      ],
      "name": "canFacilityDisposeWaste",
      "outputs": [
        {
          "internalType": "bool",
          "name": "",
          "type": "bool"
        }
      ],
      "stateMutability": "view",
      "type": "function"
    },
    {
      "inputs": [
        {
          "internalType": "uint256",
          "name": "_facilityId",
          "type": "uint256"
        }
      ],
      "name": "canFacilitySegregateWaste",
      "outputs": [
        {
          "internalType": "bool",
          "name": "",
          "type": "bool"
        }
      ],
      "stateMutability": "view",
      "type": "function"
    },
    {
      "inputs": [
        {
          "internalType": "uint256",
          "name": "_facilityId",
          "type": "uint256"
        }
      ],
      "name": "canFacilityTransportWaste",
      "outputs": [
        {
          "internalType": "bool",
          "name": "",
          "type": "bool"
        }
      ],
      "stateMutability": "view",
      "type": "function"
    },
    {
      "inputs": [
        {
          "internalType": "uint256",
          "name": "",
          "type": "uint256"
        }
      ],
      "name": "disposalWastes",
      "outputs": [
        {
          "internalType": "uint256",
          "name": "wasteId",
          "type": "uint256"
        },
        {
          "internalType": "uint256",
          "name": "disposalInfo",
          "type": "uint256"
        },
        {
          "internalType": "bool",
          "name": "isSegregated",
          "type": "bool"
        },
        {
          "internalType": "uint256",
          "name": "treatmentInfo",
          "type": "uint256"
        },
        {
          "internalType": "bool",
          "name": "otherTreatment",
          "type": "bool"
        },
        {
          "internalType": "uint256",
          "name": "transportWasteId",
          "type": "uint256"
        },
        {
          "internalType": "uint256",
          "name": "facilityId",
          "type": "uint256"
        },
        {
          "internalType": "address",
          "name": "owner",
          "type": "address"
        }
      ],
      "stateMutability": "view",
      "type": "function"
    },
    {
      "inputs": [
        {
          "internalType": "address",
          "name": "",
          "type": "address"
        },
        {
          "internalType": "uint256",
          "name": "",
          "type": "uint256"
        }
      ],
      "name": "disposalWastesByAddress",
      "outputs": [
        {
          "internalType": "uint256",
          "name": "",
          "type": "uint256"
        }
      ],
      "stateMutability": "view",
      "type": "function"
    },
    {
      "inputs": [
        {
          "internalType": "uint256",
          "name": "_facilityId",
          "type": "uint256"
        }
      ],
      "name": "enableAllCapabilities",
      "outputs": [],
      "stateMutability": "nonpayable",
      "type": "function"
    },
    {
      "inputs": [
        {
          "internalType": "address",
          "name": "",
          "type": "address"
        },
        {
          "internalType": "uint256",
          "name": "",
          "type": "uint256"
        }
      ],
      "name": "facilitiesByAddress",
      "outputs": [
        {
          "internalType": "uint256",
          "name": "facilityId",
          "type": "uint256"
        },
        {
          "internalType": "string",
          "name": "facilityName",
          "type": "string"
        },
        {
          "internalType": "enum WasteManagement.FacilityType",
          "name": "facilityType",
          "type": "uint8"
        },
        {
          "internalType": "address",
          "name": "owner",
          "type": "address"
        }
      ],
      "stateMutability": "view",
      "type": "function"
    },
    {
      "inputs": [
        {
          "internalType": "uint256",
          "name": "",
          "type": "uint256"
        }
      ],
      "name": "facilitiesById",
      "outputs": [
        {
          "internalType": "uint256",
          "name": "facilityId",
          "type": "uint256"
        },
        {
          "internalType": "string",
          "name": "facilityName",
          "type": "string"
        },
        {
          "internalType": "enum WasteManagement.FacilityType",
          "name": "facilityType",
          "type": "uint8"
        },
        {
          "internalType": "address",
          "name": "owner",
          "type": "address"
        }
      ],
      "stateMutability": "view",
      "type": "function"
    },
    {
      "inputs": [
        {
          "internalType": "uint256",
          "name": "",
          "type": "uint256"
        }
      ],
      "name": "facilityCapabilities",
      "outputs": [
        {
          "internalType": "bool",
          "name": "canSegregateWaste",
          "type": "bool"
        },
        {
          "internalType": "bool",
          "name": "canTransportWaste",
          "type": "bool"
        },
        {
          "internalType": "bool",
          "name": "canDisposeWaste",
          "type": "bool"
        }
      ],
      "stateMutability": "view",
      "type": "function"
    },
    {
      "inputs": [
        {
          "internalType": "uint256",
          "name": "_facilityId",
          "type": "uint256"
        }
      ],
      "name": "getAuthorizedUsers",
      "outputs": [
        {
          "internalType": "address[]",
          "name": "",
          "type": "address[]"
        }
      ],
      "stateMutability": "view",
      "type": "function"
    },
    {
      "inputs": [
        {
          "internalType": "uint256",
          "name": "_id",
          "type": "uint256"
        }
      ],
      "name": "getDisposalWasteById",
      "outputs": [
        {
          "components": [
            {
              "internalType": "uint256",
              "name": "wasteId",
              "type": "uint256"
            },
            {
              "internalType": "uint256",
              "name": "disposalInfo",
              "type": "uint256"
            },
            {
              "internalType": "bool",
              "name": "isSegregated",
              "type": "bool"
            },
            {
              "internalType": "uint256",
              "name": "treatmentInfo",
              "type": "uint256"
            },
            {
              "internalType": "bool",
              "name": "otherTreatment",
              "type": "bool"
            },
            {
              "internalType": "uint256",
              "name": "transportWasteId",
              "type": "uint256"
            },
            {
              "internalType": "uint256",
              "name": "facilityId",
              "type": "uint256"
            },
            {
              "internalType": "address",
              "name": "owner",
              "type": "address"
            }
          ],
          "internalType": "struct WasteManagement.DisposalWaste",
          "name": "",
          "type": "tuple"
        }
      ],
      "stateMutability": "view",
      "type": "function"
    },
    {
      "inputs": [],
      "name": "getDisposalWastes",
      "outputs": [
        {
          "internalType": "uint256[]",
          "name": "",
          "type": "uint256[]"
        }
      ],
      "stateMutability": "view",
      "type": "function"
    },
    {
      "inputs": [],
      "name": "getFacilities",
      "outputs": [
        {
          "components": [
            {
              "internalType": "uint256",
              "name": "facilityId",
              "type": "uint256"
            },
            {
              "internalType": "string",
              "name": "facilityName",
              "type": "string"
            },
            {
              "internalType": "enum WasteManagement.FacilityType",
              "name": "facilityType",
              "type": "uint8"
            },
            {
              "internalType": "address",
              "name": "owner",
              "type": "address"
            }
          ],
          "internalType": "struct WasteManagement.Facility[]",
          "name": "",
          "type": "tuple[]"
        }
      ],
      "stateMutability": "view",
      "type": "function"
    },
    {
      "inputs": [
        {
          "internalType": "uint256",
          "name": "_id",
          "type": "uint256"
        }
      ],
      "name": "getFacility",
      "outputs": [
        {
          "components": [
            {
              "internalType": "uint256",
              "name": "facilityId",
              "type": "uint256"
            },
            {
              "internalType": "string",
              "name": "facilityName",
              "type": "string"
            },
            {
              "internalType": "enum WasteManagement.FacilityType",
              "name": "facilityType",
              "type": "uint8"
            },
            {
              "internalType": "address",
              "name": "owner",
              "type": "address"
            }
          ],
          "internalType": "struct WasteManagement.Facility",
          "name": "",
          "type": "tuple"
        }
      ],
      "stateMutability": "view",
      "type": "function"
    },
    {
      "inputs": [
        {
          "internalType": "uint256",
          "name": "_facilityId",
          "type": "uint256"
        }
      ],
      "name": "getFacilityHistory",
      "outputs": [
        {
          "components": [
            {
              "internalType": "uint256",
              "name": "timestamp",
              "type": "uint256"
            },
            {
              "internalType": "string",
              "name": "action",
              "type": "string"
            },
            {
              "internalType": "string",
              "name": "details",
              "type": "string"
            },
            {
              "internalType": "bytes32",
              "name": "transactionHash",
              "type": "bytes32"
            }
          ],
          "internalType": "struct FacilityHistory.HistoryEntry[]",
          "name": "",
          "type": "tuple[]"
        }
      ],
      "stateMutability": "view",
      "type": "function"
    },
    {
      "inputs": [
        {
          "internalType": "uint256",
          "name": "_id",
          "type": "uint256"
        }
      ],
      "name": "getHospitalWasteById",
      "outputs": [
        {
          "components": [
            {
              "internalType": "uint256",
              "name": "wasteId",
              "type": "uint256"
            },
            {
              "internalType": "bool",
              "name": "isSegregationDone",
              "type": "bool"
            },
            {
              "internalType": "uint256",
              "name": "totalWaste",
              "type": "uint256"
            },
            {
              "internalType": "uint256",
              "name": "totalBiomedicalWaste",
              "type": "uint256"
            },
            {
              "internalType": "bool",
              "name": "storageProperlyDone",
              "type": "bool"
            },
            {
              "internalType": "bool",
              "name": "binsNotOverflowing",
              "type": "bool"
            },
            {
              "internalType": "bool",
              "name": "wasteStored24Hours",
              "type": "bool"
            },
            {
              "internalType": "uint256",
              "name": "temperatureRecorded",
              "type": "uint256"
            },
            {
              "internalType": "uint256",
              "name": "facilityId",
              "type": "uint256"
            },
            {
              "internalType": "address",
              "name": "owner",
              "type": "address"
            }
          ],
          "internalType": "struct WasteManagement.HospitalWaste",
          "name": "",
          "type": "tuple"
        }
      ],
      "stateMutability": "view",
      "type": "function"
    },
    {
      "inputs": [],
      "name": "getHospitalWastes",
      "outputs": [
        {
          "internalType": "uint256[]",
          "name": "",
          "type": "uint256[]"
        }
      ],
      "stateMutability": "view",
      "type": "function"
    },
    {
      "inputs": [
        {
          "internalType": "uint256",
          "name": "_id",
          "type": "uint256"
        }
      ],
      "name": "getTransportWasteById",
      "outputs": [
        {
          "components": [
            {
              "internalType": "uint256",
              "name": "wasteId",
              "type": "uint256"
            },
            {
              "internalType": "string",
              "name": "vehicleNumber",
              "type": "string"
            },
            {
              "internalType": "string",
              "name": "status",
              "type": "string"
            },
            {
              "internalType": "string",
              "name": "estimatedArrival",
              "type": "string"
            },
            {
              "internalType": "string",
              "name": "wasteRecorded",
              "type": "string"
            },
            {
              "internalType": "uint256",
              "name": "hospitalWasteId",
              "type": "uint256"
            },
            {
              "internalType": "uint256",
              "name": "facilityId",
              "type": "uint256"
            },
            {
              "internalType": "address",
              "name": "owner",
              "type": "address"
            }
          ],
          "internalType": "struct WasteManagement.TransportWaste",
          "name": "",
          "type": "tuple"
        }
      ],
      "stateMutability": "view",
      "type": "function"
    },
    {
      "inputs": [],
      "name": "getTransportWastes",
      "outputs": [
        {
          "internalType": "uint256[]",
          "name": "",
          "type": "uint256[]"
        }
      ],
      "stateMutability": "view",
      "type": "function"
    },
    {
      "inputs": [
        {
          "internalType": "uint256",
          "name": "",
          "type": "uint256"
        }
      ],
      "name": "hospitalWastes",
      "outputs": [
        {
          "internalType": "uint256",
          "name": "wasteId",
          "type": "uint256"
        },
        {
          "internalType": "bool",
          "name": "isSegregationDone",
          "type": "bool"
        },
        {
          "internalType": "uint256",
          "name": "totalWaste",
          "type": "uint256"
        },
        {
          "internalType": "uint256",
          "name": "totalBiomedicalWaste",
          "type": "uint256"
        },
        {
          "internalType": "bool",
          "name": "storageProperlyDone",
          "type": "bool"
        },
        {
          "internalType": "bool",
          "name": "binsNotOverflowing",
          "type": "bool"
        },
        {
          "internalType": "bool",
          "name": "wasteStored24Hours",
          "type": "bool"
        },
        {
          "internalType": "uint256",
          "name": "temperatureRecorded",
          "type": "uint256"
        },
        {
          "internalType": "uint256",
          "name": "facilityId",
          "type": "uint256"
        },
        {
          "internalType": "address",
          "name": "owner",
          "type": "address"
        }
      ],
      "stateMutability": "view",
      "type": "function"
    },
    {
      "inputs": [
        {
          "internalType": "address",
          "name": "",
          "type": "address"
        },
        {
          "internalType": "uint256",
          "name": "",
          "type": "uint256"
        }
      ],
      "name": "hospitalWastesByAddress",
      "outputs": [
        {
          "internalType": "uint256",
          "name": "",
          "type": "uint256"
        }
      ],
      "stateMutability": "view",
      "type": "function"
    },
    {
      "inputs": [
        {
          "internalType": "uint256",
          "name": "_facilityId",
          "type": "uint256"
        },
        {
          "internalType": "address",
          "name": "_user",
          "type": "address"
        }
      ],
      "name": "isAuthorizedForFacility",
      "outputs": [
        {
          "internalType": "bool",
          "name": "",
          "type": "bool"
        }
      ],
      "stateMutability": "view",
      "type": "function"
    },
    {
      "inputs": [],
      "name": "owner",
      "outputs": [
        {
          "internalType": "address",
          "name": "",
          "type": "address"
        }
      ],
      "stateMutability": "view",
      "type": "function"
    },
    {
      "inputs": [
        {
          "internalType": "uint256",
          "name": "_facilityId",
          "type": "uint256"
        }
      ],
      "name": "ownsValidFacility",
      "outputs": [
        {
          "internalType": "bool",
          "name": "",
          "type": "bool"
        }
      ],
      "stateMutability": "view",
      "type": "function"
    },
    {
      "inputs": [
        {
          "internalType": "uint256",
          "name": "_disposalInfo",
          "type": "uint256"
        },
        {
          "internalType": "bool",
          "name": "_isSegregated",
          "type": "bool"
        },
        {
          "internalType": "uint256",
          "name": "_treatmentInfo",
          "type": "uint256"
        },
        {
          "internalType": "bool",
          "name": "_otherTreatment",
          "type": "bool"
        },
        {
          "internalType": "uint256",
          "name": "_transportWasteId",
          "type": "uint256"
        }
      ],
      "name": "registerDisposalWaste",
      "outputs": [],
      "stateMutability": "nonpayable",
      "type": "function"
    },
    {
      "inputs": [
        {
          "internalType": "uint256",
          "name": "_disposalInfo",
          "type": "uint256"
        },
        {
          "internalType": "bool",
          "name": "_isSegregated",
          "type": "bool"
        },
        {
          "internalType": "uint256",
          "name": "_treatmentInfo",
          "type": "uint256"
        },
        {
          "internalType": "bool",
          "name": "_otherTreatment",
          "type": "bool"
        },
        {
          "internalType": "uint256",
          "name": "_transportWasteId",
          "type": "uint256"
        },
        {
          "internalType": "uint256",
          "name": "_facilityId",
          "type": "uint256"
        }
      ],
      "name": "registerDisposalWaste",
      "outputs": [],
      "stateMutability": "nonpayable",
      "type": "function"
    },
    {
      "inputs": [
        {
          "internalType": "string",
          "name": "_name",
          "type": "string"
        },
        {
          "internalType": "enum WasteManagement.FacilityType",
          "name": "_type",
          "type": "uint8"
        }
      ],
      "name": "registerFacility",
      "outputs": [],
      "stateMutability": "nonpayable",
      "type": "function"
    },
    {
      "inputs": [
        {
          "internalType": "bool",
          "name": "_isSegregationDone",
          "type": "bool"
        },
        {
          "internalType": "uint256",
          "name": "_totalWaste",
          "type": "uint256"
        },
        {
          "internalType": "uint256",
          "name": "_totalBiomedicalWaste",
          "type": "uint256"
        },
        {
          "internalType": "bool",
          "name": "_storageProperlyDone",
          "type": "bool"
        },
        {
          "internalType": "bool",
          "name": "_binsNotOverflowing",
          "type": "bool"
        },
        {
          "internalType": "bool",
          "name": "_wasteStored24Hours",
          "type": "bool"
        },
        {
          "internalType": "uint256",
          "name": "_temperatureRecorded",
          "type": "uint256"
        }
      ],
      "name": "registerHospitalWaste",
      "outputs": [],
      "stateMutability": "nonpayable",
      "type": "function"
    },
    {
      "inputs": [
        {
          "internalType": "bool",
          "name": "_isSegregationDone",
          "type": "bool"
        },
        {
          "internalType": "uint256",
          "name": "_totalWaste",
          "type": "uint256"
        },
        {
          "internalType": "uint256",
          "name": "_totalBiomedicalWaste",
          "type": "uint256"
        },
        {
          "internalType": "bool",
          "name": "_storageProperlyDone",
          "type": "bool"
        },
        {
          "internalType": "bool",
          "name": "_binsNotOverflowing",
          "type": "bool"
        },
        {
          "internalType": "bool",
          "name": "_wasteStored24Hours",
          "type": "bool"
        },
        {
          "internalType": "uint256",
          "name": "_temperatureRecorded",
          "type": "uint256"
        },
        {
          "internalType": "uint256",
          "name": "_facilityId",
          "type": "uint256"
        }
      ],
      "name": "registerHospitalWaste",
      "outputs": [],
      "stateMutability": "nonpayable",
      "type": "function"
    },
    {
      "inputs": [
        {
          "internalType": "string",
          "name": "_vehicleNumber",
          "type": "string"
        },
        {
          "internalType": "string",
          "name": "_status",
          "type": "string"
        },
        {
          "internalType": "string",
          "name": "_estimatedArrival",
          "type": "string"
        },
        {
          "internalType": "string",
          "name": "_wasteRecorded",
          "type": "string"
        },
        {
          "internalType": "uint256",
          "name": "_hospitalWasteId",
          "type": "uint256"
        }
      ],
      "name": "registerTransportWaste",
      "outputs": [],
      "stateMutability": "nonpayable",
      "type": "function"
    },
    {
      "inputs": [
        {
          "internalType": "string",
          "name": "_vehicleNumber",
          "type": "string"
        },
        {
          "internalType": "string",
          "name": "_status",
          "type": "string"
        },
        {
          "internalType": "string",
          "name": "_estimatedArrival",
          "type": "string"
        },
        {
          "internalType": "string",
          "name": "_wasteRecorded",
          "type": "string"
        },
        {
          "internalType": "uint256",
          "name": "_hospitalWasteId",
          "type": "uint256"
        },
        {
          "internalType": "uint256",
          "name": "_facilityId",
          "type": "uint256"
        }
      ],
      "name": "registerTransportWaste",
      "outputs": [],
      "stateMutability": "nonpayable",
      "type": "function"
    },
    {
      "inputs": [
        {
          "internalType": "uint256",
          "name": "_facilityId",
          "type": "uint256"
        },
        {
          "internalType": "address",
          "name": "_user",
          "type": "address"
        }
      ],
      "name": "revokeFacilityAuthorization",
      "outputs": [],
      "stateMutability": "nonpayable",
      "type": "function"
    },
    {
      "inputs": [
        {
          "internalType": "uint256",
          "name": "_facilityId",
          "type": "uint256"
        },
        {
          "internalType": "string",
          "name": "_capability",
          "type": "string"
        },
        {
          "internalType": "bool",
          "name": "_enabled",
          "type": "bool"
        }
      ],
      "name": "setFacilityCapability",
      "outputs": [],
      "stateMutability": "nonpayable",
      "type": "function"
    },
    {
      "inputs": [
        {
          "internalType": "uint256",
          "name": "",
          "type": "uint256"
        }
      ],
      "name": "transportWastes",
      "outputs": [
        {
          "internalType": "uint256",
          "name": "wasteId",
          "type": "uint256"
        },
        {
          "internalType": "string",
          "name": "vehicleNumber",
          "type": "string"
        },
        {
          "internalType": "string",
          "name": "status",
          "type": "string"
        },
        {
          "internalType": "string",
          "name": "estimatedArrival",
          "type": "string"
        },
        {
          "internalType": "string",
          "name": "wasteRecorded",
          "type": "string"
        },
        {
          "internalType": "uint256",
          "name": "hospitalWasteId",
          "type": "uint256"
        },
        {
          "internalType": "uint256",
          "name": "facilityId",
          "type": "uint256"
        },
        {
          "internalType": "address",
          "name": "owner",
          "type": "address"
        }
      ],
      "stateMutability": "view",
      "type": "function"
    },
    {
      "inputs": [
        {
          "internalType": "address",
          "name": "",
          "type": "address"
        },
        {
          "internalType": "uint256",
          "name": "",
          "type": "uint256"
        }
      ],
      "name": "transportWastesByAddress",
      "outputs": [
        {
          "internalType": "uint256",
          "name": "",
          "type": "uint256"
        }
      ],
      "stateMutability": "view",
      "type": "function"
    }
  ],
  "bytecode": "0x608060405234801561001057600080fd5b50600f80546001600160a01b03191633179055613c68806100326000396000f3fe608060405234801561001057600080fd5b50600436106102275760003560e01c80639209d4d611610130578063d35e0586116100b8578063f6048bd01161007c578063f6048bd014610669578063f6e2fada1461067c578063fa71bbf91461068f578063fafa622a146106a4578063fcbcbf421461072057600080fd5b8063d35e0586146105c6578063d3ae7cfe146105e6578063e4962bff146105f9578063e60ff96614610619578063f06710491461064057600080fd5b8063a5663a9f116100ff578063a5663a9f1461053f578063aa3bcaf81461056d578063aeb13f4714610580578063cb405cad146105a0578063d2ad9a53146105b357600080fd5b80639209d4d6146104d1578063978b33e0146104f9578063a2443e1f1461050c578063a55677cd1461051f57600080fd5b80633eeef27a116101b35780635d2daf4e116101825780635d2daf4e1461045857806368f07d97146104605780636f82277b146104735780638698fb32146104865780638da5cb5b146104a657600080fd5b80633eeef27a146103405780634669d64a146103485780635653bc67146104125780635b0bd7be1461044557600080fd5b806313c38bb5116101fa57806313c38bb51461028d5780631b5be013146102e25780631ea84ac7146102f55780632d448e391461030a57806336498dff1461031d57600080fd5b8063015d29901461022c57806302e241861461025257806311d76f6c146102675780631220b1e51461027a575b600080fd5b61023f61023a366004612d00565b6107cc565b6040519081526020015b60405180910390f35b610265610260366004612d2a565b6107fd565b005b610265610275366004612d56565b6108b6565b61023f610288366004612d00565b610a1c565b6102c361029b366004612d56565b600e6020526000908152604090205460ff808216916101008104821691620100009091041683565b6040805193151584529115156020840152151590820152606001610249565b6102656102f0366004612e12565b610a38565b6102fd610aad565b6040516102499190612ec7565b610265610318366004612f1b565b610b0e565b61033061032b366004612d56565b610b7b565b6040516102499493929190612ff1565b6102fd610c3a565b6103bb610356366004612d56565b600460208190526000918252604090912080546001820154600283015460038401549484015460058501546006860154600790960154949660ff948516969395909483811694610100850482169462010000900490911692916001600160a01b03168a565b604080519a8b5298151560208b01529789019690965260608801949094529115156080870152151560a0860152151560c085015260e08401526101008301526001600160a01b031661012082015261014001610249565b610435610420366004612d56565b6000908152600e602052604090205460ff1690565b6040519015158152602001610249565b610265610453366004613033565b610c99565b6102fd610d12565b61023f61046e366004612d00565b610d71565b6102656104813660046130a4565b610d8d565b610499610494366004612d56565b61107b565b604051610249919061316f565b600f546104b9906001600160a01b031681565b6040516001600160a01b039091168152602001610249565b6104356104df366004612d56565b6000908152600e6020526040902054610100900460ff1690565b610330610507366004612d00565b611202565b61026561051a366004613182565b611248565b61053261052d366004612d56565b6114cd565b60405161024991906131da565b61043561054d366004612d2a565b600d60209081526000928352604080842090915290825290205460ff1681565b61026561057b366004613276565b61166e565b61059361058e366004612d56565b6118fe565b6040516102499190613335565b6102656105ae366004612d2a565b611c45565b6104356105c1366004612d56565b611cd7565b6105d96105d4366004612d56565b611e37565b60405161024991906133f1565b6102656105f4366004613432565b611e72565b61060c610607366004612d56565b6120f0565b6040516102499190613489565b61062c610627366004612d56565b612237565b604051610249989796959493929190613527565b61043561064e366004612d56565b6000908152600e602052604090205462010000900460ff1690565b6102656106773660046135a7565b6124a3565b61043561068a366004612d2a565b612679565b6106976126a6565b60405161024991906135fd565b6106b76106b2366004612d56565b6127f9565b604051610249919081518152602080830151908201526040808301511515908201526060808301519082015260808083015115159082015260a0808301519082015260c0808301519082015260e0918201516001600160a01b0316918101919091526101000190565b61078061072e366004612d56565b600a60205260009081526040902080546001820154600283015460038401546004850154600586015460068701546007909701549596949560ff9485169593949092169290916001600160a01b031688565b6040805198895260208901979097529415159587019590955260608601929092521515608085015260a084015260c08301919091526001600160a01b031660e082015261010001610249565b600860205281600052604060002081815481106107e857600080fd5b90600052602060002001600091509150505481565b61080682611cd7565b61082b5760405162461bcd60e51b81526004016108229061365f565b60405180910390fd5b6000828152600d602090815260408083206001600160a01b0385168452825291829020805460ff19169055815180830190925260158252741055551213d4925690551253d397d4915593d2d151605a1b908201526108b290839061088e8461292c565b60405160200161089e9190613696565b604051602081830303815290604052612b17565b5050565b6108bf81611cd7565b6108db5760405162461bcd60e51b8152600401610822906136db565b6000818152600e6020908152604091829020805462ffffff1916620101011790558151808301835260118152704341504142494c4954595f55504441544560781b818301528251606081019093526021808452610943938593909190613bf290830139612b17565b604080518281526060602082018190526009908201526873656772656761746560b81b60808201526001818301529051600080516020613c138339815191529181900360a00190a160408051828152606060208201819052600990820152681d1c985b9cdc1bdc9d60ba1b60808201526001818301529051600080516020613c138339815191529181900360a00190a16040805182815260606020820181905260079082015266646973706f736560c81b60808201526001818301529051600080516020613c138339815191529181900360a00190a150565b600560205281600052604060002081815481106107e857600080fd5b33600090815260016020526040902054610a645760405162461bcd60e51b81526004016108229061372a565b33600090815260016020526040812080548290610a8357610a83613773565b9060005260206000209060030201600001549050610aa586868686868661166e565b505050505050565b336000908152600b6020908152604091829020805483518184028101840190945280845260609392830182828015610b0457602002820191906000526020600020905b815481526020019060010190808311610af0575b5050505050905090565b33600090815260016020526040902054610b3a5760405162461bcd60e51b81526004016108229061372a565b33600090815260016020526040812080548290610b5957610b59613773565b9060005260206000209060030201600001549050610aa5868686868686611248565b60026020526000908152604090208054600182018054919291610b9d90613789565b80601f0160208091040260200160405190810160405280929190818152602001828054610bc990613789565b8015610c165780601f10610beb57610100808354040283529160200191610c16565b820191906000526020600020905b815481529060010190602001808311610bf957829003601f168201915b5050506002909301549192505060ff8116906001600160a01b036101009091041684565b33600090815260056020908152604091829020805483518184028101840190945280845260609392830182828015610b045760200282019190600052602060002090815481526020019060010190808311610af0575050505050905090565b33600090815260016020526040902054610cc55760405162461bcd60e51b81526004016108229061372a565b33600090815260016020526040812080548290610ce457610ce4613773565b9060005260206000209060030201600001549050610d088888888888888888610d8d565b5050505050505050565b33600090815260086020908152604091829020805483518184028101840190945280845260609392830182828015610b045760200282019190600052602060002090815481526020019060010190808311610af0575050505050905090565b600b60205281600052604060002081815481106107e857600080fd5b610d9681611cd7565b610db25760405162461bcd60e51b8152600401610822906136db565b6000818152600e602052604090205460ff16610e2e5760405162461bcd60e51b815260206004820152603560248201527f5468697320666163696c697479206973206e6f742072656769737465726564206044820152743337b9103bb0b9ba329039b2b3b932b3b0ba34b7b760591b6064820152608401610822565b60068054906000610e3e836137d9565b91905055506000600654905060006040518061014001604052808381526020018b151581526020018a8152602001898152602001881515815260200187151581526020018615158152602001858152602001848152602001336001600160a01b0316815250905080600460008481526020019081526020016000206000820151816000015560208201518160010160006101000a81548160ff021916908315150217905550604082015181600201556060820151816003015560808201518160040160006101000a81548160ff02191690831515021790555060a08201518160040160016101000a81548160ff02191690831515021790555060c08201518160040160026101000a81548160ff02191690831515021790555060e0820151816005015561010082015181600601556101208201518160070160006101000a8154816001600160a01b0302191690836001600160a01b0316021790555090505060056000336001600160a01b03166001600160a01b0316815260200190815260200160002082908060018154018082558091505060019003906000526020600020016000909190919091505561102d836040518060400160405280600e81526020016d484f53504954414c5f574153544560901b81525061101d85612bdb565b60405160200161089e91906137f2565b604080518381528b151560208201529081018490527f82560527e033c54838d3005c1bc85fcdc3764cd9f2fcc93d0da0474cf1940ff29060600160405180910390a150505050505050505050565b6110a66040805160808101825260008082526060602083015290918201908152600060209091015290565b6000828152600260205260409020546110f65760405162461bcd60e51b8152602060048201526012602482015271119858da5b1a5d1e481b9bdd08199bdd5b9960721b6044820152606401610822565b600260008381526020019081526020016000206040518060800160405290816000820154815260200160018201805461112e90613789565b80601f016020809104026020016040519081016040528092919081815260200182805461115a90613789565b80156111a75780601f1061117c576101008083540402835291602001916111a7565b820191906000526020600020905b81548152906001019060200180831161118a57829003601f168201915b5050509183525050600282015460209091019060ff1660048111156111ce576111ce612fb9565b60048111156111df576111df612fb9565b81526002919091015461010090046001600160a01b031660209091015292915050565b6001602052816000526040600020818154811061121e57600080fd5b906000526020600020906003020160009150915050806000015490806001018054610b9d90613789565b61125181611cd7565b61126d5760405162461bcd60e51b8152600401610822906136db565b6000828152600760205260409020546112c45760405162461bcd60e51b8152602060048201526019602482015278151c985b9cdc1bdc9d081dd85cdd19481b9bdd08199bdd5b99603a1b6044820152606401610822565b6000818152600e602052604090205462010000900460ff166113435760405162461bcd60e51b815260206004820152603260248201527f5468697320666163696c697479206973206e6f74207265676973746572656420604482015271199bdc881dd85cdd1948191a5cdc1bdcd85b60721b6064820152608401610822565b600c8054906000611353836137d9565b9091555050600c54604080516101008101825282815260208082018a8152891515838501908152606084018a81528915156080860190815260a086018a815260c087018a81523360e0890181815260008c8152600a8a528b81208b51815598516001808b0191909155975160028a01805460ff19908116921515929092179055965160038a0155945160048901805490971690151517909555915160058701555160068601559151600790940180546001600160a01b0319166001600160a01b03909516949094179093558252600b835284822080549182018155825290829020018490558251808401909352600e83526d444953504f53414c5f574153544560901b908301529061147a90849061146a85612bdb565b60405160200161089e9190613843565b60408051838152602081018a9052908101859052606081018490527f81060cdb462a17818c25ac4aef15a0d1fad18517cfbc8e8350b3bb770c43bff1906080015b60405180910390a15050505050505050565b600081815260208181526040808320805482518185028101850190935280835260609492939192909184015b8282101561166357838290600052602060002090600402016040518060800160405290816000820154815260200160018201805461153690613789565b80601f016020809104026020016040519081016040528092919081815260200182805461156290613789565b80156115af5780601f10611584576101008083540402835291602001916115af565b820191906000526020600020905b81548152906001019060200180831161159257829003601f168201915b505050505081526020016002820180546115c890613789565b80601f01602080910402602001604051908101604052809291908181526020018280546115f490613789565b80156116415780601f1061161657610100808354040283529160200191611641565b820191906000526020600020905b81548152906001019060200180831161162457829003601f168201915b50505050508152602001600382015481525050815260200190600101906114f9565b505050509050919050565b61167781611cd7565b6116935760405162461bcd60e51b8152600401610822906136db565b6000828152600460205260409020546116e95760405162461bcd60e51b8152602060048201526018602482015277121bdcdc1a5d185b081dd85cdd19481b9bdd08199bdd5b9960421b6044820152606401610822565b6000818152600e6020526040902054610100900460ff166117685760405162461bcd60e51b815260206004820152603360248201527f5468697320666163696c697479206973206e6f74207265676973746572656420604482015272199bdc881dd85cdd19481d1c985b9cdc1bdc9d606a1b6064820152608401610822565b60098054906000611778836137d9565b9091555050600954604080516101008101825282815260208082018a81528284018a9052606083018990526080830188905260a0830187905260c083018690523360e0840152600085815260079092529290208151815591519091829160018201906117e490826138d2565b50604082015160028201906117f990826138d2565b506060820151600382019061180e90826138d2565b506080820151600482019061182390826138d2565b5060a0820151600582015560c0820151600682015560e090910151600790910180546001600160a01b0319166001600160a01b039092169190911790553360009081526008602090815260408083208054600181018255908452928290209092018490558151808301909252600f82526e5452414e53504f52545f574153544560881b908201526118c99084906118b985612bdb565b60405160200161089e9190613992565b7f734f3e705d98e08cf141c22197edf19cce7e665e932ca904a80d85ce4fad82d7828986866040516114bb94939291906139e4565b61194f6040518061010001604052806000815260200160608152602001606081526020016060815260200160608152602001600081526020016000815260200160006001600160a01b031681525090565b6000828152600760205260409020546119a65760405162461bcd60e51b8152602060048201526019602482015278151c985b9cdc1bdc9d081dd85cdd19481b9bdd08199bdd5b99603a1b6044820152606401610822565b6007600083815260200190815260200160002060405180610100016040529081600082015481526020016001820180546119df90613789565b80601f0160208091040260200160405190810160405280929190818152602001828054611a0b90613789565b8015611a585780601f10611a2d57610100808354040283529160200191611a58565b820191906000526020600020905b815481529060010190602001808311611a3b57829003601f168201915b50505050508152602001600282018054611a7190613789565b80601f0160208091040260200160405190810160405280929190818152602001828054611a9d90613789565b8015611aea5780601f10611abf57610100808354040283529160200191611aea565b820191906000526020600020905b815481529060010190602001808311611acd57829003601f168201915b50505050508152602001600382018054611b0390613789565b80601f0160208091040260200160405190810160405280929190818152602001828054611b2f90613789565b8015611b7c5780601f10611b5157610100808354040283529160200191611b7c565b820191906000526020600020905b815481529060010190602001808311611b5f57829003601f168201915b50505050508152602001600482018054611b9590613789565b80601f0160208091040260200160405190810160405280929190818152602001828054611bc190613789565b8015611c0e5780601f10611be357610100808354040283529160200191611c0e565b820191906000526020600020905b815481529060010190602001808311611bf157829003601f168201915b505050918352505060058201546020820152600682015460408201526007909101546001600160a01b031660609091015292915050565b611c4e82611cd7565b611c6a5760405162461bcd60e51b81526004016108229061365f565b6000828152600d602081815260408084206001600160a01b0386168552825292839020805460ff1916600117905582518084019093529082526c20aaaa2427a924ad20aa24a7a760991b908201526108b2908390611cc78461292c565b60405160200161089e9190613a10565b6000811580611ce7575060035482115b15611cf457506000919050565b60006002600084815260200190815260200160002060405180608001604052908160008201548152602001600182018054611d2e90613789565b80601f0160208091040260200160405190810160405280929190818152602001828054611d5a90613789565b8015611da75780601f10611d7c57610100808354040283529160200191611da7565b820191906000526020600020905b815481529060010190602001808311611d8a57829003601f168201915b5050509183525050600282015460209091019060ff166004811115611dce57611dce612fb9565b6004811115611ddf57611ddf612fb9565b8152600291909101546001600160a01b036101009091048116602090920191909152606082015191925016331480611e3057506000838152600d6020908152604080832033845290915290205460ff165b9392505050565b6060611e4282611cd7565b611e5e5760405162461bcd60e51b81526004016108229061365f565b505060408051600081526020810190915290565b611e7b83611cd7565b611e975760405162461bcd60e51b8152600401610822906136db565b6000838152600e60209081526040918290209151611ec591016873656772656761746560b81b815260090190565b6040516020818303038152906040528051906020012083604051602001611eec9190613a49565b6040516020818303038152906040528051906020012003611f1857805460ff1916821515178155612035565b604051681d1c985b9cdc1bdc9d60ba1b60208201526029016040516020818303038152906040528051906020012083604051602001611f579190613a49565b6040516020818303038152906040528051906020012003611f8857805461ff00191661010083151502178155612035565b60405166646973706f736560c81b60208201526027016040516020818303038152906040528051906020012083604051602001611fc59190613a49565b6040516020818303038152906040528051906020012003611ff857805462ff000019166201000083151502178155612035565b60405162461bcd60e51b8152602060048201526012602482015271496e76616c6964206361706162696c69747960701b6044820152606401610822565b6120c184604051806040016040528060118152602001704341504142494c4954595f55504441544560781b815250858561208f5760405180604001604052806008815260200167191a5cd8589b195960c21b8152506120b0565b60405180604001604052806007815260200166195b98589b195960ca1b8152505b60405160200161089e929190613a65565b600080516020613c138339815191528484846040516120e293929190613ad1565b60405180910390a150505050565b6040805161014081018252600080825260208201819052918101829052606081018290526080810182905260a0810182905260c0810182905260e0810182905261010081018290526101208101919091526000828152600460205260409020546121975760405162461bcd60e51b8152602060048201526018602482015277121bdcdc1a5d185b081dd85cdd19481b9bdd08199bdd5b9960421b6044820152606401610822565b5060009081526004602081815260409283902083516101408101855281548152600182015460ff9081161515938201939093526002820154948101949094526003810154606085015291820154808216151560808501526101008082048316151560a086015262010000909104909116151560c0840152600582015460e0840152600682015490830152600701546001600160a01b031661012082015290565b6007602052600090815260409020805460018201805491929161225990613789565b80601f016020809104026020016040519081016040528092919081815260200182805461228590613789565b80156122d25780601f106122a7576101008083540402835291602001916122d2565b820191906000526020600020905b8154815290600101906020018083116122b557829003601f168201915b5050505050908060020180546122e790613789565b80601f016020809104026020016040519081016040528092919081815260200182805461231390613789565b80156123605780601f1061233557610100808354040283529160200191612360565b820191906000526020600020905b81548152906001019060200180831161234357829003601f168201915b50505050509080600301805461237590613789565b80601f01602080910402602001604051908101604052809291908181526020018280546123a190613789565b80156123ee5780601f106123c3576101008083540402835291602001916123ee565b820191906000526020600020905b8154815290600101906020018083116123d157829003601f168201915b50505050509080600401805461240390613789565b80601f016020809104026020016040519081016040528092919081815260200182805461242f90613789565b801561247c5780601f106124515761010080835404028352916020019161247c565b820191906000526020600020905b81548152906001019060200180831161245f57829003601f168201915b5050505060058301546006840154600790940154929390929091506001600160a01b031688565b600380549060006124b3836137d9565b9091555050600354604080516080810182528281526020810185905260009181018460048111156124e6576124e6612fb9565b8152336020918201819052600090815260018083526040822080548083018255908352918390208451600390930201918255918301519293508392909182019061253090826138d2565b50604082015160028201805460ff1916600183600481111561255457612554612fb9565b021790555060609190910151600291820180546001600160a01b0390921661010002610100600160a81b03199092169190911790556000838152602091825260409020825181559082015182919060018201906125b190826138d2565b50604082015160028201805460ff191660018360048111156125d5576125d5612fb9565b021790555060608201518160020160016101000a8154816001600160a01b0302191690836001600160a01b03160217905550905050612644826040518060400160405280600c81526020016b2922a3a4a9aa2920aa24a7a760a11b8152508660405160200161089e9190613afc565b7fe12b00cb2a4bf11f0efb3122df82fda9da45b52f73b965b9a120adb375741537828585336040516120e29493929190612ff1565b6000828152600d602090815260408083206001600160a01b038516845290915290205460ff165b92915050565b336000908152600160209081526040808320805482518185028101850190935280835260609492939192909184015b828210156127f057838290600052602060002090600302016040518060800160405290816000820154815260200160018201805461271290613789565b80601f016020809104026020016040519081016040528092919081815260200182805461273e90613789565b801561278b5780601f106127605761010080835404028352916020019161278b565b820191906000526020600020905b81548152906001019060200180831161276e57829003601f168201915b5050509183525050600282015460209091019060ff1660048111156127b2576127b2612fb9565b60048111156127c3576127c3612fb9565b81526002919091015461010090046001600160a01b031660209182015290825260019290920191016126d5565b50505050905090565b61284e604051806101000160405280600081526020016000815260200160001515815260200160008152602001600015158152602001600081526020016000815260200160006001600160a01b031681525090565b6000828152600a60205260409020546128a95760405162461bcd60e51b815260206004820152601860248201527f446973706f73616c207761737465206e6f7420666f756e6400000000000000006044820152606401610822565b506000908152600a602090815260409182902082516101008101845281548152600182015492810192909252600281015460ff90811615159383019390935260038101546060830152600481015490921615156080820152600582015460a0820152600682015460c08201526007909101546001600160a01b031660e082015290565b604080518082018252601081526f181899199a1a9b1b9c1cb0b131b232b360811b60208201528151602a80825260608281019094526001600160a01b0385169291600091602082018180368337019050509050600360fc1b8160008151811061299757612997613773565b60200101906001600160f81b031916908160001a905350600f60fb1b816001815181106129c6576129c6613773565b60200101906001600160f81b031916908160001a90535060005b6014811015612b0e57826004856129f884600c613b41565b60208110612a0857612a08613773565b1a60f81b6001600160f81b031916901c60f81c60ff1681518110612a2e57612a2e613773565b01602001516001600160f81b03191682612a49836002613b54565b612a54906002613b41565b81518110612a6457612a64613773565b60200101906001600160f81b031916908160001a9053508284612a8883600c613b41565b60208110612a9857612a98613773565b825191901a600f16908110612aaf57612aaf613773565b01602001516001600160f81b03191682612aca836002613b54565b612ad5906003613b41565b81518110612ae557612ae5613773565b60200101906001600160f81b031916908160001a90535080612b06816137d9565b9150506129e0565b50949350505050565b60006040518060800160405280428152602001848152602001838152602001600143612b439190613b6b565b409052600085815260208181526040822080546001818101835591845292829020845160049094020192835590830151929350839290820190612b8690826138d2565b5060408201516002820190612b9b90826138d2565b506060820151816003015550507faaa6d9d5e9bc4ea75d825a9574845a28fafd39a9bf7de88eb011817e6cac36398484846040516120e293929190613b7e565b606081600003612c025750506040805180820190915260018152600360fc1b602082015290565b8160005b8115612c2c5780612c16816137d9565b9150612c259050600a83613bc9565b9150612c06565b60008167ffffffffffffffff811115612c4757612c47612d6f565b6040519080825280601f01601f191660200182016040528015612c71576020820181803683370190505b5090505b8415612cdc57612c86600183613b6b565b9150612c93600a86613bdd565b612c9e906030613b41565b60f81b818381518110612cb357612cb3613773565b60200101906001600160f81b031916908160001a905350612cd5600a86613bc9565b9450612c75565b949350505050565b80356001600160a01b0381168114612cfb57600080fd5b919050565b60008060408385031215612d1357600080fd5b612d1c83612ce4565b946020939093013593505050565b60008060408385031215612d3d57600080fd5b82359150612d4d60208401612ce4565b90509250929050565b600060208284031215612d6857600080fd5b5035919050565b634e487b7160e01b600052604160045260246000fd5b600082601f830112612d9657600080fd5b813567ffffffffffffffff80821115612db157612db1612d6f565b604051601f8301601f19908116603f01168101908282118183101715612dd957612dd9612d6f565b81604052838152866020858801011115612df257600080fd5b836020870160208301376000602085830101528094505050505092915050565b600080600080600060a08688031215612e2a57600080fd5b853567ffffffffffffffff80821115612e4257600080fd5b612e4e89838a01612d85565b96506020880135915080821115612e6457600080fd5b612e7089838a01612d85565b95506040880135915080821115612e8657600080fd5b612e9289838a01612d85565b94506060880135915080821115612ea857600080fd5b50612eb588828901612d85565b95989497509295608001359392505050565b6020808252825182820181905260009190848201906040850190845b81811015612eff57835183529284019291840191600101612ee3565b50909695505050505050565b80358015158114612cfb57600080fd5b600080600080600060a08688031215612f3357600080fd5b85359450612f4360208701612f0b565b935060408601359250612f5860608701612f0b565b949793965091946080013592915050565b60005b83811015612f84578181015183820152602001612f6c565b50506000910152565b60008151808452612fa5816020860160208601612f69565b601f01601f19169290920160200192915050565b634e487b7160e01b600052602160045260246000fd5b60058110612fed57634e487b7160e01b600052602160045260246000fd5b9052565b84815260806020820152600061300a6080830186612f8d565b90506130196040830185612fcf565b6001600160a01b0392909216606091909101529392505050565b600080600080600080600060e0888a03121561304e57600080fd5b61305788612f0b565b9650602088013595506040880135945061307360608901612f0b565b935061308160808901612f0b565b925061308f60a08901612f0b565b915060c0880135905092959891949750929550565b600080600080600080600080610100898b0312156130c157600080fd5b6130ca89612f0b565b975060208901359650604089013595506130e660608a01612f0b565b94506130f460808a01612f0b565b935061310260a08a01612f0b565b925060c0890135915060e089013590509295985092959890939650565b80518252600060208201516080602085015261313e6080850182612f8d565b905060408301516131526040860182612fcf565b506060928301516001600160a01b03169390920192909252919050565b602081526000611e30602083018461311f565b60008060008060008060c0878903121561319b57600080fd5b863595506131ab60208801612f0b565b9450604087013593506131c060608801612f0b565b92506080870135915060a087013590509295509295509295565b60006020808301818452808551808352604092508286019150828160051b87010184880160005b8381101561326857603f19898403018552815160808151855288820151818a87015261322f82870182612f8d565b91505087820151858203898701526132478282612f8d565b60609384015196909301959095525094870194925090860190600101613201565b509098975050505050505050565b60008060008060008060c0878903121561328f57600080fd5b863567ffffffffffffffff808211156132a757600080fd5b6132b38a838b01612d85565b975060208901359150808211156132c957600080fd5b6132d58a838b01612d85565b965060408901359150808211156132eb57600080fd5b6132f78a838b01612d85565b9550606089013591508082111561330d57600080fd5b5061331a89828a01612d85565b9350506080870135915060a087013590509295509295509295565b60208152815160208201526000602083015161010080604085015261335e610120850183612f8d565b91506040850151601f198086850301606087015261337c8483612f8d565b935060608701519150808685030160808701526133998483612f8d565b935060808701519150808685030160a0870152506133b78382612f8d565b92505060a085015160c085015260c085015160e085015260e08501516133e7828601826001600160a01b03169052565b5090949350505050565b6020808252825182820181905260009190848201906040850190845b81811015612eff5783516001600160a01b03168352928401929184019160010161340d565b60008060006060848603121561344757600080fd5b83359250602084013567ffffffffffffffff81111561346557600080fd5b61347186828701612d85565b92505061348060408501612f0b565b90509250925092565b815181526020808301516101408301916134a69084018215159052565b50604083015160408301526060830151606083015260808301516134ce608084018215159052565b5060a08301516134e260a084018215159052565b5060c08301516134f660c084018215159052565b5060e083810151908301526101008084015190830152610120928301516001600160a01b0316929091019190915290565b60006101008a83528060208401526135418184018b612f8d565b90508281036040840152613555818a612f8d565b905082810360608401526135698189612f8d565b9050828103608084015261357d8188612f8d565b60a0840196909652505060c08101929092526001600160a01b031660e09091015295945050505050565b600080604083850312156135ba57600080fd5b823567ffffffffffffffff8111156135d157600080fd5b6135dd85828601612d85565b9250506020830135600581106135f257600080fd5b809150509250929050565b6000602080830181845280855180835260408601915060408160051b870101925083870160005b8281101561365257603f1988860301845261364085835161311f565b94509285019290850190600101613624565b5092979650505050505050565b6020808252601b908201527f596f7520646f6e2774206f776e207468697320666163696c6974790000000000604082015260600190565b7f5573657220617574686f72697a6174696f6e207265766f6b65643a20000000008152600082516136ce81601c850160208701612f69565b91909101601c0192915050565b6020808252602f908201527f596f7520646f6e2774206f776e207468697320666163696c697479206f72206960408201526e1d08191bd95cdb89dd08195e1a5cdd608a1b606082015260800190565b60208082526029908201527f4e6f20666163696c6974696573207265676973746572656420666f722074686960408201526873206164647265737360b81b606082015260800190565b634e487b7160e01b600052603260045260246000fd5b600181811c9082168061379d57607f821691505b6020821081036137bd57634e487b7160e01b600052602260045260246000fd5b50919050565b634e487b7160e01b600052601160045260246000fd5b6000600182016137eb576137eb6137c3565b5060010190565b7f486f73706974616c2077617374652072656769737465726564207769746820498152620221d160ed1b602082015260008251613836816023850160208701612f69565b9190910160230192915050565b7f446973706f73616c2077617374652072656769737465726564207769746820498152620221d160ed1b602082015260008251613836816023850160208701612f69565b601f8211156138cd57600081815260208120601f850160051c810160208610156138ae5750805b601f850160051c820191505b81811015610aa5578281556001016138ba565b505050565b815167ffffffffffffffff8111156138ec576138ec612d6f565b613900816138fa8454613789565b84613887565b602080601f831160018114613935576000841561391d5750858301515b600019600386901b1c1916600185901b178555610aa5565b600085815260208120601f198616915b8281101561396457888601518255948401946001909101908401613945565b50858210156139825787850151600019600388901b60f8161c191681555b5050505050600190811b01905550565b7f5472616e73706f72742077617374652072656769737465726564207769746820815263024a21d160e51b6020820152600082516139d7816024850160208701612f69565b9190910160240192915050565b8481526080602082015260006139fd6080830186612f8d565b6040830194909452506060015292915050565b7002ab9b2b91030baba3437b934bd32b21d1607d1b815260008251613a3c816011850160208701612f69565b9190910160110192915050565b60008251613a5b818460208701612f69565b9190910192915050565b7f466163696c697479206361706162696c69747920757064617465643a20000000815260008351613a9d81601d850160208801612f69565b6701039b2ba103a37960c51b601d918401918201528351613ac5816025840160208801612f69565b01602501949350505050565b838152606060208201526000613aea6060830185612f8d565b90508215156040830152949350505050565b7f466163696c69747920726567697374657265642077697468206e616d653a2000815260008251613b3481601f850160208701612f69565b91909101601f0192915050565b808201808211156126a0576126a06137c3565b80820281158282048414176126a0576126a06137c3565b818103818111156126a0576126a06137c3565b838152606060208201526000613b976060830185612f8d565b8281036040840152613ba98185612f8d565b9695505050505050565b634e487b7160e01b600052601260045260246000fd5b600082613bd857613bd8613bb3565b500490565b600082613bec57613bec613bb3565b50069056fe416c6c20666163696c697479206361706162696c697469657320656e61626c6564c64df4b44f4927d858629d0899d8c04091c3c24402ce71e73f11b15bb92ac640a26469706673582212207fd3d90affb91cba5cdcb25e03fafdd48d64e6ac0a4c762e5f5b92a3edef2b7664736f6c63430008130033",
  "linkReferences": {},
  "deployedLinkReferences": {}
}