{
  "_format": "hh-sol-artifact-1",
  "contractName": "FacilityHistory",
  "sourceName": "contracts/FacilityHistory.sol",
  "abi": [
    {
      "anonymous": false,
      "inputs": [
        {
          "indexed": false,
          "internalType": "uint256",
          "name": "facilityId",
          "type": "uint256"
        },
        {
          "indexed": false,
          "internalType": "string",
          "name": "action",
          "type": "string"
        },
        {
          "indexed": false,
          "internalType": "string",
          "name": "details",
          "type": "string"
        }
      ],
      "name": "HistoryAdded",
      "type": "event"
    },
    {
      "inputs": [
        {
          "internalType": "uint256",
          "name": "_facilityId",
          "type": "uint256"
        }
      ],
      "name": "getFacilityHistory",
      "outputs": [
        {
          "components": [
            {
              "internalType": "uint256",
              "name": "timestamp",
              "type": "uint256"
            },
            {
              "internalType": "string",
              "name": "action",
              "type": "string"
            },
            {
              "internalType": "string",
              "name": "details",
              "type": "string"
            },
            {
              "internalType": "bytes32",
              "name": "transactionHash",
              "type": "bytes32"
            }
          ],
          "internalType": "struct FacilityHistory.HistoryEntry[]",
          "name": "",
          "type": "tuple[]"
        }
      ],
      "stateMutability": "view",
      "type": "function"
    }
  ],
  "bytecode": "0x608060405234801561001057600080fd5b50610365806100206000396000f3fe608060405234801561001057600080fd5b506004361061002b5760003560e01c8063a55677cd14610030575b600080fd5b61004361003e3660046101fa565b610059565b6040516100509190610259565b60405180910390f35b600081815260208181526040808320805482518185028101850190935280835260609492939192909184015b828210156101ef5783829060005260206000209060040201604051806080016040529081600082015481526020016001820180546100c2906102f5565b80601f01602080910402602001604051908101604052809291908181526020018280546100ee906102f5565b801561013b5780601f106101105761010080835404028352916020019161013b565b820191906000526020600020905b81548152906001019060200180831161011e57829003601f168201915b50505050508152602001600282018054610154906102f5565b80601f0160208091040260200160405190810160405280929190818152602001828054610180906102f5565b80156101cd5780601f106101a2576101008083540402835291602001916101cd565b820191906000526020600020905b8154815290600101906020018083116101b057829003601f168201915b5050505050815260200160038201548152505081526020019060010190610085565b505050509050919050565b60006020828403121561020c57600080fd5b5035919050565b6000815180845260005b818110156102395760208185018101518683018201520161021d565b506000602082860101526020601f19601f83011685010191505092915050565b60006020808301818452808551808352604092508286019150828160051b87010184880160005b838110156102e757603f19898403018552815160808151855288820151818a8701526102ae82870182610213565b91505087820151858203898701526102c68282610213565b60609384015196909301959095525094870194925090860190600101610280565b509098975050505050505050565b600181811c9082168061030957607f821691505b60208210810361032957634e487b7160e01b600052602260045260246000fd5b5091905056fea26469706673582212204c0a011cfecdd56ccfcb80908c4ca115c4cb9d0a8036ff5c75a38d047c14086f64736f6c63430008130033",
  "linkReferences": {},
  "deployedLinkReferences": {}
}